{"abi":[{"type":"constructor","inputs":[{"name":"_poolManager","type":"address","internalType":"contract IPoolManager"}],"stateMutability":"nonpayable"},{"type":"function","name":"afterAddLiquidity","inputs":[{"name":"sender","type":"address","internalType":"address"},{"name":"key","type":"tuple","internalType":"struct PoolKey","components":[{"name":"currency0","type":"address","internalType":"Currency"},{"name":"currency1","type":"address","internalType":"Currency"},{"name":"fee","type":"uint24","internalType":"uint24"},{"name":"tickSpacing","type":"int24","internalType":"int24"},{"name":"hooks","type":"address","internalType":"contract IHooks"}]},{"name":"params","type":"tuple","internalType":"struct ModifyLiquidityParams","components":[{"name":"tickLower","type":"int24","internalType":"int24"},{"name":"tickUpper","type":"int24","internalType":"int24"},{"name":"liquidityDelta","type":"int256","internalType":"int256"},{"name":"salt","type":"bytes32","internalType":"bytes32"}]},{"name":"delta0","type":"int256","internalType":"BalanceDelta"},{"name":"delta1","type":"int256","internalType":"BalanceDelta"},{"name":"hookData","type":"bytes","internalType":"bytes"}],"outputs":[{"name":"","type":"bytes4","internalType":"bytes4"},{"name":"","type":"int256","internalType":"BalanceDelta"}],"stateMutability":"nonpayable"},{"type":"function","name":"afterDonate","inputs":[{"name":"sender","type":"address","internalType":"address"},{"name":"key","type":"tuple","internalType":"struct PoolKey","components":[{"name":"currency0","type":"address","internalType":"Currency"},{"name":"currency1","type":"address","internalType":"Currency"},{"name":"fee","type":"uint24","internalType":"uint24"},{"name":"tickSpacing","type":"int24","internalType":"int24"},{"name":"hooks","type":"address","internalType":"contract IHooks"}]},{"name":"amount0","type":"uint256","internalType":"uint256"},{"name":"amount1","type":"uint256","internalType":"uint256"},{"name":"hookData","type":"bytes","internalType":"bytes"}],"outputs":[{"name":"","type":"bytes4","internalType":"bytes4"}],"stateMutability":"nonpayable"},{"type":"function","name":"afterInitialize","inputs":[{"name":"sender","type":"address","internalType":"address"},{"name":"key","type":"tuple","internalType":"struct PoolKey","components":[{"name":"currency0","type":"address","internalType":"Currency"},{"name":"currency1","type":"address","internalType":"Currency"},{"name":"fee","type":"uint24","internalType":"uint24"},{"name":"tickSpacing","type":"int24","internalType":"int24"},{"name":"hooks","type":"address","internalType":"contract IHooks"}]},{"name":"sqrtPriceX96","type":"uint160","internalType":"uint160"},{"name":"tick","type":"int24","internalType":"int24"}],"outputs":[{"name":"","type":"bytes4","internalType":"bytes4"}],"stateMutability":"nonpayable"},{"type":"function","name":"afterRemoveLiquidity","inputs":[{"name":"sender","type":"address","internalType":"address"},{"name":"key","type":"tuple","internalType":"struct PoolKey","components":[{"name":"currency0","type":"address","internalType":"Currency"},{"name":"currency1","type":"address","internalType":"Currency"},{"name":"fee","type":"uint24","internalType":"uint24"},{"name":"tickSpacing","type":"int24","internalType":"int24"},{"name":"hooks","type":"address","internalType":"contract IHooks"}]},{"name":"params","type":"tuple","internalType":"struct ModifyLiquidityParams","components":[{"name":"tickLower","type":"int24","internalType":"int24"},{"name":"tickUpper","type":"int24","internalType":"int24"},{"name":"liquidityDelta","type":"int256","internalType":"int256"},{"name":"salt","type":"bytes32","internalType":"bytes32"}]},{"name":"delta0","type":"int256","internalType":"BalanceDelta"},{"name":"delta1","type":"int256","internalType":"BalanceDelta"},{"name":"hookData","type":"bytes","internalType":"bytes"}],"outputs":[{"name":"","type":"bytes4","internalType":"bytes4"},{"name":"","type":"int256","internalType":"BalanceDelta"}],"stateMutability":"nonpayable"},{"type":"function","name":"afterSwap","inputs":[{"name":"sender","type":"address","internalType":"address"},{"name":"key","type":"tuple","internalType":"struct PoolKey","components":[{"name":"currency0","type":"address","internalType":"Currency"},{"name":"currency1","type":"address","internalType":"Currency"},{"name":"fee","type":"uint24","internalType":"uint24"},{"name":"tickSpacing","type":"int24","internalType":"int24"},{"name":"hooks","type":"address","internalType":"contract IHooks"}]},{"name":"params","type":"tuple","internalType":"struct SwapParams","components":[{"name":"zeroForOne","type":"bool","internalType":"bool"},{"name":"amountSpecified","type":"int256","internalType":"int256"},{"name":"sqrtPriceLimitX96","type":"uint160","internalType":"uint160"}]},{"name":"delta","type":"int256","internalType":"BalanceDelta"},{"name":"hookData","type":"bytes","internalType":"bytes"}],"outputs":[{"name":"","type":"bytes4","internalType":"bytes4"},{"name":"","type":"int128","internalType":"int128"}],"stateMutability":"nonpayable"},{"type":"function","name":"beforeAddLiquidity","inputs":[{"name":"sender","type":"address","internalType":"address"},{"name":"key","type":"tuple","internalType":"struct PoolKey","components":[{"name":"currency0","type":"address","internalType":"Currency"},{"name":"currency1","type":"address","internalType":"Currency"},{"name":"fee","type":"uint24","internalType":"uint24"},{"name":"tickSpacing","type":"int24","internalType":"int24"},{"name":"hooks","type":"address","internalType":"contract IHooks"}]},{"name":"params","type":"tuple","internalType":"struct ModifyLiquidityParams","components":[{"name":"tickLower","type":"int24","internalType":"int24"},{"name":"tickUpper","type":"int24","internalType":"int24"},{"name":"liquidityDelta","type":"int256","internalType":"int256"},{"name":"salt","type":"bytes32","internalType":"bytes32"}]},{"name":"hookData","type":"bytes","internalType":"bytes"}],"outputs":[{"name":"","type":"bytes4","internalType":"bytes4"}],"stateMutability":"nonpayable"},{"type":"function","name":"beforeDonate","inputs":[{"name":"sender","type":"address","internalType":"address"},{"name":"key","type":"tuple","internalType":"struct PoolKey","components":[{"name":"currency0","type":"address","internalType":"Currency"},{"name":"currency1","type":"address","internalType":"Currency"},{"name":"fee","type":"uint24","internalType":"uint24"},{"name":"tickSpacing","type":"int24","internalType":"int24"},{"name":"hooks","type":"address","internalType":"contract IHooks"}]},{"name":"amount0","type":"uint256","internalType":"uint256"},{"name":"amount1","type":"uint256","internalType":"uint256"},{"name":"hookData","type":"bytes","internalType":"bytes"}],"outputs":[{"name":"","type":"bytes4","internalType":"bytes4"}],"stateMutability":"nonpayable"},{"type":"function","name":"beforeInitialize","inputs":[{"name":"sender","type":"address","internalType":"address"},{"name":"key","type":"tuple","internalType":"struct PoolKey","components":[{"name":"currency0","type":"address","internalType":"Currency"},{"name":"currency1","type":"address","internalType":"Currency"},{"name":"fee","type":"uint24","internalType":"uint24"},{"name":"tickSpacing","type":"int24","internalType":"int24"},{"name":"hooks","type":"address","internalType":"contract IHooks"}]},{"name":"sqrtPriceX96","type":"uint160","internalType":"uint160"}],"outputs":[{"name":"","type":"bytes4","internalType":"bytes4"}],"stateMutability":"nonpayable"},{"type":"function","name":"beforeRemoveLiquidity","inputs":[{"name":"sender","type":"address","internalType":"address"},{"name":"key","type":"tuple","internalType":"struct PoolKey","components":[{"name":"currency0","type":"address","internalType":"Currency"},{"name":"currency1","type":"address","internalType":"Currency"},{"name":"fee","type":"uint24","internalType":"uint24"},{"name":"tickSpacing","type":"int24","internalType":"int24"},{"name":"hooks","type":"address","internalType":"contract IHooks"}]},{"name":"params","type":"tuple","internalType":"struct ModifyLiquidityParams","components":[{"name":"tickLower","type":"int24","internalType":"int24"},{"name":"tickUpper","type":"int24","internalType":"int24"},{"name":"liquidityDelta","type":"int256","internalType":"int256"},{"name":"salt","type":"bytes32","internalType":"bytes32"}]},{"name":"hookData","type":"bytes","internalType":"bytes"}],"outputs":[{"name":"","type":"bytes4","internalType":"bytes4"}],"stateMutability":"nonpayable"},{"type":"function","name":"beforeSwap","inputs":[{"name":"sender","type":"address","internalType":"address"},{"name":"key","type":"tuple","internalType":"struct PoolKey","components":[{"name":"currency0","type":"address","internalType":"Currency"},{"name":"currency1","type":"address","internalType":"Currency"},{"name":"fee","type":"uint24","internalType":"uint24"},{"name":"tickSpacing","type":"int24","internalType":"int24"},{"name":"hooks","type":"address","internalType":"contract IHooks"}]},{"name":"params","type":"tuple","internalType":"struct SwapParams","components":[{"name":"zeroForOne","type":"bool","internalType":"bool"},{"name":"amountSpecified","type":"int256","internalType":"int256"},{"name":"sqrtPriceLimitX96","type":"uint160","internalType":"uint160"}]},{"name":"hookData","type":"bytes","internalType":"bytes"}],"outputs":[{"name":"","type":"bytes4","internalType":"bytes4"},{"name":"","type":"int256","internalType":"BeforeSwapDelta"},{"name":"","type":"uint24","internalType":"uint24"}],"stateMutability":"nonpayable"},{"type":"function","name":"getHookPermissions","inputs":[],"outputs":[{"name":"permissions","type":"tuple","internalType":"struct Hooks.Permissions","components":[{"name":"beforeInitialize","type":"bool","internalType":"bool"},{"name":"afterInitialize","type":"bool","internalType":"bool"},{"name":"beforeAddLiquidity","type":"bool","internalType":"bool"},{"name":"afterAddLiquidity","type":"bool","internalType":"bool"},{"name":"beforeRemoveLiquidity","type":"bool","internalType":"bool"},{"name":"afterRemoveLiquidity","type":"bool","internalType":"bool"},{"name":"beforeSwap","type":"bool","internalType":"bool"},{"name":"afterSwap","type":"bool","internalType":"bool"},{"name":"beforeDonate","type":"bool","internalType":"bool"},{"name":"afterDonate","type":"bool","internalType":"bool"},{"name":"beforeSwapReturnDelta","type":"bool","internalType":"bool"},{"name":"afterSwapReturnDelta","type":"bool","internalType":"bool"},{"name":"afterAddLiquidityReturnDelta","type":"bool","internalType":"bool"},{"name":"afterRemoveLiquidityReturnDelta","type":"bool","internalType":"bool"}]}],"stateMutability":"pure"},{"type":"function","name":"poolManager","inputs":[],"outputs":[{"name":"","type":"address","internalType":"contract IPoolManager"}],"stateMutability":"view"},{"type":"function","name":"test","inputs":[],"outputs":[],"stateMutability":"nonpayable"},{"type":"event","name":"HookBonus","inputs":[{"name":"poolId","type":"bytes32","indexed":true,"internalType":"bytes32"},{"name":"amount0","type":"uint128","indexed":false,"internalType":"uint128"},{"name":"amount1","type":"uint128","indexed":false,"internalType":"uint128"}],"anonymous":false},{"type":"event","name":"HookFee","inputs":[{"name":"poolId","type":"bytes32","indexed":true,"internalType":"bytes32"},{"name":"sender","type":"address","indexed":true,"internalType":"address"},{"name":"feeAmount0","type":"uint128","indexed":false,"internalType":"uint128"},{"name":"feeAmount1","type":"uint128","indexed":false,"internalType":"uint128"}],"anonymous":false},{"type":"event","name":"HookModifyLiquidity","inputs":[{"name":"poolId","type":"bytes32","indexed":true,"internalType":"bytes32"},{"name":"sender","type":"address","indexed":true,"internalType":"address"},{"name":"amount0","type":"int128","indexed":false,"internalType":"int128"},{"name":"amount1","type":"int128","indexed":false,"internalType":"int128"}],"anonymous":false},{"type":"event","name":"HookSwap","inputs":[{"name":"poolId","type":"bytes32","indexed":true,"internalType":"bytes32"},{"name":"sender","type":"address","indexed":true,"internalType":"address"},{"name":"amount0","type":"int128","indexed":false,"internalType":"int128"},{"name":"amount1","type":"int128","indexed":false,"internalType":"int128"},{"name":"hookLPfeeAmount0","type":"uint128","indexed":false,"internalType":"uint128"},{"name":"hookLPfeeAmount1","type":"uint128","indexed":false,"internalType":"uint128"}],"anonymous":false},{"type":"error","name":"HookNotImplemented","inputs":[]},{"type":"error","name":"InvalidPool","inputs":[]},{"type":"error","name":"NotPoolManager","inputs":[]},{"type":"error","name":"NotSelf","inputs":[]}],"bytecode":{"object":"0x60a060405234801561000f575f5ffd5b50604051612474380380612474833981810160405281019061003191906105e9565b80808073ffffffffffffffffffffffffffffffffffffffff1660808173ffffffffffffffffffffffffffffffffffffffff16815250506100763061007e60201b60201c565b505050610614565b61009b8161009061009e60201b60201c565b61012760201b60201c565b50565b6100a66104fd565b604051806101c001604052805f151581526020015f151581526020015f151581526020015f151581526020015f151581526020015f151581526020016001151581526020015f151581526020015f151581526020015f151581526020016001151581526020015f151581526020015f151581526020015f1515815250905090565b6101526120008373ffffffffffffffffffffffffffffffffffffffff166104b660201b90919060201c565b1515815f01511515141580610199575061018d6110008373ffffffffffffffffffffffffffffffffffffffff166104b660201b90919060201c565b15158160200151151514155b806101d657506101ca6108008373ffffffffffffffffffffffffffffffffffffffff166104b660201b90919060201c565b15158160400151151514155b8061021357506102076104008373ffffffffffffffffffffffffffffffffffffffff166104b660201b90919060201c565b15158160600151151514155b8061025057506102446102008373ffffffffffffffffffffffffffffffffffffffff166104b660201b90919060201c565b15158160800151151514155b8061028d57506102816101008373ffffffffffffffffffffffffffffffffffffffff166104b660201b90919060201c565b15158160a00151151514155b806102c957506102bd60808373ffffffffffffffffffffffffffffffffffffffff166104b660201b90919060201c565b15158160c00151151514155b8061030557506102f960408373ffffffffffffffffffffffffffffffffffffffff166104b660201b90919060201c565b15158160e00151151514155b80610342575061033560208373ffffffffffffffffffffffffffffffffffffffff166104b660201b90919060201c565b1515816101000151151514155b8061037f575061037260108373ffffffffffffffffffffffffffffffffffffffff166104b660201b90919060201c565b1515816101200151151514155b806103bc57506103af60088373ffffffffffffffffffffffffffffffffffffffff166104b660201b90919060201c565b1515816101400151151514155b806103f957506103ec60048373ffffffffffffffffffffffffffffffffffffffff166104b660201b90919060201c565b1515816101600151151514155b80610436575061042960028373ffffffffffffffffffffffffffffffffffffffff166104b660201b90919060201c565b1515816101800151151514155b80610473575061046660018373ffffffffffffffffffffffffffffffffffffffff166104b660201b90919060201c565b1515816101a00151151514155b156104b2576104b18263e65af6a060e01b7bffffffffffffffffffffffffffffffffffffffffffffffffffffffff19166104db60201b90919060201c565b5b5050565b5f5f82841673ffffffffffffffffffffffffffffffffffffffff161415905092915050565b815f5273ffffffffffffffffffffffffffffffffffffffff811660045260245ffd5b604051806101c001604052805f151581526020015f151581526020015f151581526020015f151581526020015f151581526020015f151581526020015f151581526020015f151581526020015f151581526020015f151581526020015f151581526020015f151581526020015f151581526020015f151581525090565b5f5ffd5b5f73ffffffffffffffffffffffffffffffffffffffff82169050919050565b5f6105a78261057e565b9050919050565b5f6105b88261059d565b9050919050565b6105c8816105ae565b81146105d2575f5ffd5b50565b5f815190506105e3816105bf565b92915050565b5f602082840312156105fe576105fd61057a565b5b5f61060b848285016105d5565b91505092915050565b608051611dfb6106795f395f81816102ff0152818161039d0152818161043d015281816104e20152818161058701528181610624015281816106ca0152818161076d01528181610895015281816108ba015281816109540152610ac20152611dfb5ff3fe608060405234801561000f575f5ffd5b50600436106100cd575f3560e01c8063b47b2fb11161008a578063dc4c90d311610064578063dc4c90d314610274578063dc98354e14610292578063e1b4af69146102c2578063f8a8fd6d146102f2576100cd565b8063b47b2fb1146101f5578063b6a8b0fa14610226578063c4e833ce14610256576100cd565b806321d0ee70146100d1578063259982e514610101578063575e24b4146101315780636c2bbe7e146101635780636fe7e6eb146101945780639f063efc146101c4575b5f5ffd5b6100eb60048036038101906100e691906111ab565b6102fc565b6040516100f8919061126b565b60405180910390f35b61011b600480360381019061011691906111ab565b61039a565b604051610128919061126b565b60405180910390f35b61014b600480360381019061014691906112a2565b610438565b60405161015a93929190611387565b60405180910390f35b61017d600480360381019061017891906113e6565b6104de565b60405161018b9291906114a3565b60405180910390f35b6101ae60048036038101906101a9919061152a565b610584565b6040516101bb919061126b565b60405180910390f35b6101de60048036038101906101d991906113e6565b610620565b6040516101ec9291906114a3565b60405180910390f35b61020f600480360381019061020a919061158f565b6106c6565b60405161021d929190611643565b60405180910390f35b610240600480360381019061023b919061169d565b61076a565b60405161024d919061126b565b60405180910390f35b61025e61080a565b60405161026b919061186d565b60405180910390f35b61027c610893565b60405161028991906118d9565b60405180910390f35b6102ac60048036038101906102a791906118f2565b6108b7565b6040516102b9919061126b565b60405180910390f35b6102dc60048036038101906102d7919061169d565b610951565b6040516102e9919061126b565b60405180910390f35b6102fa6109f1565b005b5f7f000000000000000000000000000000000000000000000000000000000000000073ffffffffffffffffffffffffffffffffffffffff163373ffffffffffffffffffffffffffffffffffffffff1614610382576040517fae18210a00000000000000000000000000000000000000000000000000000000815260040160405180910390fd5b61038f86868686866109f3565b905095945050505050565b5f7f000000000000000000000000000000000000000000000000000000000000000073ffffffffffffffffffffffffffffffffffffffff163373ffffffffffffffffffffffffffffffffffffffff1614610420576040517fae18210a00000000000000000000000000000000000000000000000000000000815260040160405180910390fd5b61042d8686868686610a26565b905095945050505050565b5f5f5f7f000000000000000000000000000000000000000000000000000000000000000073ffffffffffffffffffffffffffffffffffffffff163373ffffffffffffffffffffffffffffffffffffffff16146104c0576040517fae18210a00000000000000000000000000000000000000000000000000000000815260040160405180910390fd5b6104cd8888888888610a59565b925092509250955095509592505050565b5f5f7f000000000000000000000000000000000000000000000000000000000000000073ffffffffffffffffffffffffffffffffffffffff163373ffffffffffffffffffffffffffffffffffffffff1614610565576040517fae18210a00000000000000000000000000000000000000000000000000000000815260040160405180910390fd5b61057489898989898989610c7f565b9150915097509795505050505050565b5f7f000000000000000000000000000000000000000000000000000000000000000073ffffffffffffffffffffffffffffffffffffffff163373ffffffffffffffffffffffffffffffffffffffff161461060a576040517fae18210a00000000000000000000000000000000000000000000000000000000815260040160405180910390fd5b61061685858585610cb3565b9050949350505050565b5f5f7f000000000000000000000000000000000000000000000000000000000000000073ffffffffffffffffffffffffffffffffffffffff163373ffffffffffffffffffffffffffffffffffffffff16146106a7576040517fae18210a00000000000000000000000000000000000000000000000000000000815260040160405180910390fd5b6106b689898989898989610ce6565b9150915097509795505050505050565b5f5f7f000000000000000000000000000000000000000000000000000000000000000073ffffffffffffffffffffffffffffffffffffffff163373ffffffffffffffffffffffffffffffffffffffff161461074d576040517fae18210a00000000000000000000000000000000000000000000000000000000815260040160405180910390fd5b61075b888888888888610d1a565b91509150965096945050505050565b5f7f000000000000000000000000000000000000000000000000000000000000000073ffffffffffffffffffffffffffffffffffffffff163373ffffffffffffffffffffffffffffffffffffffff16146107f0576040517fae18210a00000000000000000000000000000000000000000000000000000000815260040160405180910390fd5b6107fe878787878787610d4e565b90509695505050505050565b610812611022565b604051806101c001604052805f151581526020015f151581526020015f151581526020015f151581526020015f151581526020015f151581526020016001151581526020015f151581526020015f151581526020015f151581526020016001151581526020015f151581526020015f151581526020015f1515815250905090565b7f000000000000000000000000000000000000000000000000000000000000000081565b5f7f000000000000000000000000000000000000000000000000000000000000000073ffffffffffffffffffffffffffffffffffffffff163373ffffffffffffffffffffffffffffffffffffffff161461093d576040517fae18210a00000000000000000000000000000000000000000000000000000000815260040160405180910390fd5b610948848484610d81565b90509392505050565b5f7f000000000000000000000000000000000000000000000000000000000000000073ffffffffffffffffffffffffffffffffffffffff163373ffffffffffffffffffffffffffffffffffffffff16146109d7576040517fae18210a00000000000000000000000000000000000000000000000000000000815260040160405180910390fd5b6109e5878787878787610db4565b90509695505050505050565b565b5f6040517f0a85dc2900000000000000000000000000000000000000000000000000000000815260040160405180910390fd5b5f6040517f0a85dc2900000000000000000000000000000000000000000000000000000000815260040160405180910390fd5b5f5f5f5f86602001351215610c63575f865f016020810190610a7b919061196c565b610a9757876020016020810190610a9291906119c1565b610aaa565b875f016020810190610aa991906119c1565b5b90505f8760200135610abb90611a19565b9050610b0d7f0000000000000000000000000000000000000000000000000000000000000000308360018673ffffffffffffffffffffffffffffffffffffffff16610de790949392919063ffffffff16565b5f610b188a83610ef4565b9050610b35838b5f016020810190610b3091906119c1565b610efe565b15610bbc578a73ffffffffffffffffffffffffffffffffffffffff16610b6a8b803603810190610b659190611bd9565b610f36565b7f365f10e9e7ce45d7acfd986c42e0b666f8af282e440e6dafc78c1f2b2f786760610b9485610f42565b5f610b9e86610f92565b5f604051610baf9493929190611c97565b60405180910390a3610c3a565b8a73ffffffffffffffffffffffffffffffffffffffff16610bec8b803603810190610be79190611bd9565b610f36565b7f365f10e9e7ce45d7acfd986c42e0b666f8af282e440e6dafc78c1f2b2f7867605f610c1786610f42565b5f610c2187610f92565b604051610c319493929190611cda565b60405180910390a35b63575e24b460e01b610c54610c4e84610f42565b5f610fe4565b5f955095509550505050610c74565b63575e24b460e01b5f5f9250925092505b955095509592505050565b5f5f6040517f0a85dc2900000000000000000000000000000000000000000000000000000000815260040160405180910390fd5b5f6040517f0a85dc2900000000000000000000000000000000000000000000000000000000815260040160405180910390fd5b5f5f6040517f0a85dc2900000000000000000000000000000000000000000000000000000000815260040160405180910390fd5b5f5f6040517f0a85dc2900000000000000000000000000000000000000000000000000000000815260040160405180910390fd5b5f6040517f0a85dc2900000000000000000000000000000000000000000000000000000000815260040160405180910390fd5b5f6040517f0a85dc2900000000000000000000000000000000000000000000000000000000815260040160405180910390fd5b5f6040517f0a85dc2900000000000000000000000000000000000000000000000000000000815260040160405180910390fd5b5f820315610eed5780610e63578373ffffffffffffffffffffffffffffffffffffffff16630b0d9c098685856040518463ffffffff1660e01b8152600401610e3193929190611d5b565b5f604051808303815f87803b158015610e48575f5ffd5b505af1158015610e5a573d5f5f3e3d5ffd5b50505050610eec565b8373ffffffffffffffffffffffffffffffffffffffff1663156e29f684610e9f8873ffffffffffffffffffffffffffffffffffffffff16610ffb565b856040518463ffffffff1660e01b8152600401610ebe93929190611d90565b5f604051808303815f87803b158015610ed5575f5ffd5b505af1158015610ee7573d5f5f3e3d5ffd5b505050505b5b5050505050565b5f5f905092915050565b5f8173ffffffffffffffffffffffffffffffffffffffff168373ffffffffffffffffffffffffffffffffffffffff1614905092915050565b5f60a082209050919050565b5f6f800000000000000000000000000000008210610f8a57610f896393dafdf160e01b7bffffffffffffffffffffffffffffffffffffffffffffffffffffffff191661101a565b5b819050919050565b5f819050806fffffffffffffffffffffffffffffffff168214610fdf57610fde6393dafdf160e01b7bffffffffffffffffffffffffffffffffffffffffffffffffffffffff191661101a565b5b919050565b5f8160018060801b03168360801b17905092915050565b5f8173ffffffffffffffffffffffffffffffffffffffff169050919050565b805f5260045ffd5b604051806101c001604052805f151581526020015f151581526020015f151581526020015f151581526020015f151581526020015f151581526020015f151581526020015f151581526020015f151581526020015f151581526020015f151581526020015f151581526020015f151581526020015f151581525090565b5f604051905090565b5f5ffd5b5f5ffd5b5f73ffffffffffffffffffffffffffffffffffffffff82169050919050565b5f6110d9826110b0565b9050919050565b6110e9816110cf565b81146110f3575f5ffd5b50565b5f81359050611104816110e0565b92915050565b5f5ffd5b5f60a082840312156111235761112261110a565b5b81905092915050565b5f608082840312156111415761114061110a565b5b81905092915050565b5f5ffd5b5f5ffd5b5f5ffd5b5f5f83601f84011261116b5761116a61114a565b5b8235905067ffffffffffffffff8111156111885761118761114e565b5b6020830191508360018202830111156111a4576111a3611152565b5b9250929050565b5f5f5f5f5f61016086880312156111c5576111c46110a8565b5b5f6111d2888289016110f6565b95505060206111e38882890161110e565b94505060c06111f48882890161112c565b93505061014086013567ffffffffffffffff811115611216576112156110ac565b5b61122288828901611156565b92509250509295509295909350565b5f7fffffffff0000000000000000000000000000000000000000000000000000000082169050919050565b61126581611231565b82525050565b5f60208201905061127e5f83018461125c565b92915050565b5f606082840312156112995761129861110a565b5b81905092915050565b5f5f5f5f5f61014086880312156112bc576112bb6110a8565b5b5f6112c9888289016110f6565b95505060206112da8882890161110e565b94505060c06112eb88828901611284565b93505061012086013567ffffffffffffffff81111561130d5761130c6110ac565b5b61131988828901611156565b92509250509295509295909350565b5f819050919050565b5f819050919050565b5f61135461134f61134a84611328565b611331565b611328565b9050919050565b6113648161133a565b82525050565b5f62ffffff82169050919050565b6113818161136a565b82525050565b5f60608201905061139a5f83018661125c565b6113a7602083018561135b565b6113b46040830184611378565b949350505050565b6113c581611328565b81146113cf575f5ffd5b50565b5f813590506113e0816113bc565b92915050565b5f5f5f5f5f5f5f6101a0888a031215611402576114016110a8565b5b5f61140f8a828b016110f6565b97505060206114208a828b0161110e565b96505060c06114318a828b0161112c565b9550506101406114438a828b016113d2565b9450506101606114558a828b016113d2565b93505061018088013567ffffffffffffffff811115611477576114766110ac565b5b6114838a828b01611156565b925092505092959891949750929550565b61149d8161133a565b82525050565b5f6040820190506114b65f83018561125c565b6114c36020830184611494565b9392505050565b6114d3816110b0565b81146114dd575f5ffd5b50565b5f813590506114ee816114ca565b92915050565b5f8160020b9050919050565b611509816114f4565b8114611513575f5ffd5b50565b5f8135905061152481611500565b92915050565b5f5f5f5f6101008587031215611543576115426110a8565b5b5f611550878288016110f6565b94505060206115618782880161110e565b93505060c0611572878288016114e0565b92505060e061158387828801611516565b91505092959194509250565b5f5f5f5f5f5f61016087890312156115aa576115a96110a8565b5b5f6115b789828a016110f6565b96505060206115c889828a0161110e565b95505060c06115d989828a01611284565b9450506101206115eb89828a016113d2565b93505061014087013567ffffffffffffffff81111561160d5761160c6110ac565b5b61161989828a01611156565b92509250509295509295509295565b5f81600f0b9050919050565b61163d81611628565b82525050565b5f6040820190506116565f83018561125c565b6116636020830184611634565b9392505050565b5f819050919050565b61167c8161166a565b8114611686575f5ffd5b50565b5f8135905061169781611673565b92915050565b5f5f5f5f5f5f61012087890312156116b8576116b76110a8565b5b5f6116c589828a016110f6565b96505060206116d689828a0161110e565b95505060c06116e789828a01611689565b94505060e06116f889828a01611689565b93505061010087013567ffffffffffffffff81111561171a576117196110ac565b5b61172689828a01611156565b92509250509295509295509295565b5f8115159050919050565b61174981611735565b82525050565b6101c082015f8201516117645f850182611740565b5060208201516117776020850182611740565b50604082015161178a6040850182611740565b50606082015161179d6060850182611740565b5060808201516117b06080850182611740565b5060a08201516117c360a0850182611740565b5060c08201516117d660c0850182611740565b5060e08201516117e960e0850182611740565b506101008201516117fe610100850182611740565b50610120820151611813610120850182611740565b50610140820151611828610140850182611740565b5061016082015161183d610160850182611740565b50610180820151611852610180850182611740565b506101a08201516118676101a0850182611740565b50505050565b5f6101c0820190506118815f83018461174f565b92915050565b5f6118a161189c611897846110b0565b611331565b6110b0565b9050919050565b5f6118b282611887565b9050919050565b5f6118c3826118a8565b9050919050565b6118d3816118b9565b82525050565b5f6020820190506118ec5f8301846118ca565b92915050565b5f5f5f60e08486031215611909576119086110a8565b5b5f611916868287016110f6565b93505060206119278682870161110e565b92505060c0611938868287016114e0565b9150509250925092565b61194b81611735565b8114611955575f5ffd5b50565b5f8135905061196681611942565b92915050565b5f60208284031215611981576119806110a8565b5b5f61198e84828501611958565b91505092915050565b6119a0816110cf565b81146119aa575f5ffd5b50565b5f813590506119bb81611997565b92915050565b5f602082840312156119d6576119d56110a8565b5b5f6119e3848285016119ad565b91505092915050565b7f4e487b71000000000000000000000000000000000000000000000000000000005f52601160045260245ffd5b5f611a2382611328565b91507f80000000000000000000000000000000000000000000000000000000000000008203611a5557611a546119ec565b5b815f039050919050565b5f5ffd5b5f601f19601f8301169050919050565b7f4e487b71000000000000000000000000000000000000000000000000000000005f52604160045260245ffd5b611aa982611a63565b810181811067ffffffffffffffff82111715611ac857611ac7611a73565b5b80604052505050565b5f611ada61109f565b9050611ae68282611aa0565b919050565b611af48161136a565b8114611afe575f5ffd5b50565b5f81359050611b0f81611aeb565b92915050565b5f611b1f826110cf565b9050919050565b611b2f81611b15565b8114611b39575f5ffd5b50565b5f81359050611b4a81611b26565b92915050565b5f60a08284031215611b6557611b64611a5f565b5b611b6f60a0611ad1565b90505f611b7e848285016119ad565b5f830152506020611b91848285016119ad565b6020830152506040611ba584828501611b01565b6040830152506060611bb984828501611516565b6060830152506080611bcd84828501611b3c565b60808301525092915050565b5f60a08284031215611bee57611bed6110a8565b5b5f611bfb84828501611b50565b91505092915050565b5f819050919050565b5f611c27611c22611c1d84611c04565b611331565b611628565b9050919050565b611c3781611c0d565b82525050565b5f6fffffffffffffffffffffffffffffffff82169050919050565b611c6181611c3d565b82525050565b5f611c81611c7c611c7784611c04565b611331565b611c3d565b9050919050565b611c9181611c67565b82525050565b5f608082019050611caa5f830187611634565b611cb76020830186611c2e565b611cc46040830185611c58565b611cd16060830184611c88565b95945050505050565b5f608082019050611ced5f830187611c2e565b611cfa6020830186611634565b611d076040830185611c88565b611d146060830184611c58565b95945050505050565b5f611d27826118a8565b9050919050565b611d3781611d1d565b82525050565b611d46816110cf565b82525050565b611d558161166a565b82525050565b5f606082019050611d6e5f830186611d2e565b611d7b6020830185611d3d565b611d886040830184611d4c565b949350505050565b5f606082019050611da35f830186611d3d565b611db06020830185611d4c565b611dbd6040830184611d4c565b94935050505056fea2646970667358221220334fc3d9f9510813255143d68dd7a0717f31069ecab9b089324320b0e8a69d1c64736f6c634300081e0033","linkReferences":{}},"methodIdentifiers":{"afterAddLiquidity(address,(address,address,uint24,int24,address),(int24,int24,int256,bytes32),int256,int256,bytes)":"9f063efc","afterDonate(address,(address,address,uint24,int24,address),uint256,uint256,bytes)":"e1b4af69","afterInitialize(address,(address,address,uint24,int24,address),uint160,int24)":"6fe7e6eb","afterRemoveLiquidity(address,(address,address,uint24,int24,address),(int24,int24,int256,bytes32),int256,int256,bytes)":"6c2bbe7e","afterSwap(address,(address,address,uint24,int24,address),(bool,int256,uint160),int256,bytes)":"b47b2fb1","beforeAddLiquidity(address,(address,address,uint24,int24,address),(int24,int24,int256,bytes32),bytes)":"259982e5","beforeDonate(address,(address,address,uint24,int24,address),uint256,uint256,bytes)":"b6a8b0fa","beforeInitialize(address,(address,address,uint24,int24,address),uint160)":"dc98354e","beforeRemoveLiquidity(address,(address,address,uint24,int24,address),(int24,int24,int256,bytes32),bytes)":"21d0ee70","beforeSwap(address,(address,address,uint24,int24,address),(bool,int256,uint160),bytes)":"575e24b4","getHookPermissions()":"c4e833ce","poolManager()":"dc4c90d3","test()":"f8a8fd6d"},"id":124}