{"abi":[{"type":"constructor","inputs":[{"name":"_manager","type":"address","internalType":"contract IPoolManager"}],"stateMutability":"nonpayable"},{"type":"function","name":"manager","inputs":[],"outputs":[{"name":"","type":"address","internalType":"contract IPoolManager"}],"stateMutability":"view"},{"type":"function","name":"swap","inputs":[{"name":"key","type":"tuple","internalType":"struct PoolKey","components":[{"name":"currency0","type":"address","internalType":"Currency"},{"name":"currency1","type":"address","internalType":"Currency"},{"name":"fee","type":"uint24","internalType":"uint24"},{"name":"tickSpacing","type":"int24","internalType":"int24"},{"name":"hooks","type":"address","internalType":"contract IHooks"}]},{"name":"params","type":"tuple","internalType":"struct SwapParams","components":[{"name":"zeroForOne","type":"bool","internalType":"bool"},{"name":"amountSpecified","type":"int256","internalType":"int256"},{"name":"sqrtPriceLimitX96","type":"uint160","internalType":"uint160"}]},{"name":"testSettings","type":"tuple","internalType":"struct PoolSwapTest.TestSettings","components":[{"name":"takeClaims","type":"bool","internalType":"bool"},{"name":"settleUsingBurn","type":"bool","internalType":"bool"}]},{"name":"hookData","type":"bytes","internalType":"bytes"}],"outputs":[{"name":"delta","type":"int256","internalType":"BalanceDelta"}],"stateMutability":"payable"},{"type":"function","name":"unlockCallback","inputs":[{"name":"rawData","type":"bytes","internalType":"bytes"}],"outputs":[{"name":"","type":"bytes","internalType":"bytes"}],"stateMutability":"nonpayable"},{"type":"error","name":"NoSwapOccurred","inputs":[]}],"bytecode":{"object":"0x60a060405234801561000f575f5ffd5b506040516129a33803806129a3833981810160405281019061003191906100dc565b808073ffffffffffffffffffffffffffffffffffffffff1660808173ffffffffffffffffffffffffffffffffffffffff16815250505050610107565b5f5ffd5b5f73ffffffffffffffffffffffffffffffffffffffff82169050919050565b5f61009a82610071565b9050919050565b5f6100ab82610090565b9050919050565b6100bb816100a1565b81146100c5575f5ffd5b50565b5f815190506100d6816100b2565b92915050565b5f602082840312156100f1576100f061006d565b5b5f6100fe848285016100c8565b91505092915050565b60805161284661015d5f395f818160d00152818161021d0152818161024301528181610366015281816107fc0152818161086f015281816108e30152818161094c01528181610af10152610b3e01526128465ff3fe608060405260043610610033575f3560e01c80632229d0b414610037578063481c6a751461006757806391dd734614610091575b5f5ffd5b610051600480360381019061004c9190611697565b6100cd565b60405161005e9190611753565b60405180910390f35b348015610072575f5ffd5b5061007b61021b565b60405161008891906117be565b60405180910390f35b34801561009c575f5ffd5b506100b760048036038101906100b29190611834565b61023f565b6040516100c491906118df565b60405180910390f35b5f7f000000000000000000000000000000000000000000000000000000000000000073ffffffffffffffffffffffffffffffffffffffff166348c894916040518060a001604052803373ffffffffffffffffffffffffffffffffffffffff168152602001868152602001888152602001878152602001858152506040516020016101579190611b2a565b6040516020818303038152906040526040518263ffffffff1660e01b815260040161018291906118df565b5f604051808303815f875af115801561019d573d5f5f3e3d5ffd5b505050506040513d5f823e3d601f19601f820116820180604052508101906101c59190611bb8565b8060200190518101906101d89190611c29565b90505f4790505f8111156102125761021133825f73ffffffffffffffffffffffffffffffffffffffff166109d79092919063ffffffff16565b5b50949350505050565b7f000000000000000000000000000000000000000000000000000000000000000081565b60607f000000000000000000000000000000000000000000000000000000000000000073ffffffffffffffffffffffffffffffffffffffff163373ffffffffffffffffffffffffffffffffffffffff1614610298575f5ffd5b5f83838101906102a89190611d26565b90505f6102c082604001515f0151835f015130610abe565b925050505f6102db836040015160200151845f015130610abe565b925050505f8214610321576040517f08c379a000000000000000000000000000000000000000000000000000000000815260040161031890611dc7565b60405180910390fd5b5f8114610363576040517f08c379a000000000000000000000000000000000000000000000000000000000815260040161035a90611e2f565b60405180910390fd5b5f7f000000000000000000000000000000000000000000000000000000000000000073ffffffffffffffffffffffffffffffffffffffff1663f3cd914c8560400151866060015187608001516040518463ffffffff1660e01b81526004016103cd93929190611ef3565b6020604051808303815f875af11580156103e9573d5f5f3e3d5ffd5b505050506040513d601f19601f8201168201806040525081019061040d9190611c29565b90505f61042585604001515f0151865f015130610abe565b925050505f610440866040015160200151875f015130610abe565b9250505085606001515f015115610622575f8660600151602001511215610541578560600151602001518212156104ac576040517f08c379a00000000000000000000000000000000000000000000000000000000081526004016104a390611fc7565b60405180910390fd5b816104b684610b8d565b600f0b146104f9576040517f08c379a00000000000000000000000000000000000000000000000000000000081526004016104f090612055565b60405180910390fd5b5f81121561053c576040517f08c379a0000000000000000000000000000000000000000000000000000000008152600401610533906120e3565b60405180910390fd5b61061d565b5f821315610584576040517f08c379a000000000000000000000000000000000000000000000000000000000815260040161057b90612171565b60405180910390fd5b8061058e84610b99565b600f0b146105d1576040517f08c379a00000000000000000000000000000000000000000000000000000000081526004016105c8906121ff565b60405180910390fd5b85606001516020015181131561061c576040517f08c379a0000000000000000000000000000000000000000000000000000000008152600401610613906122b3565b60405180910390fd5b5b6107ef565b5f86606001516020015112156107125785606001516020015181121561067d576040517f08c379a000000000000000000000000000000000000000000000000000000000815260040161067490612367565b60405180910390fd5b8061068784610b99565b600f0b146106ca576040517f08c379a00000000000000000000000000000000000000000000000000000000081526004016106c1906121ff565b60405180910390fd5b5f82121561070d576040517f08c379a0000000000000000000000000000000000000000000000000000000008152600401610704906123f5565b60405180910390fd5b6107ee565b5f811315610755576040517f08c379a000000000000000000000000000000000000000000000000000000000815260040161074c90612483565b60405180910390fd5b8161075f84610b8d565b600f0b146107a2576040517f08c379a000000000000000000000000000000000000000000000000000000000815260040161079990612055565b60405180910390fd5b8560600151602001518213156107ed576040517f08c379a00000000000000000000000000000000000000000000000000000000081526004016107e490612537565b60405180910390fd5b5b5b5f821215610862576108617f0000000000000000000000000000000000000000000000000000000000000000875f01518461082990612582565b8960200151602001518a604001515f015173ffffffffffffffffffffffffffffffffffffffff16610ba590949392919063ffffffff16565b5b5f8112156108d6576108d57f0000000000000000000000000000000000000000000000000000000000000000875f01518361089c90612582565b8960200151602001518a604001516020015173ffffffffffffffffffffffffffffffffffffffff16610ba590949392919063ffffffff16565b5b5f82131561093f5761093e7f0000000000000000000000000000000000000000000000000000000000000000875f01518489602001515f01518a604001515f015173ffffffffffffffffffffffffffffffffffffffff16610ee390949392919063ffffffff16565b5b5f8113156109a9576109a87f0000000000000000000000000000000000000000000000000000000000000000875f01518389602001515f01518a604001516020015173ffffffffffffffffffffffffffffffffffffffff16610ee390949392919063ffffffff16565b5b826040516020016109ba9190611753565b604051602081830303815290604052965050505050505092915050565b5f6109f78473ffffffffffffffffffffffffffffffffffffffff16610fe7565b15610a26575f5f5f5f85875af1905080610a2157610a20835f60e01b63f4b3b1bc60e01b61101e565b5b610ab8565b6040517fa9059cbb00000000000000000000000000000000000000000000000000000000815273ffffffffffffffffffffffffffffffffffffffff8416600482015282602482015260205f6044835f895af13d15601f3d1160015f511416171691505f81525f60208201525f60408201525080610ab757610ab68463a9059cbb60e01b63f27f64e460e01b61101e565b5b5b50505050565b5f5f5f610aea858773ffffffffffffffffffffffffffffffffffffffff166110d390919063ffffffff16565b9250610b357f00000000000000000000000000000000000000000000000000000000000000008773ffffffffffffffffffffffffffffffffffffffff166110d390919063ffffffff16565b9150610b8284877f000000000000000000000000000000000000000000000000000000000000000073ffffffffffffffffffffffffffffffffffffffff166111989092919063ffffffff16565b905093509350939050565b5f8160801d9050919050565b5f81600f0b9050919050565b8015610c38578373ffffffffffffffffffffffffffffffffffffffff1663f5298aca84610be78873ffffffffffffffffffffffffffffffffffffffff16611257565b856040518463ffffffff1660e01b8152600401610c06939291906125ef565b5f604051808303815f87803b158015610c1d575f5ffd5b505af1158015610c2f573d5f5f3e3d5ffd5b50505050610edc565b610c578573ffffffffffffffffffffffffffffffffffffffff16610fe7565b15610cd2578373ffffffffffffffffffffffffffffffffffffffff166311da60b4836040518263ffffffff1660e01b815260040160206040518083038185885af1158015610ca7573d5f5f3e3d5ffd5b50505050506040513d601f19601f82011682018060405250810190610ccc919061264e565b50610edb565b8373ffffffffffffffffffffffffffffffffffffffff1663a5841194866040518263ffffffff1660e01b8152600401610d0b9190612688565b5f604051808303815f87803b158015610d22575f5ffd5b505af1158015610d34573d5f5f3e3d5ffd5b505050503073ffffffffffffffffffffffffffffffffffffffff168373ffffffffffffffffffffffffffffffffffffffff1614610dee578473ffffffffffffffffffffffffffffffffffffffff166323b872dd8486856040518463ffffffff1660e01b8152600401610da8939291906126a1565b6020604051808303815f875af1158015610dc4573d5f5f3e3d5ffd5b505050506040513d601f19601f82011682018060405250810190610de891906126ea565b50610e6b565b8473ffffffffffffffffffffffffffffffffffffffff1663a9059cbb85846040518363ffffffff1660e01b8152600401610e29929190612715565b6020604051808303815f875af1158015610e45573d5f5f3e3d5ffd5b505050506040513d601f19601f82011682018060405250810190610e6991906126ea565b505b8373ffffffffffffffffffffffffffffffffffffffff166311da60b46040518163ffffffff1660e01b81526004016020604051808303815f875af1158015610eb5573d5f5f3e3d5ffd5b505050506040513d601f19601f82011682018060405250810190610ed9919061264e565b505b5b5050505050565b80610f57578373ffffffffffffffffffffffffffffffffffffffff16630b0d9c098685856040518463ffffffff1660e01b8152600401610f259392919061273c565b5f604051808303815f87803b158015610f3c575f5ffd5b505af1158015610f4e573d5f5f3e3d5ffd5b50505050610fe0565b8373ffffffffffffffffffffffffffffffffffffffff1663156e29f684610f938873ffffffffffffffffffffffffffffffffffffffff16611257565b856040518463ffffffff1660e01b8152600401610fb2939291906125ef565b5f604051808303815f87803b158015610fc9575f5ffd5b505af1158015610fdb573d5f5f3e3d5ffd5b505050505b5050505050565b5f5f73ffffffffffffffffffffffffffffffffffffffff168273ffffffffffffffffffffffffffffffffffffffff16149050919050565b5f6390bfb86560e01b9050602080601f3d01040260405182815273ffffffffffffffffffffffffffffffffffffffff861660048201527fffffffff0000000000000000000000000000000000000000000000000000000085166024820152608060448201528160a00160648201523d60848201523d5f60a483013e60048260a4018201527fffffffff0000000000000000000000000000000000000000000000000000000084168260c4018201528160e40181fd5b5f6110f38373ffffffffffffffffffffffffffffffffffffffff16610fe7565b15611117578173ffffffffffffffffffffffffffffffffffffffff16319050611192565b8273ffffffffffffffffffffffffffffffffffffffff166370a08231836040518263ffffffff1660e01b81526004016111509190612771565b602060405180830381865afa15801561116b573d5f5f3e3d5ffd5b505050506040513d601f19601f8201168201806040525081019061118f919061264e565b90505b92915050565b5f5f73ffffffffffffffffffffffffffffffffffffffff84165f5273ffffffffffffffffffffffffffffffffffffffff831660205260405f2090508473ffffffffffffffffffffffffffffffffffffffff1663f135baaa826040518263ffffffff1660e01b815260040161120c91906127a2565b602060405180830381865afa158015611227573d5f5f3e3d5ffd5b505050506040513d601f19601f8201168201806040525081019061124b91906127e5565b5f1c9150509392505050565b5f8173ffffffffffffffffffffffffffffffffffffffff169050919050565b5f604051905090565b5f5ffd5b5f5ffd5b5f5ffd5b5f601f19601f8301169050919050565b7f4e487b71000000000000000000000000000000000000000000000000000000005f52604160045260245ffd5b6112d18261128b565b810181811067ffffffffffffffff821117156112f0576112ef61129b565b5b80604052505050565b5f611302611276565b905061130e82826112c8565b919050565b5f5ffd5b5f73ffffffffffffffffffffffffffffffffffffffff82169050919050565b5f61134082611317565b9050919050565b61135081611336565b811461135a575f5ffd5b50565b5f8135905061136b81611347565b92915050565b5f62ffffff82169050919050565b61138881611371565b8114611392575f5ffd5b50565b5f813590506113a38161137f565b92915050565b5f8160020b9050919050565b6113be816113a9565b81146113c8575f5ffd5b50565b5f813590506113d9816113b5565b92915050565b5f6113e982611336565b9050919050565b6113f9816113df565b8114611403575f5ffd5b50565b5f81359050611414816113f0565b92915050565b5f60a0828403121561142f5761142e611287565b5b61143960a06112f9565b90505f6114488482850161135d565b5f83015250602061145b8482850161135d565b602083015250604061146f84828501611395565b6040830152506060611483848285016113cb565b606083015250608061149784828501611406565b60808301525092915050565b5f8115159050919050565b6114b7816114a3565b81146114c1575f5ffd5b50565b5f813590506114d2816114ae565b92915050565b5f819050919050565b6114ea816114d8565b81146114f4575f5ffd5b50565b5f81359050611505816114e1565b92915050565b61151481611317565b811461151e575f5ffd5b50565b5f8135905061152f8161150b565b92915050565b5f6060828403121561154a57611549611287565b5b61155460606112f9565b90505f611563848285016114c4565b5f830152506020611576848285016114f7565b602083015250604061158a84828501611521565b60408301525092915050565b5f604082840312156115ab576115aa611287565b5b6115b560406112f9565b90505f6115c4848285016114c4565b5f8301525060206115d7848285016114c4565b60208301525092915050565b5f5ffd5b5f5ffd5b5f67ffffffffffffffff8211156116055761160461129b565b5b61160e8261128b565b9050602081019050919050565b828183375f83830152505050565b5f61163b611636846115eb565b6112f9565b905082815260208101848484011115611657576116566115e7565b5b61166284828561161b565b509392505050565b5f82601f83011261167e5761167d6115e3565b5b813561168e848260208601611629565b91505092915050565b5f5f5f5f61016085870312156116b0576116af61127f565b5b5f6116bd8782880161141a565b94505060a06116ce87828801611535565b9350506101006116e087828801611596565b92505061014085013567ffffffffffffffff81111561170257611701611283565b5b61170e8782880161166a565b91505092959194509250565b5f819050919050565b5f61173d611738611733846114d8565b61171a565b6114d8565b9050919050565b61174d81611723565b82525050565b5f6020820190506117665f830184611744565b92915050565b5f61178661178161177c84611317565b61171a565b611317565b9050919050565b5f6117978261176c565b9050919050565b5f6117a88261178d565b9050919050565b6117b88161179e565b82525050565b5f6020820190506117d15f8301846117af565b92915050565b5f5ffd5b5f5ffd5b5f5f83601f8401126117f4576117f36115e3565b5b8235905067ffffffffffffffff811115611811576118106117d7565b5b60208301915083600182028301111561182d5761182c6117db565b5b9250929050565b5f5f6020838503121561184a5761184961127f565b5b5f83013567ffffffffffffffff81111561186757611866611283565b5b611873858286016117df565b92509250509250929050565b5f81519050919050565b5f82825260208201905092915050565b8281835e5f83830152505050565b5f6118b18261187f565b6118bb8185611889565b93506118cb818560208601611899565b6118d48161128b565b840191505092915050565b5f6020820190508181035f8301526118f781846118a7565b905092915050565b61190881611336565b82525050565b611917816114a3565b82525050565b604082015f8201516119315f85018261190e565b506020820151611944602085018261190e565b50505050565b5f6119548261178d565b9050919050565b6119648161194a565b82525050565b61197381611371565b82525050565b611982816113a9565b82525050565b5f6119928261178d565b9050919050565b6119a281611988565b82525050565b60a082015f8201516119bc5f85018261195b565b5060208201516119cf602085018261195b565b5060408201516119e2604085018261196a565b5060608201516119f56060850182611979565b506080820151611a086080850182611999565b50505050565b611a17816114d8565b82525050565b611a2681611317565b82525050565b606082015f820151611a405f85018261190e565b506020820151611a536020850182611a0e565b506040820151611a666040850182611a1d565b50505050565b5f82825260208201905092915050565b5f611a868261187f565b611a908185611a6c565b9350611aa0818560208601611899565b611aa98161128b565b840191505092915050565b5f61018083015f830151611aca5f8601826118ff565b506020830151611add602086018261191d565b506040830151611af060608601826119a8565b506060830151611b04610100860182611a2c565b506080830151848203610160860152611b1d8282611a7c565b9150508091505092915050565b5f6020820190508181035f830152611b428184611ab4565b905092915050565b5f611b5c611b57846115eb565b6112f9565b905082815260208101848484011115611b7857611b776115e7565b5b611b83848285611899565b509392505050565b5f82601f830112611b9f57611b9e6115e3565b5b8151611baf848260208601611b4a565b91505092915050565b5f60208284031215611bcd57611bcc61127f565b5b5f82015167ffffffffffffffff811115611bea57611be9611283565b5b611bf684828501611b8b565b91505092915050565b611c08816114d8565b8114611c12575f5ffd5b50565b5f81519050611c2381611bff565b92915050565b5f60208284031215611c3e57611c3d61127f565b5b5f611c4b84828501611c15565b91505092915050565b611c5d81611336565b8114611c67575f5ffd5b50565b5f81359050611c7881611c54565b92915050565b5f6101808284031215611c9457611c93611287565b5b611c9e60a06112f9565b90505f611cad84828501611c6a565b5f830152506020611cc084828501611596565b6020830152506060611cd48482850161141a565b604083015250610100611ce984828501611535565b60608301525061016082013567ffffffffffffffff811115611d0e57611d0d611313565b5b611d1a8482850161166a565b60808301525092915050565b5f60208284031215611d3b57611d3a61127f565b5b5f82013567ffffffffffffffff811115611d5857611d57611283565b5b611d6484828501611c7e565b91505092915050565b5f82825260208201905092915050565b7f64656c74614265666f726530206973206e6f7420657175616c20746f203000005f82015250565b5f611db1601e83611d6d565b9150611dbc82611d7d565b602082019050919050565b5f6020820190508181035f830152611dde81611da5565b9050919050565b7f64656c74614265666f726531206973206e6f7420657175616c20746f203000005f82015250565b5f611e19601e83611d6d565b9150611e2482611de5565b602082019050919050565b5f6020820190508181035f830152611e4681611e0d565b9050919050565b60a082015f820151611e615f85018261195b565b506020820151611e74602085018261195b565b506040820151611e87604085018261196a565b506060820151611e9a6060850182611979565b506080820151611ead6080850182611999565b50505050565b606082015f820151611ec75f85018261190e565b506020820151611eda6020850182611a0e565b506040820151611eed6040850182611a1d565b50505050565b5f61012082019050611f075f830186611e4d565b611f1460a0830185611eb3565b818103610100830152611f2781846118a7565b9050949350505050565b7f64656c7461416674657230206973206e6f742067726561746572207468616e205f8201527f6f7220657175616c20746f20646174612e706172616d732e616d6f756e74537060208201527f6563696669656400000000000000000000000000000000000000000000000000604082015250565b5f611fb1604783611d6d565b9150611fbc82611f31565b606082019050919050565b5f6020820190508181035f830152611fde81611fa5565b9050919050565b7f64656c74612e616d6f756e74302829206973206e6f7420657175616c20746f205f8201527f64656c7461416674657230000000000000000000000000000000000000000000602082015250565b5f61203f602b83611d6d565b915061204a82611fe5565b604082019050919050565b5f6020820190508181035f83015261206c81612033565b9050919050565b7f64656c7461416674657231206973206e6f742067726561746572207468616e205f8201527f6f7220657175616c20746f203000000000000000000000000000000000000000602082015250565b5f6120cd602d83611d6d565b91506120d882612073565b604082019050919050565b5f6020820190508181035f8301526120fa816120c1565b9050919050565b7f64656c7461416674657230206973206e6f74206c657373207468616e206f72205f8201527f657175616c20746f207a65726f00000000000000000000000000000000000000602082015250565b5f61215b602d83611d6d565b915061216682612101565b604082019050919050565b5f6020820190508181035f8301526121888161214f565b9050919050565b7f64656c74612e616d6f756e74312829206973206e6f7420657175616c20746f205f8201527f64656c7461416674657231000000000000000000000000000000000000000000602082015250565b5f6121e9602b83611d6d565b91506121f48261218f565b604082019050919050565b5f6020820190508181035f830152612216816121dd565b9050919050565b7f64656c7461416674657231206973206e6f74206c657373207468616e206f72205f8201527f657175616c20746f20646174612e706172616d732e616d6f756e74537065636960208201527f6669656400000000000000000000000000000000000000000000000000000000604082015250565b5f61229d604483611d6d565b91506122a88261221d565b606082019050919050565b5f6020820190508181035f8301526122ca81612291565b9050919050565b7f64656c7461416674657231206973206e6f742067726561746572207468616e205f8201527f6f7220657175616c20746f20646174612e706172616d732e616d6f756e74537060208201527f6563696669656400000000000000000000000000000000000000000000000000604082015250565b5f612351604783611d6d565b915061235c826122d1565b606082019050919050565b5f6020820190508181035f83015261237e81612345565b9050919050565b7f64656c7461416674657230206973206e6f742067726561746572207468616e205f8201527f6f7220657175616c20746f203000000000000000000000000000000000000000602082015250565b5f6123df602d83611d6d565b91506123ea82612385565b604082019050919050565b5f6020820190508181035f83015261240c816123d3565b9050919050565b7f64656c7461416674657231206973206e6f74206c657373207468616e206f72205f8201527f657175616c20746f203000000000000000000000000000000000000000000000602082015250565b5f61246d602a83611d6d565b915061247882612413565b604082019050919050565b5f6020820190508181035f83015261249a81612461565b9050919050565b7f64656c7461416674657230206973206e6f74206c657373207468616e206f72205f8201527f657175616c20746f20646174612e706172616d732e616d6f756e74537065636960208201527f6669656400000000000000000000000000000000000000000000000000000000604082015250565b5f612521604483611d6d565b915061252c826124a1565b606082019050919050565b5f6020820190508181035f83015261254e81612515565b9050919050565b7f4e487b71000000000000000000000000000000000000000000000000000000005f52601160045260245ffd5b5f61258c826114d8565b91507f800000000000000000000000000000000000000000000000000000000000000082036125be576125bd612555565b5b815f039050919050565b6125d181611336565b82525050565b5f819050919050565b6125e9816125d7565b82525050565b5f6060820190506126025f8301866125c8565b61260f60208301856125e0565b61261c60408301846125e0565b949350505050565b61262d816125d7565b8114612637575f5ffd5b50565b5f8151905061264881612624565b92915050565b5f602082840312156126635761266261127f565b5b5f6126708482850161263a565b91505092915050565b6126828161194a565b82525050565b5f60208201905061269b5f830184612679565b92915050565b5f6060820190506126b45f8301866125c8565b6126c160208301856125c8565b6126ce60408301846125e0565b949350505050565b5f815190506126e4816114ae565b92915050565b5f602082840312156126ff576126fe61127f565b5b5f61270c848285016126d6565b91505092915050565b5f6040820190506127285f8301856125c8565b61273560208301846125e0565b9392505050565b5f60608201905061274f5f830186612679565b61275c60208301856125c8565b61276960408301846125e0565b949350505050565b5f6020820190506127845f8301846125c8565b92915050565b5f819050919050565b61279c8161278a565b82525050565b5f6020820190506127b55f830184612793565b92915050565b6127c48161278a565b81146127ce575f5ffd5b50565b5f815190506127df816127bb565b92915050565b5f602082840312156127fa576127f961127f565b5b5f612807848285016127d1565b9150509291505056fea26469706673582212204076a11600334187d6a37d90cbd958909e33ae34c17afce0436f00726031d7a864736f6c634300081e0033","linkReferences":{}},"methodIdentifiers":{"manager()":"481c6a75","swap((address,address,uint24,int24,address),(bool,int256,uint160),(bool,bool),bytes)":"2229d0b4","unlockCallback(bytes)":"91dd7346"},"id":72}