{"abi":[{"type":"constructor","inputs":[{"name":"_poolManager","type":"address","internalType":"contract IPoolManager"}],"stateMutability":"nonpayable"},{"type":"function","name":"afterAddLiquidity","inputs":[{"name":"sender","type":"address","internalType":"address"},{"name":"key","type":"tuple","internalType":"struct PoolKey","components":[{"name":"currency0","type":"address","internalType":"Currency"},{"name":"currency1","type":"address","internalType":"Currency"},{"name":"fee","type":"uint24","internalType":"uint24"},{"name":"tickSpacing","type":"int24","internalType":"int24"},{"name":"hooks","type":"address","internalType":"contract IHooks"}]},{"name":"params","type":"tuple","internalType":"struct ModifyLiquidityParams","components":[{"name":"tickLower","type":"int24","internalType":"int24"},{"name":"tickUpper","type":"int24","internalType":"int24"},{"name":"liquidityDelta","type":"int256","internalType":"int256"},{"name":"salt","type":"bytes32","internalType":"bytes32"}]},{"name":"delta0","type":"int256","internalType":"BalanceDelta"},{"name":"delta1","type":"int256","internalType":"BalanceDelta"},{"name":"hookData","type":"bytes","internalType":"bytes"}],"outputs":[{"name":"","type":"bytes4","internalType":"bytes4"},{"name":"","type":"int256","internalType":"BalanceDelta"}],"stateMutability":"nonpayable"},{"type":"function","name":"afterDonate","inputs":[{"name":"sender","type":"address","internalType":"address"},{"name":"key","type":"tuple","internalType":"struct PoolKey","components":[{"name":"currency0","type":"address","internalType":"Currency"},{"name":"currency1","type":"address","internalType":"Currency"},{"name":"fee","type":"uint24","internalType":"uint24"},{"name":"tickSpacing","type":"int24","internalType":"int24"},{"name":"hooks","type":"address","internalType":"contract IHooks"}]},{"name":"amount0","type":"uint256","internalType":"uint256"},{"name":"amount1","type":"uint256","internalType":"uint256"},{"name":"hookData","type":"bytes","internalType":"bytes"}],"outputs":[{"name":"","type":"bytes4","internalType":"bytes4"}],"stateMutability":"nonpayable"},{"type":"function","name":"afterInitialize","inputs":[{"name":"sender","type":"address","internalType":"address"},{"name":"key","type":"tuple","internalType":"struct PoolKey","components":[{"name":"currency0","type":"address","internalType":"Currency"},{"name":"currency1","type":"address","internalType":"Currency"},{"name":"fee","type":"uint24","internalType":"uint24"},{"name":"tickSpacing","type":"int24","internalType":"int24"},{"name":"hooks","type":"address","internalType":"contract IHooks"}]},{"name":"sqrtPriceX96","type":"uint160","internalType":"uint160"},{"name":"tick","type":"int24","internalType":"int24"}],"outputs":[{"name":"","type":"bytes4","internalType":"bytes4"}],"stateMutability":"nonpayable"},{"type":"function","name":"afterRemoveLiquidity","inputs":[{"name":"sender","type":"address","internalType":"address"},{"name":"key","type":"tuple","internalType":"struct PoolKey","components":[{"name":"currency0","type":"address","internalType":"Currency"},{"name":"currency1","type":"address","internalType":"Currency"},{"name":"fee","type":"uint24","internalType":"uint24"},{"name":"tickSpacing","type":"int24","internalType":"int24"},{"name":"hooks","type":"address","internalType":"contract IHooks"}]},{"name":"params","type":"tuple","internalType":"struct ModifyLiquidityParams","components":[{"name":"tickLower","type":"int24","internalType":"int24"},{"name":"tickUpper","type":"int24","internalType":"int24"},{"name":"liquidityDelta","type":"int256","internalType":"int256"},{"name":"salt","type":"bytes32","internalType":"bytes32"}]},{"name":"delta0","type":"int256","internalType":"BalanceDelta"},{"name":"delta1","type":"int256","internalType":"BalanceDelta"},{"name":"hookData","type":"bytes","internalType":"bytes"}],"outputs":[{"name":"","type":"bytes4","internalType":"bytes4"},{"name":"","type":"int256","internalType":"BalanceDelta"}],"stateMutability":"nonpayable"},{"type":"function","name":"afterSwap","inputs":[{"name":"sender","type":"address","internalType":"address"},{"name":"key","type":"tuple","internalType":"struct PoolKey","components":[{"name":"currency0","type":"address","internalType":"Currency"},{"name":"currency1","type":"address","internalType":"Currency"},{"name":"fee","type":"uint24","internalType":"uint24"},{"name":"tickSpacing","type":"int24","internalType":"int24"},{"name":"hooks","type":"address","internalType":"contract IHooks"}]},{"name":"params","type":"tuple","internalType":"struct SwapParams","components":[{"name":"zeroForOne","type":"bool","internalType":"bool"},{"name":"amountSpecified","type":"int256","internalType":"int256"},{"name":"sqrtPriceLimitX96","type":"uint160","internalType":"uint160"}]},{"name":"delta","type":"int256","internalType":"BalanceDelta"},{"name":"hookData","type":"bytes","internalType":"bytes"}],"outputs":[{"name":"","type":"bytes4","internalType":"bytes4"},{"name":"","type":"int128","internalType":"int128"}],"stateMutability":"nonpayable"},{"type":"function","name":"beforeAddLiquidity","inputs":[{"name":"sender","type":"address","internalType":"address"},{"name":"key","type":"tuple","internalType":"struct PoolKey","components":[{"name":"currency0","type":"address","internalType":"Currency"},{"name":"currency1","type":"address","internalType":"Currency"},{"name":"fee","type":"uint24","internalType":"uint24"},{"name":"tickSpacing","type":"int24","internalType":"int24"},{"name":"hooks","type":"address","internalType":"contract IHooks"}]},{"name":"params","type":"tuple","internalType":"struct ModifyLiquidityParams","components":[{"name":"tickLower","type":"int24","internalType":"int24"},{"name":"tickUpper","type":"int24","internalType":"int24"},{"name":"liquidityDelta","type":"int256","internalType":"int256"},{"name":"salt","type":"bytes32","internalType":"bytes32"}]},{"name":"hookData","type":"bytes","internalType":"bytes"}],"outputs":[{"name":"","type":"bytes4","internalType":"bytes4"}],"stateMutability":"nonpayable"},{"type":"function","name":"beforeDonate","inputs":[{"name":"sender","type":"address","internalType":"address"},{"name":"key","type":"tuple","internalType":"struct PoolKey","components":[{"name":"currency0","type":"address","internalType":"Currency"},{"name":"currency1","type":"address","internalType":"Currency"},{"name":"fee","type":"uint24","internalType":"uint24"},{"name":"tickSpacing","type":"int24","internalType":"int24"},{"name":"hooks","type":"address","internalType":"contract IHooks"}]},{"name":"amount0","type":"uint256","internalType":"uint256"},{"name":"amount1","type":"uint256","internalType":"uint256"},{"name":"hookData","type":"bytes","internalType":"bytes"}],"outputs":[{"name":"","type":"bytes4","internalType":"bytes4"}],"stateMutability":"nonpayable"},{"type":"function","name":"beforeInitialize","inputs":[{"name":"sender","type":"address","internalType":"address"},{"name":"key","type":"tuple","internalType":"struct PoolKey","components":[{"name":"currency0","type":"address","internalType":"Currency"},{"name":"currency1","type":"address","internalType":"Currency"},{"name":"fee","type":"uint24","internalType":"uint24"},{"name":"tickSpacing","type":"int24","internalType":"int24"},{"name":"hooks","type":"address","internalType":"contract IHooks"}]},{"name":"sqrtPriceX96","type":"uint160","internalType":"uint160"}],"outputs":[{"name":"","type":"bytes4","internalType":"bytes4"}],"stateMutability":"nonpayable"},{"type":"function","name":"beforeRemoveLiquidity","inputs":[{"name":"sender","type":"address","internalType":"address"},{"name":"key","type":"tuple","internalType":"struct PoolKey","components":[{"name":"currency0","type":"address","internalType":"Currency"},{"name":"currency1","type":"address","internalType":"Currency"},{"name":"fee","type":"uint24","internalType":"uint24"},{"name":"tickSpacing","type":"int24","internalType":"int24"},{"name":"hooks","type":"address","internalType":"contract IHooks"}]},{"name":"params","type":"tuple","internalType":"struct ModifyLiquidityParams","components":[{"name":"tickLower","type":"int24","internalType":"int24"},{"name":"tickUpper","type":"int24","internalType":"int24"},{"name":"liquidityDelta","type":"int256","internalType":"int256"},{"name":"salt","type":"bytes32","internalType":"bytes32"}]},{"name":"hookData","type":"bytes","internalType":"bytes"}],"outputs":[{"name":"","type":"bytes4","internalType":"bytes4"}],"stateMutability":"nonpayable"},{"type":"function","name":"beforeSwap","inputs":[{"name":"sender","type":"address","internalType":"address"},{"name":"key","type":"tuple","internalType":"struct PoolKey","components":[{"name":"currency0","type":"address","internalType":"Currency"},{"name":"currency1","type":"address","internalType":"Currency"},{"name":"fee","type":"uint24","internalType":"uint24"},{"name":"tickSpacing","type":"int24","internalType":"int24"},{"name":"hooks","type":"address","internalType":"contract IHooks"}]},{"name":"params","type":"tuple","internalType":"struct SwapParams","components":[{"name":"zeroForOne","type":"bool","internalType":"bool"},{"name":"amountSpecified","type":"int256","internalType":"int256"},{"name":"sqrtPriceLimitX96","type":"uint160","internalType":"uint160"}]},{"name":"hookData","type":"bytes","internalType":"bytes"}],"outputs":[{"name":"","type":"bytes4","internalType":"bytes4"},{"name":"","type":"int256","internalType":"BeforeSwapDelta"},{"name":"","type":"uint24","internalType":"uint24"}],"stateMutability":"nonpayable"},{"type":"function","name":"createIntentSwap","inputs":[{"name":"key","type":"tuple","internalType":"struct PoolKey","components":[{"name":"currency0","type":"address","internalType":"Currency"},{"name":"currency1","type":"address","internalType":"Currency"},{"name":"fee","type":"uint24","internalType":"uint24"},{"name":"tickSpacing","type":"int24","internalType":"int24"},{"name":"hooks","type":"address","internalType":"contract IHooks"}]},{"name":"intentSwapHash","type":"bytes32","internalType":"bytes32"},{"name":"intentSwap","type":"tuple","internalType":"struct IntentSwap","components":[{"name":"salt","type":"bytes32","internalType":"bytes32"},{"name":"poolId","type":"bytes32","internalType":"PoolId"},{"name":"swapDeadline","type":"uint256","internalType":"uint256"},{"name":"solveDeadline","type":"uint256","internalType":"uint256"},{"name":"swapper","type":"address","internalType":"address"},{"name":"swapParams","type":"tuple","internalType":"struct SwapParams","components":[{"name":"zeroForOne","type":"bool","internalType":"bool"},{"name":"amountSpecified","type":"int256","internalType":"int256"},{"name":"sqrtPriceLimitX96","type":"uint160","internalType":"uint160"}]}]}],"outputs":[{"name":"specifiedAmount","type":"uint256","internalType":"uint256"}],"stateMutability":"nonpayable"},{"type":"function","name":"decodeIntentSwap","inputs":[{"name":"hookData","type":"bytes","internalType":"bytes"}],"outputs":[{"name":"intentSwap","type":"tuple","internalType":"struct IntentSwap","components":[{"name":"salt","type":"bytes32","internalType":"bytes32"},{"name":"poolId","type":"bytes32","internalType":"PoolId"},{"name":"swapDeadline","type":"uint256","internalType":"uint256"},{"name":"solveDeadline","type":"uint256","internalType":"uint256"},{"name":"swapper","type":"address","internalType":"address"},{"name":"swapParams","type":"tuple","internalType":"struct SwapParams","components":[{"name":"zeroForOne","type":"bool","internalType":"bool"},{"name":"amountSpecified","type":"int256","internalType":"int256"},{"name":"sqrtPriceLimitX96","type":"uint160","internalType":"uint160"}]}]}],"stateMutability":"view"},{"type":"function","name":"getHookPermissions","inputs":[],"outputs":[{"name":"","type":"tuple","internalType":"struct Hooks.Permissions","components":[{"name":"beforeInitialize","type":"bool","internalType":"bool"},{"name":"afterInitialize","type":"bool","internalType":"bool"},{"name":"beforeAddLiquidity","type":"bool","internalType":"bool"},{"name":"afterAddLiquidity","type":"bool","internalType":"bool"},{"name":"beforeRemoveLiquidity","type":"bool","internalType":"bool"},{"name":"afterRemoveLiquidity","type":"bool","internalType":"bool"},{"name":"beforeSwap","type":"bool","internalType":"bool"},{"name":"afterSwap","type":"bool","internalType":"bool"},{"name":"beforeDonate","type":"bool","internalType":"bool"},{"name":"afterDonate","type":"bool","internalType":"bool"},{"name":"beforeSwapReturnDelta","type":"bool","internalType":"bool"},{"name":"afterSwapReturnDelta","type":"bool","internalType":"bool"},{"name":"afterAddLiquidityReturnDelta","type":"bool","internalType":"bool"},{"name":"afterRemoveLiquidityReturnDelta","type":"bool","internalType":"bool"}]}],"stateMutability":"pure"},{"type":"function","name":"getIntentSwap","inputs":[{"name":"poolId","type":"bytes32","internalType":"PoolId"},{"name":"intentSwapHash","type":"bytes32","internalType":"bytes32"}],"outputs":[{"name":"intentSwap","type":"tuple","internalType":"struct IntentSwap","components":[{"name":"salt","type":"bytes32","internalType":"bytes32"},{"name":"poolId","type":"bytes32","internalType":"PoolId"},{"name":"swapDeadline","type":"uint256","internalType":"uint256"},{"name":"solveDeadline","type":"uint256","internalType":"uint256"},{"name":"swapper","type":"address","internalType":"address"},{"name":"swapParams","type":"tuple","internalType":"struct SwapParams","components":[{"name":"zeroForOne","type":"bool","internalType":"bool"},{"name":"amountSpecified","type":"int256","internalType":"int256"},{"name":"sqrtPriceLimitX96","type":"uint160","internalType":"uint160"}]}]}],"stateMutability":"view"},{"type":"function","name":"getIntentSwapHash","inputs":[{"name":"intentSwap","type":"tuple","internalType":"struct IntentSwap","components":[{"name":"salt","type":"bytes32","internalType":"bytes32"},{"name":"poolId","type":"bytes32","internalType":"PoolId"},{"name":"swapDeadline","type":"uint256","internalType":"uint256"},{"name":"solveDeadline","type":"uint256","internalType":"uint256"},{"name":"swapper","type":"address","internalType":"address"},{"name":"swapParams","type":"tuple","internalType":"struct SwapParams","components":[{"name":"zeroForOne","type":"bool","internalType":"bool"},{"name":"amountSpecified","type":"int256","internalType":"int256"},{"name":"sqrtPriceLimitX96","type":"uint160","internalType":"uint160"}]}]}],"outputs":[{"name":"intentSwapHash","type":"bytes32","internalType":"bytes32"}],"stateMutability":"pure"},{"type":"function","name":"getSalt","inputs":[],"outputs":[{"name":"salt","type":"bytes32","internalType":"bytes32"}],"stateMutability":"view"},{"type":"function","name":"intentSwapsForPool","inputs":[{"name":"","type":"bytes32","internalType":"PoolId"},{"name":"","type":"bytes32","internalType":"bytes32"}],"outputs":[{"name":"salt","type":"bytes32","internalType":"bytes32"},{"name":"poolId","type":"bytes32","internalType":"PoolId"},{"name":"swapDeadline","type":"uint256","internalType":"uint256"},{"name":"solveDeadline","type":"uint256","internalType":"uint256"},{"name":"swapper","type":"address","internalType":"address"},{"name":"swapParams","type":"tuple","internalType":"struct SwapParams","components":[{"name":"zeroForOne","type":"bool","internalType":"bool"},{"name":"amountSpecified","type":"int256","internalType":"int256"},{"name":"sqrtPriceLimitX96","type":"uint160","internalType":"uint160"}]}],"stateMutability":"view"},{"type":"function","name":"poolManager","inputs":[],"outputs":[{"name":"","type":"address","internalType":"contract IPoolManager"}],"stateMutability":"view"},{"type":"event","name":"HookBonus","inputs":[{"name":"poolId","type":"bytes32","indexed":true,"internalType":"bytes32"},{"name":"amount0","type":"uint128","indexed":false,"internalType":"uint128"},{"name":"amount1","type":"uint128","indexed":false,"internalType":"uint128"}],"anonymous":false},{"type":"event","name":"HookFee","inputs":[{"name":"poolId","type":"bytes32","indexed":true,"internalType":"bytes32"},{"name":"sender","type":"address","indexed":true,"internalType":"address"},{"name":"feeAmount0","type":"uint128","indexed":false,"internalType":"uint128"},{"name":"feeAmount1","type":"uint128","indexed":false,"internalType":"uint128"}],"anonymous":false},{"type":"event","name":"HookModifyLiquidity","inputs":[{"name":"poolId","type":"bytes32","indexed":true,"internalType":"bytes32"},{"name":"sender","type":"address","indexed":true,"internalType":"address"},{"name":"amount0","type":"int128","indexed":false,"internalType":"int128"},{"name":"amount1","type":"int128","indexed":false,"internalType":"int128"}],"anonymous":false},{"type":"event","name":"HookSwap","inputs":[{"name":"poolId","type":"bytes32","indexed":true,"internalType":"bytes32"},{"name":"sender","type":"address","indexed":true,"internalType":"address"},{"name":"amount0","type":"int128","indexed":false,"internalType":"int128"},{"name":"amount1","type":"int128","indexed":false,"internalType":"int128"},{"name":"hookLPfeeAmount0","type":"uint128","indexed":false,"internalType":"uint128"},{"name":"hookLPfeeAmount1","type":"uint128","indexed":false,"internalType":"uint128"}],"anonymous":false},{"type":"event","name":"IntentSwapCreated","inputs":[{"name":"intentSwapHash","type":"bytes32","indexed":true,"internalType":"bytes32"},{"name":"intentSwap","type":"tuple","indexed":true,"internalType":"struct IntentSwap","components":[{"name":"salt","type":"bytes32","internalType":"bytes32"},{"name":"poolId","type":"bytes32","internalType":"PoolId"},{"name":"swapDeadline","type":"uint256","internalType":"uint256"},{"name":"solveDeadline","type":"uint256","internalType":"uint256"},{"name":"swapper","type":"address","internalType":"address"},{"name":"swapParams","type":"tuple","internalType":"struct SwapParams","components":[{"name":"zeroForOne","type":"bool","internalType":"bool"},{"name":"amountSpecified","type":"int256","internalType":"int256"},{"name":"sqrtPriceLimitX96","type":"uint160","internalType":"uint160"}]}]}],"anonymous":false},{"type":"event","name":"IntentSwapExpired","inputs":[{"name":"intentSwapHash","type":"bytes32","indexed":true,"internalType":"bytes32"}],"anonymous":false},{"type":"event","name":"IntentSwapSolved","inputs":[{"name":"intentSwapHash","type":"bytes32","indexed":true,"internalType":"bytes32"}],"anonymous":false},{"type":"error","name":"HookNotImplemented","inputs":[]},{"type":"error","name":"IncorrectPoolId","inputs":[{"name":"poolId","type":"bytes32","internalType":"PoolId"},{"name":"key","type":"tuple","internalType":"struct PoolKey","components":[{"name":"currency0","type":"address","internalType":"Currency"},{"name":"currency1","type":"address","internalType":"Currency"},{"name":"fee","type":"uint24","internalType":"uint24"},{"name":"tickSpacing","type":"int24","internalType":"int24"},{"name":"hooks","type":"address","internalType":"contract IHooks"}]}]},{"type":"error","name":"IntentAlreadyExists","inputs":[{"name":"intentSwapHash","type":"bytes32","internalType":"bytes32"}]},{"type":"error","name":"IntentSolvDeadlineGreaterThanSwapDeadline","inputs":[{"name":"solveDeadline","type":"uint256","internalType":"uint256"},{"name":"swapDeadline","type":"uint256","internalType":"uint256"}]},{"type":"error","name":"IntentSwapDeadlineExpired","inputs":[{"name":"solveDeadline","type":"uint256","internalType":"uint256"}]},{"type":"error","name":"IntentSwapSolverDeadlineExpired","inputs":[{"name":"swapDeadline","type":"uint256","internalType":"uint256"}]},{"type":"error","name":"InvalidIntentSwap","inputs":[]},{"type":"error","name":"InvalidIntentSwapAction","inputs":[{"name":"intentSwapAction","type":"uint8","internalType":"enum IntentSwapAction"}]},{"type":"error","name":"InvalidPool","inputs":[]},{"type":"error","name":"NotPoolManager","inputs":[]},{"type":"error","name":"NotSelf","inputs":[]},{"type":"error","name":"UnableToDecodeIntentSwap","inputs":[]}],"bytecode":{"object":"0x60a060405234801561000f575f5ffd5b50604051613c83380380613c83833981810160405281019061003191906105e7565b808073ffffffffffffffffffffffffffffffffffffffff1660808173ffffffffffffffffffffffffffffffffffffffff16815250506100753061007c60201b60201c565b5050610612565b6100998161008e61009c60201b60201c565b61012560201b60201c565b50565b6100a46104fb565b604051806101c001604052805f151581526020015f151581526020015f151581526020015f151581526020015f151581526020015f151581526020016001151581526020015f151581526020015f151581526020015f151581526020016001151581526020015f151581526020015f151581526020015f1515815250905090565b6101506120008373ffffffffffffffffffffffffffffffffffffffff166104b460201b90919060201c565b1515815f01511515141580610197575061018b6110008373ffffffffffffffffffffffffffffffffffffffff166104b460201b90919060201c565b15158160200151151514155b806101d457506101c86108008373ffffffffffffffffffffffffffffffffffffffff166104b460201b90919060201c565b15158160400151151514155b8061021157506102056104008373ffffffffffffffffffffffffffffffffffffffff166104b460201b90919060201c565b15158160600151151514155b8061024e57506102426102008373ffffffffffffffffffffffffffffffffffffffff166104b460201b90919060201c565b15158160800151151514155b8061028b575061027f6101008373ffffffffffffffffffffffffffffffffffffffff166104b460201b90919060201c565b15158160a00151151514155b806102c757506102bb60808373ffffffffffffffffffffffffffffffffffffffff166104b460201b90919060201c565b15158160c00151151514155b8061030357506102f760408373ffffffffffffffffffffffffffffffffffffffff166104b460201b90919060201c565b15158160e00151151514155b80610340575061033360208373ffffffffffffffffffffffffffffffffffffffff166104b460201b90919060201c565b1515816101000151151514155b8061037d575061037060108373ffffffffffffffffffffffffffffffffffffffff166104b460201b90919060201c565b1515816101200151151514155b806103ba57506103ad60088373ffffffffffffffffffffffffffffffffffffffff166104b460201b90919060201c565b1515816101400151151514155b806103f757506103ea60048373ffffffffffffffffffffffffffffffffffffffff166104b460201b90919060201c565b1515816101600151151514155b80610434575061042760028373ffffffffffffffffffffffffffffffffffffffff166104b460201b90919060201c565b1515816101800151151514155b80610471575061046460018373ffffffffffffffffffffffffffffffffffffffff166104b460201b90919060201c565b1515816101a00151151514155b156104b0576104af8263e65af6a060e01b7bffffffffffffffffffffffffffffffffffffffffffffffffffffffff19166104d960201b90919060201c565b5b5050565b5f5f82841673ffffffffffffffffffffffffffffffffffffffff161415905092915050565b815f5273ffffffffffffffffffffffffffffffffffffffff811660045260245ffd5b604051806101c001604052805f151581526020015f151581526020015f151581526020015f151581526020015f151581526020015f151581526020015f151581526020015f151581526020015f151581526020015f151581526020015f151581526020015f151581526020015f151581526020015f151581525090565b5f5ffd5b5f73ffffffffffffffffffffffffffffffffffffffff82169050919050565b5f6105a58261057c565b9050919050565b5f6105b68261059b565b9050919050565b6105c6816105ac565b81146105d0575f5ffd5b50565b5f815190506105e1816105bd565b92915050565b5f602082840312156105fc576105fb610578565b5b5f610609848285016105d3565b91505092915050565b60805161360c6106775f395f81816104af0152818161054d0152818161060c015281816108d60152818161097b01528181610a1801528181610abe01528181610b6101528181610c8901528181610cae0152818161111301526112a4015261360c5ff3fe608060405234801561000f575f5ffd5b5060043610610114575f3560e01c80636fe7e6eb116100a0578063c4e833ce1161006f578063c4e833ce14610380578063dc4c90d31461039e578063dc98354e146103bc578063ddce3d29146103ec578063e1b4af691461041c57610114565b80636fe7e6eb146102be5780639f063efc146102ee578063b47b2fb11461031f578063b6a8b0fa1461035057610114565b80632ebe025d116100e75780632ebe025d146101c6578063575e24b4146101f6578063680997c5146102285780636b77c4031461025d5780636c2bbe7e1461028d57610114565b806313a9589c14610118578063205b10581461013657806321d0ee7014610166578063259982e514610196575b5f5ffd5b61012061044c565b60405161012d9190611dcf565b60405180910390f35b610150600480360381019061014b91906120f7565b61047d565b60405161015d9190611dcf565b60405180910390f35b610180600480360381019061017b91906121c4565b6104ac565b60405161018d9190612284565b60405180910390f35b6101b060048036038101906101ab91906121c4565b61054a565b6040516101bd9190612284565b60405180910390f35b6101e060048036038101906101db919061229d565b6105e8565b6040516101ed919061241c565b60405180910390f35b610210600480360381019061020b9190612454565b610607565b60405161021f93929190612530565b60405180910390f35b610242600480360381019061023d9190612565565b6106ad565b60405161025496959493929190612610565b60405180910390f35b61027760048036038101906102729190612565565b610790565b604051610284919061241c565b60405180910390f35b6102a760048036038101906102a2919061269a565b6108d2565b6040516102b5929190612757565b60405180910390f35b6102d860048036038101906102d391906127b4565b610978565b6040516102e59190612284565b60405180910390f35b6103086004803603810190610303919061269a565b610a14565b604051610316929190612757565b60405180910390f35b61033960048036038101906103349190612819565b610aba565b6040516103479291906128cd565b60405180910390f35b61036a600480360381019061036591906128f4565b610b5e565b6040516103779190612284565b60405180910390f35b610388610bfe565b6040516103959190612aaa565b60405180910390f35b6103a6610c87565b6040516103b39190612b16565b60405180910390f35b6103d660048036038101906103d19190612b2f565b610cab565b6040516103e39190612284565b60405180910390f35b61040660048036038101906104019190612b7f565b610d45565b6040516104139190612bd0565b60405180910390f35b610436600480360381019061043191906128f4565b6112a1565b6040516104439190612284565b60405180910390f35b5f33444260405160200161046293929190612c4e565b60405160208183030381529060405280519060200120905090565b5f8160405160200161048f919061241c565b604051602081830303815290604052805190602001209050919050565b5f7f000000000000000000000000000000000000000000000000000000000000000073ffffffffffffffffffffffffffffffffffffffff163373ffffffffffffffffffffffffffffffffffffffff1614610532576040517fae18210a00000000000000000000000000000000000000000000000000000000815260040160405180910390fd5b61053f8686868686611341565b905095945050505050565b5f7f000000000000000000000000000000000000000000000000000000000000000073ffffffffffffffffffffffffffffffffffffffff163373ffffffffffffffffffffffffffffffffffffffff16146105d0576040517fae18210a00000000000000000000000000000000000000000000000000000000815260040160405180910390fd5b6105dd8686868686611374565b905095945050505050565b6105f0611cad565b82828101906105ff91906120f7565b905092915050565b5f5f5f7f000000000000000000000000000000000000000000000000000000000000000073ffffffffffffffffffffffffffffffffffffffff163373ffffffffffffffffffffffffffffffffffffffff161461068f576040517fae18210a00000000000000000000000000000000000000000000000000000000815260040160405180910390fd5b61069c88888888886113a7565b925092509250955095509592505050565b5f602052815f5260405f20602052805f5260405f205f9150915050805f015490806001015490806002015490806003015490806004015f9054906101000a900473ffffffffffffffffffffffffffffffffffffffff1690806005016040518060600160405290815f82015f9054906101000a900460ff1615151515815260200160018201548152602001600282015f9054906101000a900473ffffffffffffffffffffffffffffffffffffffff1673ffffffffffffffffffffffffffffffffffffffff1673ffffffffffffffffffffffffffffffffffffffff1681525050905086565b610798611cad565b5f5f8481526020019081526020015f205f8381526020019081526020015f206040518060c00160405290815f8201548152602001600182015481526020016002820154815260200160038201548152602001600482015f9054906101000a900473ffffffffffffffffffffffffffffffffffffffff1673ffffffffffffffffffffffffffffffffffffffff1673ffffffffffffffffffffffffffffffffffffffff168152602001600582016040518060600160405290815f82015f9054906101000a900460ff1615151515815260200160018201548152602001600282015f9054906101000a900473ffffffffffffffffffffffffffffffffffffffff1673ffffffffffffffffffffffffffffffffffffffff1673ffffffffffffffffffffffffffffffffffffffff168152505081525050905092915050565b5f5f7f000000000000000000000000000000000000000000000000000000000000000073ffffffffffffffffffffffffffffffffffffffff163373ffffffffffffffffffffffffffffffffffffffff1614610959576040517fae18210a00000000000000000000000000000000000000000000000000000000815260040160405180910390fd5b610968898989898989896115c6565b9150915097509795505050505050565b5f7f000000000000000000000000000000000000000000000000000000000000000073ffffffffffffffffffffffffffffffffffffffff163373ffffffffffffffffffffffffffffffffffffffff16146109fe576040517fae18210a00000000000000000000000000000000000000000000000000000000815260040160405180910390fd5b610a0a858585856115fa565b9050949350505050565b5f5f7f000000000000000000000000000000000000000000000000000000000000000073ffffffffffffffffffffffffffffffffffffffff163373ffffffffffffffffffffffffffffffffffffffff1614610a9b576040517fae18210a00000000000000000000000000000000000000000000000000000000815260040160405180910390fd5b610aaa8989898989898961162d565b9150915097509795505050505050565b5f5f7f000000000000000000000000000000000000000000000000000000000000000073ffffffffffffffffffffffffffffffffffffffff163373ffffffffffffffffffffffffffffffffffffffff1614610b41576040517fae18210a00000000000000000000000000000000000000000000000000000000815260040160405180910390fd5b610b4f888888888888611661565b91509150965096945050505050565b5f7f000000000000000000000000000000000000000000000000000000000000000073ffffffffffffffffffffffffffffffffffffffff163373ffffffffffffffffffffffffffffffffffffffff1614610be4576040517fae18210a00000000000000000000000000000000000000000000000000000000815260040160405180910390fd5b610bf2878787878787611695565b90509695505050505050565b610c06611cfa565b604051806101c001604052805f151581526020015f151581526020015f151581526020015f151581526020015f151581526020015f151581526020016001151581526020015f151581526020015f151581526020015f151581526020016001151581526020015f151581526020015f151581526020015f1515815250905090565b7f000000000000000000000000000000000000000000000000000000000000000081565b5f7f000000000000000000000000000000000000000000000000000000000000000073ffffffffffffffffffffffffffffffffffffffff163373ffffffffffffffffffffffffffffffffffffffff1614610d31576040517fae18210a00000000000000000000000000000000000000000000000000000000815260040160405180910390fd5b610d3c8484846116c8565b90509392505050565b5f816060015142811015610d9057806040517f49958e3c000000000000000000000000000000000000000000000000000000008152600401610d879190612bd0565b60405180910390fd5b826040015142811015610dda57806040517f9bad91a7000000000000000000000000000000000000000000000000000000008152600401610dd19190612bd0565b60405180910390fd5b8360600151846040015180821115610e2b5781816040517f77004304000000000000000000000000000000000000000000000000000000008152600401610e22929190612c8a565b60405180910390fd5b610e696040518060400160405280601381526020017f496e20637265617465496e74656e7453776170000000000000000000000000008152506116fb565b5f610e78876020015189610790565b9050865f0151815f015103610ec457876040517f5eaf4c69000000000000000000000000000000000000000000000000000000008152600401610ebb9190611dcf565b60405180910390fd5b610edd89803603810190610ed89190612dc9565b611794565b876020015114610f2a578660200151896040517f37d56fa7000000000000000000000000000000000000000000000000000000008152600401610f21929190612f38565b60405180910390fd5b865f5f896020015181526020019081526020015f205f8a81526020019081526020015f205f820151815f01556020820151816001015560408201518160020155606082015181600301556080820151816004015f6101000a81548173ffffffffffffffffffffffffffffffffffffffff021916908373ffffffffffffffffffffffffffffffffffffffff16021790555060a0820151816005015f820151815f015f6101000a81548160ff021916908315150217905550602082015181600101556040820151816002015f6101000a81548173ffffffffffffffffffffffffffffffffffffffff021916908373ffffffffffffffffffffffffffffffffffffffff1602179055505050905050866040516110439190613130565b6040518091039020887f268eafb3e7541927b2550bde7e028c1b322b9181b212c579d4881bd5fbb6d4eb60405160405180910390a35f8760a001515f015161109d57896020016020810190611098919061314b565b6110b0565b895f0160208101906110af919061314b565b5b90508760a00151602001516110c4906131a3565b96506110cf306117a0565b61110e6040518060400160405280600f81526020017f737065636966696564416d6f756e74000000000000000000000000000000000081525088611839565b61115e7f0000000000000000000000000000000000000000000000000000000000000000308960018573ffffffffffffffffffffffffffffffffffffffff166118d590949392919063ffffffff16565b5f6111698b896119e2565b9050611186828c5f016020810190611181919061314b565b6119ec565b1561121157886080015173ffffffffffffffffffffffffffffffffffffffff166111bf8c8036038101906111ba9190612dc9565b611794565b7f365f10e9e7ce45d7acfd986c42e0b666f8af282e440e6dafc78c1f2b2f7867606111e98b611a24565b5f6111f386611a74565b5f604051611204949392919061327c565b60405180910390a3611293565b886080015173ffffffffffffffffffffffffffffffffffffffff166112458c8036038101906112409190612dc9565b611794565b7f365f10e9e7ce45d7acfd986c42e0b666f8af282e440e6dafc78c1f2b2f7867605f6112708c611a24565b5f61127a87611a74565b60405161128a94939291906132bf565b60405180910390a35b505050505050509392505050565b5f7f000000000000000000000000000000000000000000000000000000000000000073ffffffffffffffffffffffffffffffffffffffff163373ffffffffffffffffffffffffffffffffffffffff1614611327576040517fae18210a00000000000000000000000000000000000000000000000000000000815260040160405180910390fd5b611335878787878787611ac6565b90509695505050505050565b5f6040517f0a85dc2900000000000000000000000000000000000000000000000000000000815260040160405180910390fd5b5f6040517f0a85dc2900000000000000000000000000000000000000000000000000000000815260040160405180910390fd5b5f5f5f6113e86040518060400160405280600d81526020017f496e206265666f726553776170000000000000000000000000000000000000008152506116fb565b6114266040518060400160405280601681526020017f706172616d732e616d6f756e74537065636966696564000000000000000000008152506116fb565b6114338660200135611af9565b5f85859050148061144757505f8660200135135b156114615763575e24b460e01b5f5f9250925092506115bb565b5f5f86868101906114729190613325565b91509150878036038101906114879190613364565b8160a0018190525061149c8860200135611af9565b6114ad8160a0015160200151611af9565b89816080019073ffffffffffffffffffffffffffffffffffffffff16908173ffffffffffffffffffffffffffffffffffffffff16815250505f6114ef8261047d565b90505f60038111156115045761150361338f565b5b8360038111156115175761151661338f565b5b0361157e575f6115288b8385610d45565b905061154b6040518060600160405280602681526020016135b1602691396116fb565b61155481611b92565b63575e24b460e01b61156e61156883611a24565b5f611c2b565b5f965096509650505050506115bb565b826040517f6145d3600000000000000000000000000000000000000000000000000000000081526004016115b29190613402565b60405180910390fd5b955095509592505050565b5f5f6040517f0a85dc2900000000000000000000000000000000000000000000000000000000815260040160405180910390fd5b5f6040517f0a85dc2900000000000000000000000000000000000000000000000000000000815260040160405180910390fd5b5f5f6040517f0a85dc2900000000000000000000000000000000000000000000000000000000815260040160405180910390fd5b5f5f6040517f0a85dc2900000000000000000000000000000000000000000000000000000000815260040160405180910390fd5b5f6040517f0a85dc2900000000000000000000000000000000000000000000000000000000815260040160405180910390fd5b5f6040517f0a85dc2900000000000000000000000000000000000000000000000000000000815260040160405180910390fd5b6117918160405160240161170f919061347b565b6040516020818303038152906040527f41304fac000000000000000000000000000000000000000000000000000000007bffffffffffffffffffffffffffffffffffffffffffffffffffffffff19166020820180517bffffffffffffffffffffffffffffffffffffffffffffffffffffffff8381831617835250505050611c42565b50565b5f60a082209050919050565b611836816040516024016117b4919061349b565b6040516020818303038152906040527f2c2ecbc2000000000000000000000000000000000000000000000000000000007bffffffffffffffffffffffffffffffffffffffffffffffffffffffff19166020820180517bffffffffffffffffffffffffffffffffffffffffffffffffffffffff8381831617835250505050611c42565b50565b6118d1828260405160240161184f9291906134b4565b6040516020818303038152906040527fb60e72cc000000000000000000000000000000000000000000000000000000007bffffffffffffffffffffffffffffffffffffffffffffffffffffffff19166020820180517bffffffffffffffffffffffffffffffffffffffffffffffffffffffff8381831617835250505050611c42565b5050565b5f8203156119db5780611951578373ffffffffffffffffffffffffffffffffffffffff16630b0d9c098685856040518463ffffffff1660e01b815260040161191f939291906134f1565b5f604051808303815f87803b158015611936575f5ffd5b505af1158015611948573d5f5f3e3d5ffd5b505050506119da565b8373ffffffffffffffffffffffffffffffffffffffff1663156e29f68461198d8873ffffffffffffffffffffffffffffffffffffffff16611c5c565b856040518463ffffffff1660e01b81526004016119ac93929190613526565b5f604051808303815f87803b1580156119c3575f5ffd5b505af11580156119d5573d5f5f3e3d5ffd5b505050505b5b5050505050565b5f5f905092915050565b5f8173ffffffffffffffffffffffffffffffffffffffff168373ffffffffffffffffffffffffffffffffffffffff1614905092915050565b5f6f800000000000000000000000000000008210611a6c57611a6b6393dafdf160e01b7bffffffffffffffffffffffffffffffffffffffffffffffffffffffff1916611c7b565b5b819050919050565b5f819050806fffffffffffffffffffffffffffffffff168214611ac157611ac06393dafdf160e01b7bffffffffffffffffffffffffffffffffffffffffffffffffffffffff1916611c7b565b5b919050565b5f6040517f0a85dc2900000000000000000000000000000000000000000000000000000000815260040160405180910390fd5b611b8f81604051602401611b0d919061356a565b6040516020818303038152906040527f2d5b6cb9000000000000000000000000000000000000000000000000000000007bffffffffffffffffffffffffffffffffffffffffffffffffffffffff19166020820180517bffffffffffffffffffffffffffffffffffffffffffffffffffffffff8381831617835250505050611c42565b50565b611c2881604051602401611ba69190612bd0565b6040516020818303038152906040527ff82c50f1000000000000000000000000000000000000000000000000000000007bffffffffffffffffffffffffffffffffffffffffffffffffffffffff19166020820180517bffffffffffffffffffffffffffffffffffffffffffffffffffffffff8381831617835250505050611c42565b50565b5f8160018060801b03168360801b17905092915050565b611c5981611c51611c83611ca2565b63ffffffff16565b50565b5f8173ffffffffffffffffffffffffffffffffffffffff169050919050565b805f5260045ffd5b5f6a636f6e736f6c652e6c6f6790505f5f835160208501845afa505050565b611d77819050919050565b6040518060c001604052805f81526020015f81526020015f81526020015f81526020015f73ffffffffffffffffffffffffffffffffffffffff168152602001611cf4611d81565b81525090565b604051806101c001604052805f151581526020015f151581526020015f151581526020015f151581526020015f151581526020015f151581526020015f151581526020015f151581526020015f151581526020015f151581526020015f151581526020015f151581526020015f151581526020015f151581525090565b611d7f613583565b565b60405180606001604052805f151581526020015f81526020015f73ffffffffffffffffffffffffffffffffffffffff1681525090565b5f819050919050565b611dc981611db7565b82525050565b5f602082019050611de25f830184611dc0565b92915050565b5f604051905090565b5f5ffd5b5f5ffd5b5f5ffd5b5f601f19601f8301169050919050565b7f4e487b71000000000000000000000000000000000000000000000000000000005f52604160045260245ffd5b611e4382611dfd565b810181811067ffffffffffffffff82111715611e6257611e61611e0d565b5b80604052505050565b5f611e74611de8565b9050611e808282611e3a565b919050565b611e8e81611db7565b8114611e98575f5ffd5b50565b5f81359050611ea981611e85565b92915050565b611eb881611db7565b8114611ec2575f5ffd5b50565b5f81359050611ed381611eaf565b92915050565b5f819050919050565b611eeb81611ed9565b8114611ef5575f5ffd5b50565b5f81359050611f0681611ee2565b92915050565b5f73ffffffffffffffffffffffffffffffffffffffff82169050919050565b5f611f3582611f0c565b9050919050565b611f4581611f2b565b8114611f4f575f5ffd5b50565b5f81359050611f6081611f3c565b92915050565b5f8115159050919050565b611f7a81611f66565b8114611f84575f5ffd5b50565b5f81359050611f9581611f71565b92915050565b5f819050919050565b611fad81611f9b565b8114611fb7575f5ffd5b50565b5f81359050611fc881611fa4565b92915050565b611fd781611f0c565b8114611fe1575f5ffd5b50565b5f81359050611ff281611fce565b92915050565b5f6060828403121561200d5761200c611df9565b5b6120176060611e6b565b90505f61202684828501611f87565b5f83015250602061203984828501611fba565b602083015250604061204d84828501611fe4565b60408301525092915050565b5f610100828403121561206f5761206e611df9565b5b61207960c0611e6b565b90505f61208884828501611e9b565b5f83015250602061209b84828501611ec5565b60208301525060406120af84828501611ef8565b60408301525060606120c384828501611ef8565b60608301525060806120d784828501611f52565b60808301525060a06120eb84828501611ff8565b60a08301525092915050565b5f610100828403121561210d5761210c611df1565b5b5f61211a84828501612059565b91505092915050565b5f5ffd5b5f60a0828403121561213c5761213b612123565b5b81905092915050565b5f6080828403121561215a57612159612123565b5b81905092915050565b5f5ffd5b5f5ffd5b5f5ffd5b5f5f83601f84011261218457612183612163565b5b8235905067ffffffffffffffff8111156121a1576121a0612167565b5b6020830191508360018202830111156121bd576121bc61216b565b5b9250929050565b5f5f5f5f5f61016086880312156121de576121dd611df1565b5b5f6121eb88828901611f52565b95505060206121fc88828901612127565b94505060c061220d88828901612145565b93505061014086013567ffffffffffffffff81111561222f5761222e611df5565b5b61223b8882890161216f565b92509250509295509295909350565b5f7fffffffff0000000000000000000000000000000000000000000000000000000082169050919050565b61227e8161224a565b82525050565b5f6020820190506122975f830184612275565b92915050565b5f5f602083850312156122b3576122b2611df1565b5b5f83013567ffffffffffffffff8111156122d0576122cf611df5565b5b6122dc8582860161216f565b92509250509250929050565b6122f181611db7565b82525050565b5f61230182611db7565b9050919050565b612311816122f7565b82525050565b61232081611ed9565b82525050565b61232f81611f2b565b82525050565b61233e81611f66565b82525050565b61234d81611f9b565b82525050565b61235c81611f0c565b82525050565b606082015f8201516123765f850182612335565b5060208201516123896020850182612344565b50604082015161239c6040850182612353565b50505050565b61010082015f8201516123b75f8501826122e8565b5060208201516123ca6020850182612308565b5060408201516123dd6040850182612317565b5060608201516123f06060850182612317565b5060808201516124036080850182612326565b5060a082015161241660a0850182612362565b50505050565b5f610100820190506124305f8301846123a2565b92915050565b5f6060828403121561244b5761244a612123565b5b81905092915050565b5f5f5f5f5f610140868803121561246e5761246d611df1565b5b5f61247b88828901611f52565b955050602061248c88828901612127565b94505060c061249d88828901612436565b93505061012086013567ffffffffffffffff8111156124bf576124be611df5565b5b6124cb8882890161216f565b92509250509295509295909350565b5f819050919050565b5f6124fd6124f86124f384611f9b565b6124da565b611f9b565b9050919050565b61250d816124e3565b82525050565b5f62ffffff82169050919050565b61252a81612513565b82525050565b5f6060820190506125435f830186612275565b6125506020830185612504565b61255d6040830184612521565b949350505050565b5f5f6040838503121561257b5761257a611df1565b5b5f61258885828601611ec5565b925050602061259985828601611e9b565b9150509250929050565b6125ac816122f7565b82525050565b6125bb81611ed9565b82525050565b6125ca81611f2b565b82525050565b606082015f8201516125e45f850182612335565b5060208201516125f76020850182612344565b50604082015161260a6040850182612353565b50505050565b5f610100820190506126245f830189611dc0565b61263160208301886125a3565b61263e60408301876125b2565b61264b60608301866125b2565b61265860808301856125c1565b61266560a08301846125d0565b979650505050505050565b61267981611f9b565b8114612683575f5ffd5b50565b5f8135905061269481612670565b92915050565b5f5f5f5f5f5f5f6101a0888a0312156126b6576126b5611df1565b5b5f6126c38a828b01611f52565b97505060206126d48a828b01612127565b96505060c06126e58a828b01612145565b9550506101406126f78a828b01612686565b9450506101606127098a828b01612686565b93505061018088013567ffffffffffffffff81111561272b5761272a611df5565b5b6127378a828b0161216f565b925092505092959891949750929550565b612751816124e3565b82525050565b5f60408201905061276a5f830185612275565b6127776020830184612748565b9392505050565b5f8160020b9050919050565b6127938161277e565b811461279d575f5ffd5b50565b5f813590506127ae8161278a565b92915050565b5f5f5f5f61010085870312156127cd576127cc611df1565b5b5f6127da87828801611f52565b94505060206127eb87828801612127565b93505060c06127fc87828801611fe4565b92505060e061280d878288016127a0565b91505092959194509250565b5f5f5f5f5f5f610160878903121561283457612833611df1565b5b5f61284189828a01611f52565b965050602061285289828a01612127565b95505060c061286389828a01612436565b94505061012061287589828a01612686565b93505061014087013567ffffffffffffffff81111561289757612896611df5565b5b6128a389828a0161216f565b92509250509295509295509295565b5f81600f0b9050919050565b6128c7816128b2565b82525050565b5f6040820190506128e05f830185612275565b6128ed60208301846128be565b9392505050565b5f5f5f5f5f5f610120878903121561290f5761290e611df1565b5b5f61291c89828a01611f52565b965050602061292d89828a01612127565b95505060c061293e89828a01611ef8565b94505060e061294f89828a01611ef8565b93505061010087013567ffffffffffffffff81111561297157612970611df5565b5b61297d89828a0161216f565b92509250509295509295509295565b6101c082015f8201516129a15f850182612335565b5060208201516129b46020850182612335565b5060408201516129c76040850182612335565b5060608201516129da6060850182612335565b5060808201516129ed6080850182612335565b5060a0820151612a0060a0850182612335565b5060c0820151612a1360c0850182612335565b5060e0820151612a2660e0850182612335565b50610100820151612a3b610100850182612335565b50610120820151612a50610120850182612335565b50610140820151612a65610140850182612335565b50610160820151612a7a610160850182612335565b50610180820151612a8f610180850182612335565b506101a0820151612aa46101a0850182612335565b50505050565b5f6101c082019050612abe5f83018461298c565b92915050565b5f612ade612ad9612ad484611f0c565b6124da565b611f0c565b9050919050565b5f612aef82612ac4565b9050919050565b5f612b0082612ae5565b9050919050565b612b1081612af6565b82525050565b5f602082019050612b295f830184612b07565b92915050565b5f5f5f60e08486031215612b4657612b45611df1565b5b5f612b5386828701611f52565b9350506020612b6486828701612127565b92505060c0612b7586828701611fe4565b9150509250925092565b5f5f5f6101c08486031215612b9757612b96611df1565b5b5f612ba486828701612127565b93505060a0612bb586828701611e9b565b92505060c0612bc686828701612059565b9150509250925092565b5f602082019050612be35f8301846125b2565b92915050565b5f8160601b9050919050565b5f612bff82612be9565b9050919050565b5f612c1082612bf5565b9050919050565b612c28612c2382611f2b565b612c06565b82525050565b5f819050919050565b612c48612c4382611ed9565b612c2e565b82525050565b5f612c598286612c17565b601482019150612c698285612c37565b602082019150612c798284612c37565b602082019150819050949350505050565b5f604082019050612c9d5f8301856125b2565b612caa60208301846125b2565b9392505050565b612cba81611f2b565b8114612cc4575f5ffd5b50565b5f81359050612cd581612cb1565b92915050565b612ce481612513565b8114612cee575f5ffd5b50565b5f81359050612cff81612cdb565b92915050565b5f612d0f82611f2b565b9050919050565b612d1f81612d05565b8114612d29575f5ffd5b50565b5f81359050612d3a81612d16565b92915050565b5f60a08284031215612d5557612d54611df9565b5b612d5f60a0611e6b565b90505f612d6e84828501612cc7565b5f830152506020612d8184828501612cc7565b6020830152506040612d9584828501612cf1565b6040830152506060612da9848285016127a0565b6060830152506080612dbd84828501612d2c565b60808301525092915050565b5f60a08284031215612dde57612ddd611df1565b5b5f612deb84828501612d40565b91505092915050565b5f612e026020840184612cc7565b905092915050565b5f612e1482612ae5565b9050919050565b612e2481612e0a565b82525050565b5f612e386020840184612cf1565b905092915050565b612e4981612513565b82525050565b5f612e5d60208401846127a0565b905092915050565b612e6e8161277e565b82525050565b5f612e826020840184612d2c565b905092915050565b5f612e9482612ae5565b9050919050565b612ea481612e8a565b82525050565b60a08201612eba5f830183612df4565b612ec65f850182612e1b565b50612ed46020830183612df4565b612ee16020850182612e1b565b50612eef6040830183612e2a565b612efc6040850182612e40565b50612f0a6060830183612e4f565b612f176060850182612e65565b50612f256080830183612e74565b612f326080850182612e9b565b50505050565b5f60c082019050612f4b5f8301856125a3565b612f586020830184612eaa565b9392505050565b612f6881611db7565b82525050565b5f612f798383612f5f565b60208301905092915050565b612f8e816122f7565b82525050565b5f612f9f8383612f85565b60208301905092915050565b612fb481611ed9565b82525050565b5f612fc58383612fab565b60208301905092915050565b612fda81611f2b565b82525050565b5f612feb8383612fd1565b60208301905092915050565b61300081611f66565b82525050565b5f6130118383612ff7565b60208301905092915050565b61302681611f9b565b82525050565b5f613037838361301d565b60208301905092915050565b61304c81611f0c565b82525050565b5f61305d8383613043565b60208301905092915050565b5f82015f82015161307a8482613006565b935050602082015161308c848261302c565b935050604082015161309e8482613052565b935050505050565b5f6130b18383613069565b60608301905092915050565b5f82015f8201516130ce8482612f6e565b93505060208201516130e08482612f94565b93505060408201516130f28482612fba565b93505060608201516131048482612fba565b93505060808201516131168482612fe0565b93505060a082015161312884826130a6565b935050505050565b5f61313b82846130bd565b6101008201915081905092915050565b5f602082840312156131605761315f611df1565b5b5f61316d84828501612cc7565b91505092915050565b7f4e487b71000000000000000000000000000000000000000000000000000000005f52601160045260245ffd5b5f6131ad82611f9b565b91507f800000000000000000000000000000000000000000000000000000000000000082036131df576131de613176565b5b815f039050919050565b5f819050919050565b5f61320c613207613202846131e9565b6124da565b6128b2565b9050919050565b61321c816131f2565b82525050565b5f6fffffffffffffffffffffffffffffffff82169050919050565b61324681613222565b82525050565b5f61326661326161325c846131e9565b6124da565b613222565b9050919050565b6132768161324c565b82525050565b5f60808201905061328f5f8301876128be565b61329c6020830186613213565b6132a9604083018561323d565b6132b6606083018461326d565b95945050505050565b5f6080820190506132d25f830187613213565b6132df60208301866128be565b6132ec604083018561326d565b6132f9606083018461323d565b95945050505050565b6004811061330e575f5ffd5b50565b5f8135905061331f81613302565b92915050565b5f5f610120838503121561333c5761333b611df1565b5b5f61334985828601613311565b925050602061335a85828601612059565b9150509250929050565b5f6060828403121561337957613378611df1565b5b5f61338684828501611ff8565b91505092915050565b7f4e487b71000000000000000000000000000000000000000000000000000000005f52602160045260245ffd5b600481106133cd576133cc61338f565b5b50565b5f8190506133dd826133bc565b919050565b5f6133ec826133d0565b9050919050565b6133fc816133e2565b82525050565b5f6020820190506134155f8301846133f3565b92915050565b5f81519050919050565b5f82825260208201905092915050565b8281835e5f83830152505050565b5f61344d8261341b565b6134578185613425565b9350613467818560208601613435565b61347081611dfd565b840191505092915050565b5f6020820190508181035f8301526134938184613443565b905092915050565b5f6020820190506134ae5f8301846125c1565b92915050565b5f6040820190508181035f8301526134cc8185613443565b90506134db60208301846125b2565b9392505050565b6134eb81612e0a565b82525050565b5f6060820190506135045f8301866134e2565b61351160208301856125c1565b61351e60408301846125b2565b949350505050565b5f6060820190506135395f8301866125c1565b61354660208301856125b2565b61355360408301846125b2565b949350505050565b61356481611f9b565b82525050565b5f60208201905061357d5f83018461355b565b92915050565b7f4e487b71000000000000000000000000000000000000000000000000000000005f52605160045260245ffdfe737065636966696564416d6f756e742070617373656420746f2072657475726e2064656c7461a2646970667358221220b81811cdd1c8065b824265a0c61f753379432b20445e6384131970e326e4d86f64736f6c634300081e0033","linkReferences":{}},"methodIdentifiers":{"afterAddLiquidity(address,(address,address,uint24,int24,address),(int24,int24,int256,bytes32),int256,int256,bytes)":"9f063efc","afterDonate(address,(address,address,uint24,int24,address),uint256,uint256,bytes)":"e1b4af69","afterInitialize(address,(address,address,uint24,int24,address),uint160,int24)":"6fe7e6eb","afterRemoveLiquidity(address,(address,address,uint24,int24,address),(int24,int24,int256,bytes32),int256,int256,bytes)":"6c2bbe7e","afterSwap(address,(address,address,uint24,int24,address),(bool,int256,uint160),int256,bytes)":"b47b2fb1","beforeAddLiquidity(address,(address,address,uint24,int24,address),(int24,int24,int256,bytes32),bytes)":"259982e5","beforeDonate(address,(address,address,uint24,int24,address),uint256,uint256,bytes)":"b6a8b0fa","beforeInitialize(address,(address,address,uint24,int24,address),uint160)":"dc98354e","beforeRemoveLiquidity(address,(address,address,uint24,int24,address),(int24,int24,int256,bytes32),bytes)":"21d0ee70","beforeSwap(address,(address,address,uint24,int24,address),(bool,int256,uint160),bytes)":"575e24b4","createIntentSwap((address,address,uint24,int24,address),bytes32,(bytes32,bytes32,uint256,uint256,address,(bool,int256,uint160)))":"ddce3d29","decodeIntentSwap(bytes)":"2ebe025d","getHookPermissions()":"c4e833ce","getIntentSwap(bytes32,bytes32)":"6b77c403","getIntentSwapHash((bytes32,bytes32,uint256,uint256,address,(bool,int256,uint160)))":"205b1058","getSalt()":"13a9589c","intentSwapsForPool(bytes32,bytes32)":"680997c5","poolManager()":"dc4c90d3"},"id":113}