{"abi":[{"type":"constructor","inputs":[{"name":"_poolManager","type":"address","internalType":"contract IPoolManager"}],"stateMutability":"nonpayable"},{"type":"function","name":"afterAddLiquidity","inputs":[{"name":"sender","type":"address","internalType":"address"},{"name":"key","type":"tuple","internalType":"struct PoolKey","components":[{"name":"currency0","type":"address","internalType":"Currency"},{"name":"currency1","type":"address","internalType":"Currency"},{"name":"fee","type":"uint24","internalType":"uint24"},{"name":"tickSpacing","type":"int24","internalType":"int24"},{"name":"hooks","type":"address","internalType":"contract IHooks"}]},{"name":"params","type":"tuple","internalType":"struct ModifyLiquidityParams","components":[{"name":"tickLower","type":"int24","internalType":"int24"},{"name":"tickUpper","type":"int24","internalType":"int24"},{"name":"liquidityDelta","type":"int256","internalType":"int256"},{"name":"salt","type":"bytes32","internalType":"bytes32"}]},{"name":"delta0","type":"int256","internalType":"BalanceDelta"},{"name":"delta1","type":"int256","internalType":"BalanceDelta"},{"name":"hookData","type":"bytes","internalType":"bytes"}],"outputs":[{"name":"","type":"bytes4","internalType":"bytes4"},{"name":"","type":"int256","internalType":"BalanceDelta"}],"stateMutability":"nonpayable"},{"type":"function","name":"afterDonate","inputs":[{"name":"sender","type":"address","internalType":"address"},{"name":"key","type":"tuple","internalType":"struct PoolKey","components":[{"name":"currency0","type":"address","internalType":"Currency"},{"name":"currency1","type":"address","internalType":"Currency"},{"name":"fee","type":"uint24","internalType":"uint24"},{"name":"tickSpacing","type":"int24","internalType":"int24"},{"name":"hooks","type":"address","internalType":"contract IHooks"}]},{"name":"amount0","type":"uint256","internalType":"uint256"},{"name":"amount1","type":"uint256","internalType":"uint256"},{"name":"hookData","type":"bytes","internalType":"bytes"}],"outputs":[{"name":"","type":"bytes4","internalType":"bytes4"}],"stateMutability":"nonpayable"},{"type":"function","name":"afterInitialize","inputs":[{"name":"sender","type":"address","internalType":"address"},{"name":"key","type":"tuple","internalType":"struct PoolKey","components":[{"name":"currency0","type":"address","internalType":"Currency"},{"name":"currency1","type":"address","internalType":"Currency"},{"name":"fee","type":"uint24","internalType":"uint24"},{"name":"tickSpacing","type":"int24","internalType":"int24"},{"name":"hooks","type":"address","internalType":"contract IHooks"}]},{"name":"sqrtPriceX96","type":"uint160","internalType":"uint160"},{"name":"tick","type":"int24","internalType":"int24"}],"outputs":[{"name":"","type":"bytes4","internalType":"bytes4"}],"stateMutability":"nonpayable"},{"type":"function","name":"afterRemoveLiquidity","inputs":[{"name":"sender","type":"address","internalType":"address"},{"name":"key","type":"tuple","internalType":"struct PoolKey","components":[{"name":"currency0","type":"address","internalType":"Currency"},{"name":"currency1","type":"address","internalType":"Currency"},{"name":"fee","type":"uint24","internalType":"uint24"},{"name":"tickSpacing","type":"int24","internalType":"int24"},{"name":"hooks","type":"address","internalType":"contract IHooks"}]},{"name":"params","type":"tuple","internalType":"struct ModifyLiquidityParams","components":[{"name":"tickLower","type":"int24","internalType":"int24"},{"name":"tickUpper","type":"int24","internalType":"int24"},{"name":"liquidityDelta","type":"int256","internalType":"int256"},{"name":"salt","type":"bytes32","internalType":"bytes32"}]},{"name":"delta0","type":"int256","internalType":"BalanceDelta"},{"name":"delta1","type":"int256","internalType":"BalanceDelta"},{"name":"hookData","type":"bytes","internalType":"bytes"}],"outputs":[{"name":"","type":"bytes4","internalType":"bytes4"},{"name":"","type":"int256","internalType":"BalanceDelta"}],"stateMutability":"nonpayable"},{"type":"function","name":"afterSwap","inputs":[{"name":"sender","type":"address","internalType":"address"},{"name":"key","type":"tuple","internalType":"struct PoolKey","components":[{"name":"currency0","type":"address","internalType":"Currency"},{"name":"currency1","type":"address","internalType":"Currency"},{"name":"fee","type":"uint24","internalType":"uint24"},{"name":"tickSpacing","type":"int24","internalType":"int24"},{"name":"hooks","type":"address","internalType":"contract IHooks"}]},{"name":"params","type":"tuple","internalType":"struct SwapParams","components":[{"name":"zeroForOne","type":"bool","internalType":"bool"},{"name":"amountSpecified","type":"int256","internalType":"int256"},{"name":"sqrtPriceLimitX96","type":"uint160","internalType":"uint160"}]},{"name":"delta","type":"int256","internalType":"BalanceDelta"},{"name":"hookData","type":"bytes","internalType":"bytes"}],"outputs":[{"name":"","type":"bytes4","internalType":"bytes4"},{"name":"","type":"int128","internalType":"int128"}],"stateMutability":"nonpayable"},{"type":"function","name":"afterSwapCount","inputs":[{"name":"","type":"bytes32","internalType":"PoolId"}],"outputs":[{"name":"count","type":"uint256","internalType":"uint256"}],"stateMutability":"view"},{"type":"function","name":"beforeAddLiquidity","inputs":[{"name":"sender","type":"address","internalType":"address"},{"name":"key","type":"tuple","internalType":"struct PoolKey","components":[{"name":"currency0","type":"address","internalType":"Currency"},{"name":"currency1","type":"address","internalType":"Currency"},{"name":"fee","type":"uint24","internalType":"uint24"},{"name":"tickSpacing","type":"int24","internalType":"int24"},{"name":"hooks","type":"address","internalType":"contract IHooks"}]},{"name":"params","type":"tuple","internalType":"struct ModifyLiquidityParams","components":[{"name":"tickLower","type":"int24","internalType":"int24"},{"name":"tickUpper","type":"int24","internalType":"int24"},{"name":"liquidityDelta","type":"int256","internalType":"int256"},{"name":"salt","type":"bytes32","internalType":"bytes32"}]},{"name":"hookData","type":"bytes","internalType":"bytes"}],"outputs":[{"name":"","type":"bytes4","internalType":"bytes4"}],"stateMutability":"nonpayable"},{"type":"function","name":"beforeAddLiquidityCount","inputs":[{"name":"","type":"bytes32","internalType":"PoolId"}],"outputs":[{"name":"count","type":"uint256","internalType":"uint256"}],"stateMutability":"view"},{"type":"function","name":"beforeDonate","inputs":[{"name":"sender","type":"address","internalType":"address"},{"name":"key","type":"tuple","internalType":"struct PoolKey","components":[{"name":"currency0","type":"address","internalType":"Currency"},{"name":"currency1","type":"address","internalType":"Currency"},{"name":"fee","type":"uint24","internalType":"uint24"},{"name":"tickSpacing","type":"int24","internalType":"int24"},{"name":"hooks","type":"address","internalType":"contract IHooks"}]},{"name":"amount0","type":"uint256","internalType":"uint256"},{"name":"amount1","type":"uint256","internalType":"uint256"},{"name":"hookData","type":"bytes","internalType":"bytes"}],"outputs":[{"name":"","type":"bytes4","internalType":"bytes4"}],"stateMutability":"nonpayable"},{"type":"function","name":"beforeInitialize","inputs":[{"name":"sender","type":"address","internalType":"address"},{"name":"key","type":"tuple","internalType":"struct PoolKey","components":[{"name":"currency0","type":"address","internalType":"Currency"},{"name":"currency1","type":"address","internalType":"Currency"},{"name":"fee","type":"uint24","internalType":"uint24"},{"name":"tickSpacing","type":"int24","internalType":"int24"},{"name":"hooks","type":"address","internalType":"contract IHooks"}]},{"name":"sqrtPriceX96","type":"uint160","internalType":"uint160"}],"outputs":[{"name":"","type":"bytes4","internalType":"bytes4"}],"stateMutability":"nonpayable"},{"type":"function","name":"beforeRemoveLiquidity","inputs":[{"name":"sender","type":"address","internalType":"address"},{"name":"key","type":"tuple","internalType":"struct PoolKey","components":[{"name":"currency0","type":"address","internalType":"Currency"},{"name":"currency1","type":"address","internalType":"Currency"},{"name":"fee","type":"uint24","internalType":"uint24"},{"name":"tickSpacing","type":"int24","internalType":"int24"},{"name":"hooks","type":"address","internalType":"contract IHooks"}]},{"name":"params","type":"tuple","internalType":"struct ModifyLiquidityParams","components":[{"name":"tickLower","type":"int24","internalType":"int24"},{"name":"tickUpper","type":"int24","internalType":"int24"},{"name":"liquidityDelta","type":"int256","internalType":"int256"},{"name":"salt","type":"bytes32","internalType":"bytes32"}]},{"name":"hookData","type":"bytes","internalType":"bytes"}],"outputs":[{"name":"","type":"bytes4","internalType":"bytes4"}],"stateMutability":"nonpayable"},{"type":"function","name":"beforeRemoveLiquidityCount","inputs":[{"name":"","type":"bytes32","internalType":"PoolId"}],"outputs":[{"name":"count","type":"uint256","internalType":"uint256"}],"stateMutability":"view"},{"type":"function","name":"beforeSwap","inputs":[{"name":"sender","type":"address","internalType":"address"},{"name":"key","type":"tuple","internalType":"struct PoolKey","components":[{"name":"currency0","type":"address","internalType":"Currency"},{"name":"currency1","type":"address","internalType":"Currency"},{"name":"fee","type":"uint24","internalType":"uint24"},{"name":"tickSpacing","type":"int24","internalType":"int24"},{"name":"hooks","type":"address","internalType":"contract IHooks"}]},{"name":"params","type":"tuple","internalType":"struct SwapParams","components":[{"name":"zeroForOne","type":"bool","internalType":"bool"},{"name":"amountSpecified","type":"int256","internalType":"int256"},{"name":"sqrtPriceLimitX96","type":"uint160","internalType":"uint160"}]},{"name":"hookData","type":"bytes","internalType":"bytes"}],"outputs":[{"name":"","type":"bytes4","internalType":"bytes4"},{"name":"","type":"int256","internalType":"BeforeSwapDelta"},{"name":"","type":"uint24","internalType":"uint24"}],"stateMutability":"nonpayable"},{"type":"function","name":"beforeSwapCount","inputs":[{"name":"","type":"bytes32","internalType":"PoolId"}],"outputs":[{"name":"count","type":"uint256","internalType":"uint256"}],"stateMutability":"view"},{"type":"function","name":"getHookPermissions","inputs":[],"outputs":[{"name":"","type":"tuple","internalType":"struct Hooks.Permissions","components":[{"name":"beforeInitialize","type":"bool","internalType":"bool"},{"name":"afterInitialize","type":"bool","internalType":"bool"},{"name":"beforeAddLiquidity","type":"bool","internalType":"bool"},{"name":"afterAddLiquidity","type":"bool","internalType":"bool"},{"name":"beforeRemoveLiquidity","type":"bool","internalType":"bool"},{"name":"afterRemoveLiquidity","type":"bool","internalType":"bool"},{"name":"beforeSwap","type":"bool","internalType":"bool"},{"name":"afterSwap","type":"bool","internalType":"bool"},{"name":"beforeDonate","type":"bool","internalType":"bool"},{"name":"afterDonate","type":"bool","internalType":"bool"},{"name":"beforeSwapReturnDelta","type":"bool","internalType":"bool"},{"name":"afterSwapReturnDelta","type":"bool","internalType":"bool"},{"name":"afterAddLiquidityReturnDelta","type":"bool","internalType":"bool"},{"name":"afterRemoveLiquidityReturnDelta","type":"bool","internalType":"bool"}]}],"stateMutability":"pure"},{"type":"function","name":"poolManager","inputs":[],"outputs":[{"name":"","type":"address","internalType":"contract IPoolManager"}],"stateMutability":"view"},{"type":"error","name":"HookNotImplemented","inputs":[]},{"type":"error","name":"InvalidPool","inputs":[]},{"type":"error","name":"NotPoolManager","inputs":[]},{"type":"error","name":"NotSelf","inputs":[]}],"bytecode":{"object":"0x60a060405234801561000f575f5ffd5b50604051612055380380612055833981810160405281019061003191906105e9565b808073ffffffffffffffffffffffffffffffffffffffff1660808173ffffffffffffffffffffffffffffffffffffffff16815250506100753061007c60201b60201c565b5050610614565b6100998161008e61009c60201b60201c565b61012760201b60201c565b50565b6100a46104fd565b604051806101c001604052805f151581526020015f151581526020016001151581526020015f151581526020016001151581526020015f151581526020016001151581526020016001151581526020015f151581526020015f151581526020015f151581526020015f151581526020015f151581526020015f1515815250905090565b6101526120008373ffffffffffffffffffffffffffffffffffffffff166104b660201b90919060201c565b1515815f01511515141580610199575061018d6110008373ffffffffffffffffffffffffffffffffffffffff166104b660201b90919060201c565b15158160200151151514155b806101d657506101ca6108008373ffffffffffffffffffffffffffffffffffffffff166104b660201b90919060201c565b15158160400151151514155b8061021357506102076104008373ffffffffffffffffffffffffffffffffffffffff166104b660201b90919060201c565b15158160600151151514155b8061025057506102446102008373ffffffffffffffffffffffffffffffffffffffff166104b660201b90919060201c565b15158160800151151514155b8061028d57506102816101008373ffffffffffffffffffffffffffffffffffffffff166104b660201b90919060201c565b15158160a00151151514155b806102c957506102bd60808373ffffffffffffffffffffffffffffffffffffffff166104b660201b90919060201c565b15158160c00151151514155b8061030557506102f960408373ffffffffffffffffffffffffffffffffffffffff166104b660201b90919060201c565b15158160e00151151514155b80610342575061033560208373ffffffffffffffffffffffffffffffffffffffff166104b660201b90919060201c565b1515816101000151151514155b8061037f575061037260108373ffffffffffffffffffffffffffffffffffffffff166104b660201b90919060201c565b1515816101200151151514155b806103bc57506103af60088373ffffffffffffffffffffffffffffffffffffffff166104b660201b90919060201c565b1515816101400151151514155b806103f957506103ec60048373ffffffffffffffffffffffffffffffffffffffff166104b660201b90919060201c565b1515816101600151151514155b80610436575061042960028373ffffffffffffffffffffffffffffffffffffffff166104b660201b90919060201c565b1515816101800151151514155b80610473575061046660018373ffffffffffffffffffffffffffffffffffffffff166104b660201b90919060201c565b1515816101a00151151514155b156104b2576104b18263e65af6a060e01b7bffffffffffffffffffffffffffffffffffffffffffffffffffffffff19166104db60201b90919060201c565b5b5050565b5f5f82841673ffffffffffffffffffffffffffffffffffffffff161415905092915050565b815f5273ffffffffffffffffffffffffffffffffffffffff811660045260245ffd5b604051806101c001604052805f151581526020015f151581526020015f151581526020015f151581526020015f151581526020015f151581526020015f151581526020015f151581526020015f151581526020015f151581526020015f151581526020015f151581526020015f151581526020015f151581525090565b5f5ffd5b5f73ffffffffffffffffffffffffffffffffffffffff82169050919050565b5f6105a78261057e565b9050919050565b5f6105b88261059d565b9050919050565b6105c8816105ae565b81146105d2575f5ffd5b50565b5f815190506105e3816105bf565b92915050565b5f602082840312156105fe576105fd61057a565b5b5f61060b848285016105d5565b91505092915050565b6080516119e36106725f395f81816103e60152818161048401528181610524015281816105dd015281816106820152818161071f015281816107c501528181610868015281816109d1015281816109f60152610a9001526119e35ff3fe608060405234801561000f575f5ffd5b50600436106100fe575f3560e01c8063b6a8b0fa11610095578063db6a945111610064578063db6a945114610335578063dc4c90d314610365578063dc98354e14610383578063e1b4af69146103b3576100fe565b8063b6a8b0fa14610287578063c4e833ce146102b7578063c6939957146102d5578063dacdbe7714610305576100fe565b80636c2bbe7e116100d15780636c2bbe7e146101c45780636fe7e6eb146101f55780639f063efc14610225578063b47b2fb114610256576100fe565b806321d0ee7014610102578063259982e514610132578063575e24b4146101625780635c338d3214610194575b5f5ffd5b61011c60048036038101906101179190610f4d565b6103e3565b604051610129919061100d565b60405180910390f35b61014c60048036038101906101479190610f4d565b610481565b604051610159919061100d565b60405180910390f35b61017c60048036038101906101779190611044565b61051f565b60405161018b93929190611129565b60405180910390f35b6101ae60048036038101906101a99190611191565b6105c5565b6040516101bb91906111d4565b60405180910390f35b6101de60048036038101906101d99190611217565b6105d9565b6040516101ec9291906112d4565b60405180910390f35b61020f600480360381019061020a919061135b565b61067f565b60405161021c919061100d565b60405180910390f35b61023f600480360381019061023a9190611217565b61071b565b60405161024d9291906112d4565b60405180910390f35b610270600480360381019061026b91906113c0565b6107c1565b60405161027e929190611474565b60405180910390f35b6102a1600480360381019061029c91906114c5565b610865565b6040516102ae919061100d565b60405180910390f35b6102bf610905565b6040516102cc9190611695565b60405180910390f35b6102ef60048036038101906102ea9190611191565b610990565b6040516102fc91906111d4565b60405180910390f35b61031f600480360381019061031a9190611191565b6109a5565b60405161032c91906111d4565b60405180910390f35b61034f600480360381019061034a9190611191565b6109ba565b60405161035c91906111d4565b60405180910390f35b61036d6109cf565b60405161037a9190611701565b60405180910390f35b61039d6004803603810190610398919061171a565b6109f3565b6040516103aa919061100d565b60405180910390f35b6103cd60048036038101906103c891906114c5565b610a8d565b6040516103da919061100d565b60405180910390f35b5f7f000000000000000000000000000000000000000000000000000000000000000073ffffffffffffffffffffffffffffffffffffffff163373ffffffffffffffffffffffffffffffffffffffff1614610469576040517fae18210a00000000000000000000000000000000000000000000000000000000815260040160405180910390fd5b6104768686868686610b2d565b905095945050505050565b5f7f000000000000000000000000000000000000000000000000000000000000000073ffffffffffffffffffffffffffffffffffffffff163373ffffffffffffffffffffffffffffffffffffffff1614610507576040517fae18210a00000000000000000000000000000000000000000000000000000000815260040160405180910390fd5b6105148686868686610b7f565b905095945050505050565b5f5f5f7f000000000000000000000000000000000000000000000000000000000000000073ffffffffffffffffffffffffffffffffffffffff163373ffffffffffffffffffffffffffffffffffffffff16146105a7576040517fae18210a00000000000000000000000000000000000000000000000000000000815260040160405180910390fd5b6105b48888888888610bd1565b925092509250955095509592505050565b5f602052805f5260405f205f915090505481565b5f5f7f000000000000000000000000000000000000000000000000000000000000000073ffffffffffffffffffffffffffffffffffffffff163373ffffffffffffffffffffffffffffffffffffffff1614610660576040517fae18210a00000000000000000000000000000000000000000000000000000000815260040160405180910390fd5b61066f89898989898989610c2c565b9150915097509795505050505050565b5f7f000000000000000000000000000000000000000000000000000000000000000073ffffffffffffffffffffffffffffffffffffffff163373ffffffffffffffffffffffffffffffffffffffff1614610705576040517fae18210a00000000000000000000000000000000000000000000000000000000815260040160405180910390fd5b61071185858585610c60565b9050949350505050565b5f5f7f000000000000000000000000000000000000000000000000000000000000000073ffffffffffffffffffffffffffffffffffffffff163373ffffffffffffffffffffffffffffffffffffffff16146107a2576040517fae18210a00000000000000000000000000000000000000000000000000000000815260040160405180910390fd5b6107b189898989898989610c93565b9150915097509795505050505050565b5f5f7f000000000000000000000000000000000000000000000000000000000000000073ffffffffffffffffffffffffffffffffffffffff163373ffffffffffffffffffffffffffffffffffffffff1614610848576040517fae18210a00000000000000000000000000000000000000000000000000000000815260040160405180910390fd5b610856888888888888610cc7565b91509150965096945050505050565b5f7f000000000000000000000000000000000000000000000000000000000000000073ffffffffffffffffffffffffffffffffffffffff163373ffffffffffffffffffffffffffffffffffffffff16146108eb576040517fae18210a00000000000000000000000000000000000000000000000000000000815260040160405180910390fd5b6108f9878787878787610d1f565b90509695505050505050565b61090d610dc4565b604051806101c001604052805f151581526020015f151581526020016001151581526020015f151581526020016001151581526020015f151581526020016001151581526020016001151581526020015f151581526020015f151581526020015f151581526020015f151581526020015f151581526020015f1515815250905090565b6002602052805f5260405f205f915090505481565b6001602052805f5260405f205f915090505481565b6003602052805f5260405f205f915090505481565b7f000000000000000000000000000000000000000000000000000000000000000081565b5f7f000000000000000000000000000000000000000000000000000000000000000073ffffffffffffffffffffffffffffffffffffffff163373ffffffffffffffffffffffffffffffffffffffff1614610a79576040517fae18210a00000000000000000000000000000000000000000000000000000000815260040160405180910390fd5b610a84848484610d52565b90509392505050565b5f7f000000000000000000000000000000000000000000000000000000000000000073ffffffffffffffffffffffffffffffffffffffff163373ffffffffffffffffffffffffffffffffffffffff1614610b13576040517fae18210a00000000000000000000000000000000000000000000000000000000815260040160405180910390fd5b610b21878787878787610d85565b90509695505050505050565b5f60035f610b4a87803603810190610b45919061190e565b610db8565b81526020019081526020015f205f815480929190610b6790611966565b91905055506321d0ee7060e01b905095945050505050565b5f60025f610b9c87803603810190610b97919061190e565b610db8565b81526020019081526020015f205f815480929190610bb990611966565b919050555063259982e560e01b905095945050505050565b5f5f5f5f5f610bef89803603810190610bea919061190e565b610db8565b81526020019081526020015f205f815480929190610c0c90611966565b919050555063575e24b460e01b5f5f925092509250955095509592505050565b5f5f6040517f0a85dc2900000000000000000000000000000000000000000000000000000000815260040160405180910390fd5b5f6040517f0a85dc2900000000000000000000000000000000000000000000000000000000815260040160405180910390fd5b5f5f6040517f0a85dc2900000000000000000000000000000000000000000000000000000000815260040160405180910390fd5b5f5f60015f610ce589803603810190610ce0919061190e565b610db8565b81526020019081526020015f205f815480929190610d0290611966565b919050555063b47b2fb160e01b5f91509150965096945050505050565b5f6040517f0a85dc2900000000000000000000000000000000000000000000000000000000815260040160405180910390fd5b5f6040517f0a85dc2900000000000000000000000000000000000000000000000000000000815260040160405180910390fd5b5f6040517f0a85dc2900000000000000000000000000000000000000000000000000000000815260040160405180910390fd5b5f60a082209050919050565b604051806101c001604052805f151581526020015f151581526020015f151581526020015f151581526020015f151581526020015f151581526020015f151581526020015f151581526020015f151581526020015f151581526020015f151581526020015f151581526020015f151581526020015f151581525090565b5f604051905090565b5f5ffd5b5f5ffd5b5f73ffffffffffffffffffffffffffffffffffffffff82169050919050565b5f610e7b82610e52565b9050919050565b610e8b81610e71565b8114610e95575f5ffd5b50565b5f81359050610ea681610e82565b92915050565b5f5ffd5b5f60a08284031215610ec557610ec4610eac565b5b81905092915050565b5f60808284031215610ee357610ee2610eac565b5b81905092915050565b5f5ffd5b5f5ffd5b5f5ffd5b5f5f83601f840112610f0d57610f0c610eec565b5b8235905067ffffffffffffffff811115610f2a57610f29610ef0565b5b602083019150836001820283011115610f4657610f45610ef4565b5b9250929050565b5f5f5f5f5f6101608688031215610f6757610f66610e4a565b5b5f610f7488828901610e98565b9550506020610f8588828901610eb0565b94505060c0610f9688828901610ece565b93505061014086013567ffffffffffffffff811115610fb857610fb7610e4e565b5b610fc488828901610ef8565b92509250509295509295909350565b5f7fffffffff0000000000000000000000000000000000000000000000000000000082169050919050565b61100781610fd3565b82525050565b5f6020820190506110205f830184610ffe565b92915050565b5f6060828403121561103b5761103a610eac565b5b81905092915050565b5f5f5f5f5f610140868803121561105e5761105d610e4a565b5b5f61106b88828901610e98565b955050602061107c88828901610eb0565b94505060c061108d88828901611026565b93505061012086013567ffffffffffffffff8111156110af576110ae610e4e565b5b6110bb88828901610ef8565b92509250509295509295909350565b5f819050919050565b5f819050919050565b5f6110f66110f16110ec846110ca565b6110d3565b6110ca565b9050919050565b611106816110dc565b82525050565b5f62ffffff82169050919050565b6111238161110c565b82525050565b5f60608201905061113c5f830186610ffe565b61114960208301856110fd565b611156604083018461111a565b949350505050565b5f819050919050565b6111708161115e565b811461117a575f5ffd5b50565b5f8135905061118b81611167565b92915050565b5f602082840312156111a6576111a5610e4a565b5b5f6111b38482850161117d565b91505092915050565b5f819050919050565b6111ce816111bc565b82525050565b5f6020820190506111e75f8301846111c5565b92915050565b6111f6816110ca565b8114611200575f5ffd5b50565b5f81359050611211816111ed565b92915050565b5f5f5f5f5f5f5f6101a0888a03121561123357611232610e4a565b5b5f6112408a828b01610e98565b97505060206112518a828b01610eb0565b96505060c06112628a828b01610ece565b9550506101406112748a828b01611203565b9450506101606112868a828b01611203565b93505061018088013567ffffffffffffffff8111156112a8576112a7610e4e565b5b6112b48a828b01610ef8565b925092505092959891949750929550565b6112ce816110dc565b82525050565b5f6040820190506112e75f830185610ffe565b6112f460208301846112c5565b9392505050565b61130481610e52565b811461130e575f5ffd5b50565b5f8135905061131f816112fb565b92915050565b5f8160020b9050919050565b61133a81611325565b8114611344575f5ffd5b50565b5f8135905061135581611331565b92915050565b5f5f5f5f610100858703121561137457611373610e4a565b5b5f61138187828801610e98565b945050602061139287828801610eb0565b93505060c06113a387828801611311565b92505060e06113b487828801611347565b91505092959194509250565b5f5f5f5f5f5f61016087890312156113db576113da610e4a565b5b5f6113e889828a01610e98565b96505060206113f989828a01610eb0565b95505060c061140a89828a01611026565b94505061012061141c89828a01611203565b93505061014087013567ffffffffffffffff81111561143e5761143d610e4e565b5b61144a89828a01610ef8565b92509250509295509295509295565b5f81600f0b9050919050565b61146e81611459565b82525050565b5f6040820190506114875f830185610ffe565b6114946020830184611465565b9392505050565b6114a4816111bc565b81146114ae575f5ffd5b50565b5f813590506114bf8161149b565b92915050565b5f5f5f5f5f5f61012087890312156114e0576114df610e4a565b5b5f6114ed89828a01610e98565b96505060206114fe89828a01610eb0565b95505060c061150f89828a016114b1565b94505060e061152089828a016114b1565b93505061010087013567ffffffffffffffff81111561154257611541610e4e565b5b61154e89828a01610ef8565b92509250509295509295509295565b5f8115159050919050565b6115718161155d565b82525050565b6101c082015f82015161158c5f850182611568565b50602082015161159f6020850182611568565b5060408201516115b26040850182611568565b5060608201516115c56060850182611568565b5060808201516115d86080850182611568565b5060a08201516115eb60a0850182611568565b5060c08201516115fe60c0850182611568565b5060e082015161161160e0850182611568565b50610100820151611626610100850182611568565b5061012082015161163b610120850182611568565b50610140820151611650610140850182611568565b50610160820151611665610160850182611568565b5061018082015161167a610180850182611568565b506101a082015161168f6101a0850182611568565b50505050565b5f6101c0820190506116a95f830184611577565b92915050565b5f6116c96116c46116bf84610e52565b6110d3565b610e52565b9050919050565b5f6116da826116af565b9050919050565b5f6116eb826116d0565b9050919050565b6116fb816116e1565b82525050565b5f6020820190506117145f8301846116f2565b92915050565b5f5f5f60e0848603121561173157611730610e4a565b5b5f61173e86828701610e98565b935050602061174f86828701610eb0565b92505060c061176086828701611311565b9150509250925092565b5f5ffd5b5f601f19601f8301169050919050565b7f4e487b71000000000000000000000000000000000000000000000000000000005f52604160045260245ffd5b6117b48261176e565b810181811067ffffffffffffffff821117156117d3576117d261177e565b5b80604052505050565b5f6117e5610e41565b90506117f182826117ab565b919050565b6117ff81610e71565b8114611809575f5ffd5b50565b5f8135905061181a816117f6565b92915050565b6118298161110c565b8114611833575f5ffd5b50565b5f8135905061184481611820565b92915050565b5f61185482610e71565b9050919050565b6118648161184a565b811461186e575f5ffd5b50565b5f8135905061187f8161185b565b92915050565b5f60a0828403121561189a5761189961176a565b5b6118a460a06117dc565b90505f6118b38482850161180c565b5f8301525060206118c68482850161180c565b60208301525060406118da84828501611836565b60408301525060606118ee84828501611347565b606083015250608061190284828501611871565b60808301525092915050565b5f60a0828403121561192357611922610e4a565b5b5f61193084828501611885565b91505092915050565b7f4e487b71000000000000000000000000000000000000000000000000000000005f52601160045260245ffd5b5f611970826111bc565b91507fffffffffffffffffffffffffffffffffffffffffffffffffffffffffffffffff82036119a2576119a1611939565b5b60018201905091905056fea2646970667358221220d630388dba60749a175b3f66540de6a93de596f25792472f597f33e5c1b40b8064736f6c634300081e0033","linkReferences":{}},"methodIdentifiers":{"afterAddLiquidity(address,(address,address,uint24,int24,address),(int24,int24,int256,bytes32),int256,int256,bytes)":"9f063efc","afterDonate(address,(address,address,uint24,int24,address),uint256,uint256,bytes)":"e1b4af69","afterInitialize(address,(address,address,uint24,int24,address),uint160,int24)":"6fe7e6eb","afterRemoveLiquidity(address,(address,address,uint24,int24,address),(int24,int24,int256,bytes32),int256,int256,bytes)":"6c2bbe7e","afterSwap(address,(address,address,uint24,int24,address),(bool,int256,uint160),int256,bytes)":"b47b2fb1","afterSwapCount(bytes32)":"dacdbe77","beforeAddLiquidity(address,(address,address,uint24,int24,address),(int24,int24,int256,bytes32),bytes)":"259982e5","beforeAddLiquidityCount(bytes32)":"c6939957","beforeDonate(address,(address,address,uint24,int24,address),uint256,uint256,bytes)":"b6a8b0fa","beforeInitialize(address,(address,address,uint24,int24,address),uint160)":"dc98354e","beforeRemoveLiquidity(address,(address,address,uint24,int24,address),(int24,int24,int256,bytes32),bytes)":"21d0ee70","beforeRemoveLiquidityCount(bytes32)":"db6a9451","beforeSwap(address,(address,address,uint24,int24,address),(bool,int256,uint160),bytes)":"575e24b4","beforeSwapCount(bytes32)":"5c338d32","getHookPermissions()":"c4e833ce","poolManager()":"dc4c90d3"},"id":91}