{"abi":[{"type":"constructor","inputs":[{"name":"_poolManager","type":"address","internalType":"contract IPoolManager"}],"stateMutability":"nonpayable"},{"type":"function","name":"_quoteExactInput","inputs":[{"name":"params","type":"tuple","internalType":"struct IV4Quoter.QuoteExactParams","components":[{"name":"exactCurrency","type":"address","internalType":"Currency"},{"name":"path","type":"tuple[]","internalType":"struct PathKey[]","components":[{"name":"intermediateCurrency","type":"address","internalType":"Currency"},{"name":"fee","type":"uint24","internalType":"uint24"},{"name":"tickSpacing","type":"int24","internalType":"int24"},{"name":"hooks","type":"address","internalType":"contract IHooks"},{"name":"hookData","type":"bytes","internalType":"bytes"}]},{"name":"exactAmount","type":"uint128","internalType":"uint128"}]}],"outputs":[{"name":"","type":"bytes","internalType":"bytes"}],"stateMutability":"nonpayable"},{"type":"function","name":"_quoteExactInputSingle","inputs":[{"name":"params","type":"tuple","internalType":"struct IV4Quoter.QuoteExactSingleParams","components":[{"name":"poolKey","type":"tuple","internalType":"struct PoolKey","components":[{"name":"currency0","type":"address","internalType":"Currency"},{"name":"currency1","type":"address","internalType":"Currency"},{"name":"fee","type":"uint24","internalType":"uint24"},{"name":"tickSpacing","type":"int24","internalType":"int24"},{"name":"hooks","type":"address","internalType":"contract IHooks"}]},{"name":"zeroForOne","type":"bool","internalType":"bool"},{"name":"exactAmount","type":"uint128","internalType":"uint128"},{"name":"hookData","type":"bytes","internalType":"bytes"}]}],"outputs":[{"name":"","type":"bytes","internalType":"bytes"}],"stateMutability":"nonpayable"},{"type":"function","name":"_quoteExactOutput","inputs":[{"name":"params","type":"tuple","internalType":"struct IV4Quoter.QuoteExactParams","components":[{"name":"exactCurrency","type":"address","internalType":"Currency"},{"name":"path","type":"tuple[]","internalType":"struct PathKey[]","components":[{"name":"intermediateCurrency","type":"address","internalType":"Currency"},{"name":"fee","type":"uint24","internalType":"uint24"},{"name":"tickSpacing","type":"int24","internalType":"int24"},{"name":"hooks","type":"address","internalType":"contract IHooks"},{"name":"hookData","type":"bytes","internalType":"bytes"}]},{"name":"exactAmount","type":"uint128","internalType":"uint128"}]}],"outputs":[{"name":"","type":"bytes","internalType":"bytes"}],"stateMutability":"nonpayable"},{"type":"function","name":"_quoteExactOutputSingle","inputs":[{"name":"params","type":"tuple","internalType":"struct IV4Quoter.QuoteExactSingleParams","components":[{"name":"poolKey","type":"tuple","internalType":"struct PoolKey","components":[{"name":"currency0","type":"address","internalType":"Currency"},{"name":"currency1","type":"address","internalType":"Currency"},{"name":"fee","type":"uint24","internalType":"uint24"},{"name":"tickSpacing","type":"int24","internalType":"int24"},{"name":"hooks","type":"address","internalType":"contract IHooks"}]},{"name":"zeroForOne","type":"bool","internalType":"bool"},{"name":"exactAmount","type":"uint128","internalType":"uint128"},{"name":"hookData","type":"bytes","internalType":"bytes"}]}],"outputs":[{"name":"","type":"bytes","internalType":"bytes"}],"stateMutability":"nonpayable"},{"type":"function","name":"msgSender","inputs":[],"outputs":[{"name":"","type":"address","internalType":"address"}],"stateMutability":"view"},{"type":"function","name":"poolManager","inputs":[],"outputs":[{"name":"","type":"address","internalType":"contract IPoolManager"}],"stateMutability":"view"},{"type":"function","name":"quoteExactInput","inputs":[{"name":"params","type":"tuple","internalType":"struct IV4Quoter.QuoteExactParams","components":[{"name":"exactCurrency","type":"address","internalType":"Currency"},{"name":"path","type":"tuple[]","internalType":"struct PathKey[]","components":[{"name":"intermediateCurrency","type":"address","internalType":"Currency"},{"name":"fee","type":"uint24","internalType":"uint24"},{"name":"tickSpacing","type":"int24","internalType":"int24"},{"name":"hooks","type":"address","internalType":"contract IHooks"},{"name":"hookData","type":"bytes","internalType":"bytes"}]},{"name":"exactAmount","type":"uint128","internalType":"uint128"}]}],"outputs":[{"name":"amountOut","type":"uint256","internalType":"uint256"},{"name":"gasEstimate","type":"uint256","internalType":"uint256"}],"stateMutability":"nonpayable"},{"type":"function","name":"quoteExactInputSingle","inputs":[{"name":"params","type":"tuple","internalType":"struct IV4Quoter.QuoteExactSingleParams","components":[{"name":"poolKey","type":"tuple","internalType":"struct PoolKey","components":[{"name":"currency0","type":"address","internalType":"Currency"},{"name":"currency1","type":"address","internalType":"Currency"},{"name":"fee","type":"uint24","internalType":"uint24"},{"name":"tickSpacing","type":"int24","internalType":"int24"},{"name":"hooks","type":"address","internalType":"contract IHooks"}]},{"name":"zeroForOne","type":"bool","internalType":"bool"},{"name":"exactAmount","type":"uint128","internalType":"uint128"},{"name":"hookData","type":"bytes","internalType":"bytes"}]}],"outputs":[{"name":"amountOut","type":"uint256","internalType":"uint256"},{"name":"gasEstimate","type":"uint256","internalType":"uint256"}],"stateMutability":"nonpayable"},{"type":"function","name":"quoteExactOutput","inputs":[{"name":"params","type":"tuple","internalType":"struct IV4Quoter.QuoteExactParams","components":[{"name":"exactCurrency","type":"address","internalType":"Currency"},{"name":"path","type":"tuple[]","internalType":"struct PathKey[]","components":[{"name":"intermediateCurrency","type":"address","internalType":"Currency"},{"name":"fee","type":"uint24","internalType":"uint24"},{"name":"tickSpacing","type":"int24","internalType":"int24"},{"name":"hooks","type":"address","internalType":"contract IHooks"},{"name":"hookData","type":"bytes","internalType":"bytes"}]},{"name":"exactAmount","type":"uint128","internalType":"uint128"}]}],"outputs":[{"name":"amountIn","type":"uint256","internalType":"uint256"},{"name":"gasEstimate","type":"uint256","internalType":"uint256"}],"stateMutability":"nonpayable"},{"type":"function","name":"quoteExactOutputSingle","inputs":[{"name":"params","type":"tuple","internalType":"struct IV4Quoter.QuoteExactSingleParams","components":[{"name":"poolKey","type":"tuple","internalType":"struct PoolKey","components":[{"name":"currency0","type":"address","internalType":"Currency"},{"name":"currency1","type":"address","internalType":"Currency"},{"name":"fee","type":"uint24","internalType":"uint24"},{"name":"tickSpacing","type":"int24","internalType":"int24"},{"name":"hooks","type":"address","internalType":"contract IHooks"}]},{"name":"zeroForOne","type":"bool","internalType":"bool"},{"name":"exactAmount","type":"uint128","internalType":"uint128"},{"name":"hookData","type":"bytes","internalType":"bytes"}]}],"outputs":[{"name":"amountIn","type":"uint256","internalType":"uint256"},{"name":"gasEstimate","type":"uint256","internalType":"uint256"}],"stateMutability":"nonpayable"},{"type":"function","name":"unlockCallback","inputs":[{"name":"data","type":"bytes","internalType":"bytes"}],"outputs":[{"name":"","type":"bytes","internalType":"bytes"}],"stateMutability":"nonpayable"},{"type":"error","name":"NotEnoughLiquidity","inputs":[{"name":"poolId","type":"bytes32","internalType":"PoolId"}]},{"type":"error","name":"NotPoolManager","inputs":[]},{"type":"error","name":"NotSelf","inputs":[]},{"type":"error","name":"QuoteSwap","inputs":[{"name":"amount","type":"uint256","internalType":"uint256"}]},{"type":"error","name":"UnexpectedCallSuccess","inputs":[]},{"type":"error","name":"UnexpectedRevertBytes","inputs":[{"name":"revertData","type":"bytes","internalType":"bytes"}]}],"bytecode":{"object":"0x60a060405234801561000f575f5ffd5b5060405161296b38038061296b833981810160405281019061003191906100e0565b8080808073ffffffffffffffffffffffffffffffffffffffff1660808173ffffffffffffffffffffffffffffffffffffffff16815250505050505061010b565b5f5ffd5b5f73ffffffffffffffffffffffffffffffffffffffff82169050919050565b5f61009e82610075565b9050919050565b5f6100af82610094565b9050919050565b6100bf816100a5565b81146100c9575f5ffd5b50565b5f815190506100da816100b6565b92915050565b5f602082840312156100f5576100f4610071565b5b5f610102848285016100cc565b91505092915050565b60805161281e61014d5f395f81816102ac015281816104240152818161085701528181610abd01528181610c3501528181610dac0152610fb0015261281e5ff3fe608060405234801561000f575f5ffd5b50600436106100a7575f3560e01c8063aa2f15011161006f578063aa2f15011461019d578063aa9d21cb146101cd578063ca253dc9146101fe578063d737d0c71461022f578063dc4c90d31461024d578063eebe0c6a1461026b576100a7565b8063147d2af9146100ab57806358733073146100dc578063595323f51461010d5780636a36a38c1461013d57806391dd73461461016d575b5f5ffd5b6100c560048036038101906100c09190611914565b61029b565b6040516100d3929190611973565b60405180910390f35b6100f660048036038101906100f19190611aea565b610413565b604051610104929190611973565b60405180910390f35b61012760048036038101906101229190611b54565b61058b565b6040516101349190611bfb565b60405180910390f35b61015760048036038101906101529190611c39565b6106be565b6040516101649190611bfb565b60405180910390f35b61018760048036038101906101829190611cd9565b610853565b6040516101949190611bfb565b60405180910390f35b6101b760048036038101906101b29190611c39565b6108ec565b6040516101c49190611bfb565b60405180910390f35b6101e760048036038101906101e29190611aea565b610aac565b6040516101f5929190611973565b60405180910390f35b61021860048036038101906102139190611914565b610c24565b604051610226929190611973565b60405180910390f35b610237610d9c565b6040516102449190611d33565b60405180910390f35b610255610daa565b6040516102629190611da7565b60405180910390f35b61028560048036038101906102809190611b54565b610dce565b6040516102929190611bfb565b60405180910390f35b5f5f6102a633610ee9565b5f5a90507f000000000000000000000000000000000000000000000000000000000000000073ffffffffffffffffffffffffffffffffffffffff166348c894913073ffffffffffffffffffffffffffffffffffffffff1663aa2f1501876040516024016103139190611ff0565b604051602081830303815290604052915060e01b6020820180517bffffffffffffffffffffffffffffffffffffffffffffffffffffffff83818316178352505050506040518263ffffffff1660e01b81526004016103719190611bfb565b5f604051808303815f875af19250505080156103af57506040513d5f823e3d601f19601f820116820180604052508101906103ac919061207e565b60015b610402573d805f81146103dd576040519150601f19603f3d011682016040523d82523d5f602084013e6103e2565b606091505b505a826103ef91906120f2565b92506103fa81610f0f565b935050610404565b505b5061040e5f610ee9565b915091565b5f5f61041e33610ee9565b5f5a90507f000000000000000000000000000000000000000000000000000000000000000073ffffffffffffffffffffffffffffffffffffffff166348c894913073ffffffffffffffffffffffffffffffffffffffff1663595323f58760405160240161048b91906121fb565b604051602081830303815290604052915060e01b6020820180517bffffffffffffffffffffffffffffffffffffffffffffffffffffffff83818316178352505050506040518263ffffffff1660e01b81526004016104e99190611bfb565b5f604051808303815f875af192505050801561052757506040513d5f823e3d601f19601f82011682018060405250810190610524919061207e565b60015b61057a573d805f8114610555576040519150601f19603f3d011682016040523d82523d5f602084013e61055a565b606091505b505a8261056791906120f2565b925061057281610f0f565b93505061057c565b505b506105865f610ee9565b915091565b60603073ffffffffffffffffffffffffffffffffffffffff163373ffffffffffffffffffffffffffffffffffffffff16146105f2576040517f29c3b7ee00000000000000000000000000000000000000000000000000000000815260040160405180910390fd5b5f610656835f01803603810190610609919061221b565b8460a001602081019061061c9190612246565b8560c001602081019061062f9190612271565b6fffffffffffffffffffffffffffffffff16868060e0019061065191906122a8565b610fad565b90505f8360a001602081019061066c9190612246565b610687576106798261113f565b61068290612316565b61069a565b6106908261114b565b61069990612316565b5b6fffffffffffffffffffffffffffffffff1690506106b781611157565b5050919050565b60603073ffffffffffffffffffffffffffffffffffffffff163373ffffffffffffffffffffffffffffffffffffffff1614610725576040517f29c3b7ee00000000000000000000000000000000000000000000000000000000815260040160405180910390fd5b5f828060200190610736919061235c565b905090505f5f84604001602081019061074f9190612271565b90505f855f01602081019061076491906123be565b9050365f5f90505b8581101561082d57878060200190610784919061235c565b82818110610795576107946123e9565b5b90506020028101906107a79190612416565b91505f5f6107be858561119490919063ffffffff16565b915091506107e9828288600f0b6107d490612446565b8780608001906107e491906122a8565b610fad565b9650806107fe576107f98761114b565b610808565b6108078761113f565b5b9550835f01602081019061081c91906123be565b94505050808060010191505061076c565b50610849836fffffffffffffffffffffffffffffffff16611157565b5050505050919050565b60607f000000000000000000000000000000000000000000000000000000000000000073ffffffffffffffffffffffffffffffffffffffff163373ffffffffffffffffffffffffffffffffffffffff16146108da576040517fae18210a00000000000000000000000000000000000000000000000000000000815260040160405180910390fd5b6108e4838361128f565b905092915050565b60603073ffffffffffffffffffffffffffffffffffffffff163373ffffffffffffffffffffffffffffffffffffffff1614610953576040517f29c3b7ee00000000000000000000000000000000000000000000000000000000815260040160405180910390fd5b5f828060200190610964919061235c565b905090505f5f84604001602081019061097d9190612271565b90505f855f01602081019061099291906123be565b9050365f8590505b5f811115610a86578780602001906109b2919061235c565b6001836109bf91906120f2565b8181106109cf576109ce6123e9565b5b90506020028101906109e19190612416565b91505f5f6109f8858561119490919063ffffffff16565b91509150610a2a828215886fffffffffffffffffffffffffffffffff16878060800190610a2591906122a8565b610fad565b965080610a4857610a3a8761114b565b610a4390612316565b610a5b565b610a518761113f565b610a5a90612316565b5b9550835f016020810190610a6f91906123be565b945050508080610a7e9061248c565b91505061099a565b50610aa2836fffffffffffffffffffffffffffffffff16611157565b5050505050919050565b5f5f610ab733610ee9565b5f5a90507f000000000000000000000000000000000000000000000000000000000000000073ffffffffffffffffffffffffffffffffffffffff166348c894913073ffffffffffffffffffffffffffffffffffffffff1663eebe0c6a87604051602401610b2491906121fb565b604051602081830303815290604052915060e01b6020820180517bffffffffffffffffffffffffffffffffffffffffffffffffffffffff83818316178352505050506040518263ffffffff1660e01b8152600401610b829190611bfb565b5f604051808303815f875af1925050508015610bc057506040513d5f823e3d601f19601f82011682018060405250810190610bbd919061207e565b60015b610c13573d805f8114610bee576040519150601f19603f3d011682016040523d82523d5f602084013e610bf3565b606091505b505a82610c0091906120f2565b9250610c0b81610f0f565b935050610c15565b505b50610c1f5f610ee9565b915091565b5f5f610c2f33610ee9565b5f5a90507f000000000000000000000000000000000000000000000000000000000000000073ffffffffffffffffffffffffffffffffffffffff166348c894913073ffffffffffffffffffffffffffffffffffffffff16636a36a38c87604051602401610c9c9190611ff0565b604051602081830303815290604052915060e01b6020820180517bffffffffffffffffffffffffffffffffffffffffffffffffffffffff83818316178352505050506040518263ffffffff1660e01b8152600401610cfa9190611bfb565b5f604051808303815f875af1925050508015610d3857506040513d5f823e3d601f19601f82011682018060405250810190610d35919061207e565b60015b610d8b573d805f8114610d66576040519150601f19603f3d011682016040523d82523d5f602084013e610d6b565b606091505b505a82610d7891906120f2565b9250610d8381610f0f565b935050610d8d565b505b50610d975f610ee9565b915091565b5f610da5611346565b905090565b7f000000000000000000000000000000000000000000000000000000000000000081565b60603073ffffffffffffffffffffffffffffffffffffffff163373ffffffffffffffffffffffffffffffffffffffff1614610e35576040517f29c3b7ee00000000000000000000000000000000000000000000000000000000815260040160405180910390fd5b5f610e93835f01803603810190610e4c919061221b565b8460a0016020810190610e5f9190612246565b8560c0016020810190610e729190612271565b600f0b610e7e90612446565b868060e00190610e8e91906122a8565b610fad565b90505f8360a0016020810190610ea99190612246565b610ebb57610eb68261114b565b610ec5565b610ec48261113f565b5b6fffffffffffffffffffffffffffffffff169050610ee281611157565b5050919050565b807f0aedd6bde10e3aa2adec092b02a3e3e805795516cda41f27aa145b8f300af87a5d50565b5f63ecbd980460e01b7bffffffffffffffffffffffffffffffffffffffffffffffffffffffff1916610f408361136e565b7bffffffffffffffffffffffffffffffffffffffffffffffffffffffff191614610fa157816040517f6190b2b0000000000000000000000000000000000000000000000000000000008152600401610f989190611bfb565b60405180910390fd5b60248201519050919050565b5f7f000000000000000000000000000000000000000000000000000000000000000073ffffffffffffffffffffffffffffffffffffffff1663f3cd914c87604051806060016040528089151581526020018881526020018961102f57600173fffd8963efd1fc6a506488495d951d5263988d2661102a91906124b3565b611042565b60016401000276a361104191906124fa565b5b73ffffffffffffffffffffffffffffffffffffffff1681525086866040518563ffffffff1660e01b815260040161107c9493929190612631565b6020604051808303815f875af1158015611098573d5f5f3e3d5ffd5b505050506040513d601f19601f820116820180604052508101906110bc919061269b565b90505f5f85121515861515146110da576110d58261113f565b6110e4565b6110e38261114b565b5b90508481600f0b14611135576110f98761137b565b6040517f7a5ed73400000000000000000000000000000000000000000000000000000000815260040161112c91906126ef565b60405180910390fd5b5095945050505050565b5f81600f0b9050919050565b5f8160801d9050919050565b806040517fecbd980400000000000000000000000000000000000000000000000000000000815260040161118b9190612708565b60405180910390fd5b61119c6113ff565b5f5f845f0160208101906111b091906123be565b90505f5f6111be8684611387565b6111c95782866111cc565b85835b915091506111da86836113bf565b93506040518060a001604052808373ffffffffffffffffffffffffffffffffffffffff1681526020018273ffffffffffffffffffffffffffffffffffffffff1681526020018860200160208101906112329190612721565b62ffffff16815260200188604001602081019061124f919061274c565b60020b815260200188606001602081019061126a9190612777565b73ffffffffffffffffffffffffffffffffffffffff1681525094505050509250929050565b60605f5f3073ffffffffffffffffffffffffffffffffffffffff1685856040516112ba9291906127d0565b5f604051808303815f865af19150503d805f81146112f3576040519150601f19603f3d011682016040523d82523d5f602084013e6112f8565b606091505b50915091508115611335576040517fe0752a5a00000000000000000000000000000000000000000000000000000000815260040160405180910390fd5b61133e816113f7565b505092915050565b5f7f0aedd6bde10e3aa2adec092b02a3e3e805795516cda41f27aa145b8f300af87a5c905090565b5f60208201519050919050565b5f60a082209050919050565b5f8173ffffffffffffffffffffffffffffffffffffffff168373ffffffffffffffffffffffffffffffffffffffff1610905092915050565b5f8173ffffffffffffffffffffffffffffffffffffffff168373ffffffffffffffffffffffffffffffffffffffff1614905092915050565b805160208201fd5b6040518060a001604052805f73ffffffffffffffffffffffffffffffffffffffff1681526020015f73ffffffffffffffffffffffffffffffffffffffff1681526020015f62ffffff1681526020015f60020b81526020015f73ffffffffffffffffffffffffffffffffffffffff1681525090565b5f604051905090565b5f5ffd5b5f5ffd5b5f5ffd5b5f601f19601f8301169050919050565b7f4e487b71000000000000000000000000000000000000000000000000000000005f52604160045260245ffd5b6114ce82611488565b810181811067ffffffffffffffff821117156114ed576114ec611498565b5b80604052505050565b5f6114ff611473565b905061150b82826114c5565b919050565b5f5ffd5b5f73ffffffffffffffffffffffffffffffffffffffff82169050919050565b5f61153d82611514565b9050919050565b61154d81611533565b8114611557575f5ffd5b50565b5f8135905061156881611544565b92915050565b5f5ffd5b5f67ffffffffffffffff82111561158c5761158b611498565b5b602082029050602081019050919050565b5f5ffd5b5f62ffffff82169050919050565b6115b8816115a1565b81146115c2575f5ffd5b50565b5f813590506115d3816115af565b92915050565b5f8160020b9050919050565b6115ee816115d9565b81146115f8575f5ffd5b50565b5f81359050611609816115e5565b92915050565b5f61161982611533565b9050919050565b6116298161160f565b8114611633575f5ffd5b50565b5f8135905061164481611620565b92915050565b5f5ffd5b5f67ffffffffffffffff82111561166857611667611498565b5b61167182611488565b9050602081019050919050565b828183375f83830152505050565b5f61169e6116998461164e565b6114f6565b9050828152602081018484840111156116ba576116b961164a565b5b6116c584828561167e565b509392505050565b5f82601f8301126116e1576116e061156e565b5b81356116f184826020860161168c565b91505092915050565b5f60a0828403121561170f5761170e611484565b5b61171960a06114f6565b90505f6117288482850161155a565b5f83015250602061173b848285016115c5565b602083015250604061174f848285016115fb565b604083015250606061176384828501611636565b606083015250608082013567ffffffffffffffff81111561178757611786611510565b5b611793848285016116cd565b60808301525092915050565b5f6117b16117ac84611572565b6114f6565b905080838252602082019050602084028301858111156117d4576117d361159d565b5b835b8181101561181b57803567ffffffffffffffff8111156117f9576117f861156e565b5b80860161180689826116fa565b855260208501945050506020810190506117d6565b5050509392505050565b5f82601f8301126118395761183861156e565b5b813561184984826020860161179f565b91505092915050565b5f6fffffffffffffffffffffffffffffffff82169050919050565b61187681611852565b8114611880575f5ffd5b50565b5f813590506118918161186d565b92915050565b5f606082840312156118ac576118ab611484565b5b6118b660606114f6565b90505f6118c58482850161155a565b5f83015250602082013567ffffffffffffffff8111156118e8576118e7611510565b5b6118f484828501611825565b602083015250604061190884828501611883565b60408301525092915050565b5f602082840312156119295761192861147c565b5b5f82013567ffffffffffffffff81111561194657611945611480565b5b61195284828501611897565b91505092915050565b5f819050919050565b61196d8161195b565b82525050565b5f6040820190506119865f830185611964565b6119936020830184611964565b9392505050565b5f60a082840312156119af576119ae611484565b5b6119b960a06114f6565b90505f6119c88482850161155a565b5f8301525060206119db8482850161155a565b60208301525060406119ef848285016115c5565b6040830152506060611a03848285016115fb565b6060830152506080611a1784828501611636565b60808301525092915050565b5f8115159050919050565b611a3781611a23565b8114611a41575f5ffd5b50565b5f81359050611a5281611a2e565b92915050565b5f6101008284031215611a6e57611a6d611484565b5b611a7860806114f6565b90505f611a878482850161199a565b5f8301525060a0611a9a84828501611a44565b60208301525060c0611aae84828501611883565b60408301525060e082013567ffffffffffffffff811115611ad257611ad1611510565b5b611ade848285016116cd565b60608301525092915050565b5f60208284031215611aff57611afe61147c565b5b5f82013567ffffffffffffffff811115611b1c57611b1b611480565b5b611b2884828501611a58565b91505092915050565b5f5ffd5b5f6101008284031215611b4b57611b4a611b31565b5b81905092915050565b5f60208284031215611b6957611b6861147c565b5b5f82013567ffffffffffffffff811115611b8657611b85611480565b5b611b9284828501611b35565b91505092915050565b5f81519050919050565b5f82825260208201905092915050565b8281835e5f83830152505050565b5f611bcd82611b9b565b611bd78185611ba5565b9350611be7818560208601611bb5565b611bf081611488565b840191505092915050565b5f6020820190508181035f830152611c138184611bc3565b905092915050565b5f60608284031215611c3057611c2f611b31565b5b81905092915050565b5f60208284031215611c4e57611c4d61147c565b5b5f82013567ffffffffffffffff811115611c6b57611c6a611480565b5b611c7784828501611c1b565b91505092915050565b5f5ffd5b5f5f83601f840112611c9957611c9861156e565b5b8235905067ffffffffffffffff811115611cb657611cb5611c80565b5b602083019150836001820283011115611cd257611cd161159d565b5b9250929050565b5f5f60208385031215611cef57611cee61147c565b5b5f83013567ffffffffffffffff811115611d0c57611d0b611480565b5b611d1885828601611c84565b92509250509250929050565b611d2d81611533565b82525050565b5f602082019050611d465f830184611d24565b92915050565b5f819050919050565b5f611d6f611d6a611d6584611514565b611d4c565b611514565b9050919050565b5f611d8082611d55565b9050919050565b5f611d9182611d76565b9050919050565b611da181611d87565b82525050565b5f602082019050611dba5f830184611d98565b92915050565b5f611dca82611d76565b9050919050565b611dda81611dc0565b82525050565b5f81519050919050565b5f82825260208201905092915050565b5f819050602082019050919050565b611e12816115a1565b82525050565b611e21816115d9565b82525050565b5f611e3182611d76565b9050919050565b611e4181611e27565b82525050565b5f82825260208201905092915050565b5f611e6182611b9b565b611e6b8185611e47565b9350611e7b818560208601611bb5565b611e8481611488565b840191505092915050565b5f60a083015f830151611ea45f860182611dd1565b506020830151611eb76020860182611e09565b506040830151611eca6040860182611e18565b506060830151611edd6060860182611e38565b5060808301518482036080860152611ef58282611e57565b9150508091505092915050565b5f611f0d8383611e8f565b905092915050565b5f602082019050919050565b5f611f2b82611de0565b611f358185611dea565b935083602082028501611f4785611dfa565b805f5b85811015611f825784840389528151611f638582611f02565b9450611f6e83611f15565b925060208a01995050600181019050611f4a565b50829750879550505050505092915050565b611f9d81611852565b82525050565b5f606083015f830151611fb85f860182611dd1565b5060208301518482036020860152611fd08282611f21565b9150506040830151611fe56040860182611f94565b508091505092915050565b5f6020820190508181035f8301526120088184611fa3565b905092915050565b5f61202261201d8461164e565b6114f6565b90508281526020810184848401111561203e5761203d61164a565b5b612049848285611bb5565b509392505050565b5f82601f8301126120655761206461156e565b5b8151612075848260208601612010565b91505092915050565b5f602082840312156120935761209261147c565b5b5f82015167ffffffffffffffff8111156120b0576120af611480565b5b6120bc84828501612051565b91505092915050565b7f4e487b71000000000000000000000000000000000000000000000000000000005f52601160045260245ffd5b5f6120fc8261195b565b91506121078361195b565b925082820390508181111561211f5761211e6120c5565b5b92915050565b60a082015f8201516121395f850182611dd1565b50602082015161214c6020850182611dd1565b50604082015161215f6040850182611e09565b5060608201516121726060850182611e18565b5060808201516121856080850182611e38565b50505050565b61219481611a23565b82525050565b5f61010083015f8301516121b05f860182612125565b5060208301516121c360a086018261218b565b5060408301516121d660c0860182611f94565b50606083015184820360e08601526121ee8282611e57565b9150508091505092915050565b5f6020820190508181035f830152612213818461219a565b905092915050565b5f60a082840312156122305761222f61147c565b5b5f61223d8482850161199a565b91505092915050565b5f6020828403121561225b5761225a61147c565b5b5f61226884828501611a44565b91505092915050565b5f602082840312156122865761228561147c565b5b5f61229384828501611883565b91505092915050565b5f5ffd5b5f5ffd5b5f5ffd5b5f5f833560016020038436030381126122c4576122c361229c565b5b80840192508235915067ffffffffffffffff8211156122e6576122e56122a0565b5b602083019250600182023603831315612302576123016122a4565b5b509250929050565b5f81600f0b9050919050565b5f6123208261230a565b91507fffffffffffffffffffffffffffffffff800000000000000000000000000000008203612352576123516120c5565b5b815f039050919050565b5f5f833560016020038436030381126123785761237761229c565b5b80840192508235915067ffffffffffffffff82111561239a576123996122a0565b5b6020830192506020820236038313156123b6576123b56122a4565b5b509250929050565b5f602082840312156123d3576123d261147c565b5b5f6123e08482850161155a565b91505092915050565b7f4e487b71000000000000000000000000000000000000000000000000000000005f52603260045260245ffd5b5f8235600160a0038336030381126124315761243061229c565b5b80830191505092915050565b5f819050919050565b5f6124508261243d565b91507f80000000000000000000000000000000000000000000000000000000000000008203612482576124816120c5565b5b815f039050919050565b5f6124968261195b565b91505f82036124a8576124a76120c5565b5b600182039050919050565b5f6124bd82611514565b91506124c883611514565b9250828203905073ffffffffffffffffffffffffffffffffffffffff8111156124f4576124f36120c5565b5b92915050565b5f61250482611514565b915061250f83611514565b9250828201905073ffffffffffffffffffffffffffffffffffffffff81111561253b5761253a6120c5565b5b92915050565b60a082015f8201516125555f850182611dd1565b5060208201516125686020850182611dd1565b50604082015161257b6040850182611e09565b50606082015161258e6060850182611e18565b5060808201516125a16080850182611e38565b50505050565b6125b08161243d565b82525050565b6125bf81611514565b82525050565b606082015f8201516125d95f85018261218b565b5060208201516125ec60208501826125a7565b5060408201516125ff60408501826125b6565b50505050565b5f6126108385611ba5565b935061261d83858461167e565b61262683611488565b840190509392505050565b5f610120820190506126455f830187612541565b61265260a08301866125c5565b818103610100830152612666818486612605565b905095945050505050565b61267a8161243d565b8114612684575f5ffd5b50565b5f8151905061269581612671565b92915050565b5f602082840312156126b0576126af61147c565b5b5f6126bd84828501612687565b91505092915050565b5f819050919050565b5f6126d9826126c6565b9050919050565b6126e9816126cf565b82525050565b5f6020820190506127025f8301846126e0565b92915050565b5f60208201905061271b5f830184611964565b92915050565b5f602082840312156127365761273561147c565b5b5f612743848285016115c5565b91505092915050565b5f602082840312156127615761276061147c565b5b5f61276e848285016115fb565b91505092915050565b5f6020828403121561278c5761278b61147c565b5b5f61279984828501611636565b91505092915050565b5f81905092915050565b5f6127b783856127a2565b93506127c483858461167e565b82840190509392505050565b5f6127dc8284866127ac565b9150819050939250505056fea2646970667358221220489c30a810617f00d5b6a3ca8b5c562981d976c5a13c3b35f70e78d5783134ba64736f6c634300081e0033","linkReferences":{}},"methodIdentifiers":{"_quoteExactInput((address,(address,uint24,int24,address,bytes)[],uint128))":"6a36a38c","_quoteExactInputSingle(((address,address,uint24,int24,address),bool,uint128,bytes))":"eebe0c6a","_quoteExactOutput((address,(address,uint24,int24,address,bytes)[],uint128))":"aa2f1501","_quoteExactOutputSingle(((address,address,uint24,int24,address),bool,uint128,bytes))":"595323f5","msgSender()":"d737d0c7","poolManager()":"dc4c90d3","quoteExactInput((address,(address,uint24,int24,address,bytes)[],uint128))":"ca253dc9","quoteExactInputSingle(((address,address,uint24,int24,address),bool,uint128,bytes))":"aa9d21cb","quoteExactOutput((address,(address,uint24,int24,address,bytes)[],uint128))":"147d2af9","quoteExactOutputSingle(((address,address,uint24,int24,address),bool,uint128,bytes))":"58733073","unlockCallback(bytes)":"91dd7346"},"id":97}