{"abi":[{"type":"function","name":"FEE_GROWTH_GLOBAL0_OFFSET","inputs":[],"outputs":[{"name":"","type":"uint256","internalType":"uint256"}],"stateMutability":"view"},{"type":"function","name":"LIQUIDITY_OFFSET","inputs":[],"outputs":[{"name":"","type":"uint256","internalType":"uint256"}],"stateMutability":"view"},{"type":"function","name":"POOLS_SLOT","inputs":[],"outputs":[{"name":"","type":"bytes32","internalType":"bytes32"}],"stateMutability":"view"},{"type":"function","name":"POSITIONS_OFFSET","inputs":[],"outputs":[{"name":"","type":"uint256","internalType":"uint256"}],"stateMutability":"view"},{"type":"function","name":"TICKS_OFFSET","inputs":[],"outputs":[{"name":"","type":"uint256","internalType":"uint256"}],"stateMutability":"view"},{"type":"function","name":"TICK_BITMAP_OFFSET","inputs":[],"outputs":[{"name":"","type":"uint256","internalType":"uint256"}],"stateMutability":"view"}],"bytecode":{"object":"0x6101db61004d600b8282823980515f1a6073146041577f4e487b71000000000000000000000000000000000000000000000000000000005f525f60045260245ffd5b305f52607381538281f3fe730000000000000000000000000000000000000000301460806040526004361061006b575f3560e01c80632ba31c531461006f57806357eb1da71461008d578063769323e3146100ab5780637d35604a146100c9578063b432004a146100e7578063ca24e3b514610105575b5f5ffd5b610077610123565b604051610084919061015b565b60405180910390f35b610095610128565b6040516100a2919061018c565b60405180910390f35b6100b361012f565b6040516100c0919061015b565b60405180910390f35b6100d1610134565b6040516100de919061015b565b60405180910390f35b6100ef610139565b6040516100fc919061015b565b60405180910390f35b61010d61013e565b60405161011a919061015b565b60405180910390f35b600681565b60065f1b81565b600481565b600581565b600381565b600181565b5f819050919050565b61015581610143565b82525050565b5f60208201905061016e5f83018461014c565b92915050565b5f819050919050565b61018681610174565b82525050565b5f60208201905061019f5f83018461017d565b9291505056fea26469706673582212204fb9726f4ac44759786b1bf044957ca445bd065b1c76711c740f3048de66a5a464736f6c634300081e0033","linkReferences":{}},"methodIdentifiers":{"FEE_GROWTH_GLOBAL0_OFFSET()":"ca24e3b5","LIQUIDITY_OFFSET()":"b432004a","POOLS_SLOT()":"57eb1da7","POSITIONS_OFFSET()":"2ba31c53","TICKS_OFFSET()":"769323e3","TICK_BITMAP_OFFSET()":"7d35604a"},"id":60}