{"abi":[{"type":"constructor","inputs":[{"name":"_manager","type":"address","internalType":"contract IPoolManager"}],"stateMutability":"nonpayable"},{"type":"function","name":"manager","inputs":[],"outputs":[{"name":"","type":"address","internalType":"contract IPoolManager"}],"stateMutability":"view"},{"type":"function","name":"take","inputs":[{"name":"key","type":"tuple","internalType":"struct PoolKey","components":[{"name":"currency0","type":"address","internalType":"Currency"},{"name":"currency1","type":"address","internalType":"Currency"},{"name":"fee","type":"uint24","internalType":"uint24"},{"name":"tickSpacing","type":"int24","internalType":"int24"},{"name":"hooks","type":"address","internalType":"contract IHooks"}]},{"name":"amount0","type":"uint256","internalType":"uint256"},{"name":"amount1","type":"uint256","internalType":"uint256"}],"outputs":[],"stateMutability":"payable"},{"type":"function","name":"unlockCallback","inputs":[{"name":"rawData","type":"bytes","internalType":"bytes"}],"outputs":[{"name":"","type":"bytes","internalType":"bytes"}],"stateMutability":"nonpayable"}],"bytecode":{"object":"0x60a060405234801561000f575f5ffd5b50604051611a92380380611a92833981810160405281019061003191906100dc565b808073ffffffffffffffffffffffffffffffffffffffff1660808173ffffffffffffffffffffffffffffffffffffffff16815250505050610107565b5f5ffd5b5f73ffffffffffffffffffffffffffffffffffffffff82169050919050565b5f61009a82610071565b9050919050565b5f6100ab82610090565b9050919050565b6100bb816100a1565b81146100c5575f5ffd5b50565b5f815190506100d6816100b2565b92915050565b5f602082840312156100f1576100f061006d565b5b5f6100fe848285016100c8565b91505092915050565b60805161194a6101485f395f818160bb015281816101b2015281816101d80152818161031001528181610463015281816104eb0152610538015261194a5ff3fe608060405260043610610033575f3560e01c8063055419b614610037578063481c6a751461005357806391dd73461461007d575b5f5ffd5b610051600480360381019061004c9190610e57565b6100b9565b005b34801561005e575f5ffd5b506100676101b0565b6040516100749190610f02565b60405180910390f35b348015610088575f5ffd5b506100a3600480360381019061009e9190610f7c565b6101d4565b6040516100b09190611027565b60405180910390f35b7f000000000000000000000000000000000000000000000000000000000000000073ffffffffffffffffffffffffffffffffffffffff166348c8949160405180608001604052803373ffffffffffffffffffffffffffffffffffffffff1681526020018681526020018581526020018481525060405160200161013c919061117d565b6040516020818303038152906040526040518263ffffffff1660e01b81526004016101679190611027565b5f604051808303815f875af1158015610182573d5f5f3e3d5ffd5b505050506040513d5f823e3d601f19601f820116820180604052508101906101aa9190611239565b50505050565b7f000000000000000000000000000000000000000000000000000000000000000081565b60607f000000000000000000000000000000000000000000000000000000000000000073ffffffffffffffffffffffffffffffffffffffff163373ffffffffffffffffffffffffffffffffffffffff161461022d575f5ffd5b5f838381019061023d9190611320565b90505f816040015111156102655761026481602001515f0151825f015183604001516102b5565b5b5f8160600151111561028c5761028b816020015160200151825f015183606001516102b5565b5b5f60405160200161029d9190611391565b60405160208183030381529060405291505092915050565b5f5f5f6102c38686306104b8565b9250925092505f811461030b576040517f08c379a000000000000000000000000000000000000000000000000000000000815260040161030290611404565b60405180910390fd5b61035a7f000000000000000000000000000000000000000000000000000000000000000086865f8a73ffffffffffffffffffffffffffffffffffffffff1661058790949392919063ffffffff16565b5f5f5f6103688989306104b8565b9250925092506103778761068b565b6103809061145b565b600f0b81146103c4576040517f08c379a00000000000000000000000000000000000000000000000000000000081526004016103bb90611511565b60405180910390fd5b8686846103d1919061152f565b14610411576040517f08c379a0000000000000000000000000000000000000000000000000000000008152600401610408906115f8565b60405180910390fd5b86828661041e919061152f565b1461045e576040517f08c379a0000000000000000000000000000000000000000000000000000000008152600401610455906116ac565b60405180910390fd5b6104ad7f000000000000000000000000000000000000000000000000000000000000000089895f8d73ffffffffffffffffffffffffffffffffffffffff166106db90949392919063ffffffff16565b505050505050505050565b5f5f5f6104e4858773ffffffffffffffffffffffffffffffffffffffff16610a1990919063ffffffff16565b925061052f7f00000000000000000000000000000000000000000000000000000000000000008773ffffffffffffffffffffffffffffffffffffffff16610a1990919063ffffffff16565b915061057c84877f000000000000000000000000000000000000000000000000000000000000000073ffffffffffffffffffffffffffffffffffffffff16610ade9092919063ffffffff16565b905093509350939050565b806105fb578373ffffffffffffffffffffffffffffffffffffffff16630b0d9c098685856040518463ffffffff1660e01b81526004016105c9939291906116f7565b5f604051808303815f87803b1580156105e0575f5ffd5b505af11580156105f2573d5f5f3e3d5ffd5b50505050610684565b8373ffffffffffffffffffffffffffffffffffffffff1663156e29f6846106378873ffffffffffffffffffffffffffffffffffffffff16610b9d565b856040518463ffffffff1660e01b81526004016106569392919061172c565b5f604051808303815f87803b15801561066d575f5ffd5b505af115801561067f573d5f5f3e3d5ffd5b505050505b5050505050565b5f6f8000000000000000000000000000000082106106d3576106d26393dafdf160e01b7bffffffffffffffffffffffffffffffffffffffffffffffffffffffff1916610bbc565b5b819050919050565b801561076e578373ffffffffffffffffffffffffffffffffffffffff1663f5298aca8461071d8873ffffffffffffffffffffffffffffffffffffffff16610b9d565b856040518463ffffffff1660e01b815260040161073c9392919061172c565b5f604051808303815f87803b158015610753575f5ffd5b505af1158015610765573d5f5f3e3d5ffd5b50505050610a12565b61078d8573ffffffffffffffffffffffffffffffffffffffff16610bc4565b15610808578373ffffffffffffffffffffffffffffffffffffffff166311da60b4836040518263ffffffff1660e01b815260040160206040518083038185885af11580156107dd573d5f5f3e3d5ffd5b50505050506040513d601f19601f820116820180604052508101906108029190611775565b50610a11565b8373ffffffffffffffffffffffffffffffffffffffff1663a5841194866040518263ffffffff1660e01b815260040161084191906117a0565b5f604051808303815f87803b158015610858575f5ffd5b505af115801561086a573d5f5f3e3d5ffd5b505050503073ffffffffffffffffffffffffffffffffffffffff168373ffffffffffffffffffffffffffffffffffffffff1614610924578473ffffffffffffffffffffffffffffffffffffffff166323b872dd8486856040518463ffffffff1660e01b81526004016108de939291906117b9565b6020604051808303815f875af11580156108fa573d5f5f3e3d5ffd5b505050506040513d601f19601f8201168201806040525081019061091e9190611823565b506109a1565b8473ffffffffffffffffffffffffffffffffffffffff1663a9059cbb85846040518363ffffffff1660e01b815260040161095f92919061184e565b6020604051808303815f875af115801561097b573d5f5f3e3d5ffd5b505050506040513d601f19601f8201168201806040525081019061099f9190611823565b505b8373ffffffffffffffffffffffffffffffffffffffff166311da60b46040518163ffffffff1660e01b81526004016020604051808303815f875af11580156109eb573d5f5f3e3d5ffd5b505050506040513d601f19601f82011682018060405250810190610a0f9190611775565b505b5b5050505050565b5f610a398373ffffffffffffffffffffffffffffffffffffffff16610bc4565b15610a5d578173ffffffffffffffffffffffffffffffffffffffff16319050610ad8565b8273ffffffffffffffffffffffffffffffffffffffff166370a08231836040518263ffffffff1660e01b8152600401610a969190611875565b602060405180830381865afa158015610ab1573d5f5f3e3d5ffd5b505050506040513d601f19601f82011682018060405250810190610ad59190611775565b90505b92915050565b5f5f73ffffffffffffffffffffffffffffffffffffffff84165f5273ffffffffffffffffffffffffffffffffffffffff831660205260405f2090508473ffffffffffffffffffffffffffffffffffffffff1663f135baaa826040518263ffffffff1660e01b8152600401610b5291906118a6565b602060405180830381865afa158015610b6d573d5f5f3e3d5ffd5b505050506040513d601f19601f82011682018060405250810190610b9191906118e9565b5f1c9150509392505050565b5f8173ffffffffffffffffffffffffffffffffffffffff169050919050565b805f5260045ffd5b5f5f73ffffffffffffffffffffffffffffffffffffffff168273ffffffffffffffffffffffffffffffffffffffff16149050919050565b5f604051905090565b5f5ffd5b5f5ffd5b5f5ffd5b5f601f19601f8301169050919050565b7f4e487b71000000000000000000000000000000000000000000000000000000005f52604160045260245ffd5b610c5682610c10565b810181811067ffffffffffffffff82111715610c7557610c74610c20565b5b80604052505050565b5f610c87610bfb565b9050610c938282610c4d565b919050565b5f73ffffffffffffffffffffffffffffffffffffffff82169050919050565b5f610cc182610c98565b9050919050565b610cd181610cb7565b8114610cdb575f5ffd5b50565b5f81359050610cec81610cc8565b92915050565b5f62ffffff82169050919050565b610d0981610cf2565b8114610d13575f5ffd5b50565b5f81359050610d2481610d00565b92915050565b5f8160020b9050919050565b610d3f81610d2a565b8114610d49575f5ffd5b50565b5f81359050610d5a81610d36565b92915050565b5f610d6a82610cb7565b9050919050565b610d7a81610d60565b8114610d84575f5ffd5b50565b5f81359050610d9581610d71565b92915050565b5f60a08284031215610db057610daf610c0c565b5b610dba60a0610c7e565b90505f610dc984828501610cde565b5f830152506020610ddc84828501610cde565b6020830152506040610df084828501610d16565b6040830152506060610e0484828501610d4c565b6060830152506080610e1884828501610d87565b60808301525092915050565b5f819050919050565b610e3681610e24565b8114610e40575f5ffd5b50565b5f81359050610e5181610e2d565b92915050565b5f5f5f60e08486031215610e6e57610e6d610c04565b5b5f610e7b86828701610d9b565b93505060a0610e8c86828701610e43565b92505060c0610e9d86828701610e43565b9150509250925092565b5f819050919050565b5f610eca610ec5610ec084610c98565b610ea7565b610c98565b9050919050565b5f610edb82610eb0565b9050919050565b5f610eec82610ed1565b9050919050565b610efc81610ee2565b82525050565b5f602082019050610f155f830184610ef3565b92915050565b5f5ffd5b5f5ffd5b5f5ffd5b5f5f83601f840112610f3c57610f3b610f1b565b5b8235905067ffffffffffffffff811115610f5957610f58610f1f565b5b602083019150836001820283011115610f7557610f74610f23565b5b9250929050565b5f5f60208385031215610f9257610f91610c04565b5b5f83013567ffffffffffffffff811115610faf57610fae610c08565b5b610fbb85828601610f27565b92509250509250929050565b5f81519050919050565b5f82825260208201905092915050565b8281835e5f83830152505050565b5f610ff982610fc7565b6110038185610fd1565b9350611013818560208601610fe1565b61101c81610c10565b840191505092915050565b5f6020820190508181035f83015261103f8184610fef565b905092915050565b61105081610cb7565b82525050565b5f61106082610ed1565b9050919050565b61107081611056565b82525050565b61107f81610cf2565b82525050565b61108e81610d2a565b82525050565b5f61109e82610ed1565b9050919050565b6110ae81611094565b82525050565b60a082015f8201516110c85f850182611067565b5060208201516110db6020850182611067565b5060408201516110ee6040850182611076565b5060608201516111016060850182611085565b50608082015161111460808501826110a5565b50505050565b61112381610e24565b82525050565b61010082015f82015161113e5f850182611047565b50602082015161115160208501826110b4565b50604082015161116460c085018261111a565b50606082015161117760e085018261111a565b50505050565b5f610100820190506111915f830184611129565b92915050565b5f5ffd5b5f67ffffffffffffffff8211156111b5576111b4610c20565b5b6111be82610c10565b9050602081019050919050565b5f6111dd6111d88461119b565b610c7e565b9050828152602081018484840111156111f9576111f8611197565b5b611204848285610fe1565b509392505050565b5f82601f8301126112205761121f610f1b565b5b81516112308482602086016111cb565b91505092915050565b5f6020828403121561124e5761124d610c04565b5b5f82015167ffffffffffffffff81111561126b5761126a610c08565b5b6112778482850161120c565b91505092915050565b61128981610cb7565b8114611293575f5ffd5b50565b5f813590506112a481611280565b92915050565b5f61010082840312156112c0576112bf610c0c565b5b6112ca6080610c7e565b90505f6112d984828501611296565b5f8301525060206112ec84828501610d9b565b60208301525060c061130084828501610e43565b60408301525060e061131484828501610e43565b60608301525092915050565b5f610100828403121561133657611335610c04565b5b5f611343848285016112aa565b91505092915050565b5f819050919050565b5f60ff82169050919050565b5f61137b6113766113718461134c565b610ea7565b611355565b9050919050565b61138b81611361565b82525050565b5f6020820190506113a45f830184611382565b92915050565b5f82825260208201905092915050565b7f64656c74614265666f7265206973206e6f7420657175616c20746f20300000005f82015250565b5f6113ee601d836113aa565b91506113f9826113ba565b602082019050919050565b5f6020820190508181035f83015261141b816113e2565b9050919050565b5f81600f0b9050919050565b7f4e487b71000000000000000000000000000000000000000000000000000000005f52601160045260245ffd5b5f61146582611422565b91507fffffffffffffffffffffffffffffffff8000000000000000000000000000000082036114975761149661142e565b5b815f039050919050565b7f64656c74614166746572206973206e6f7420657175616c20746f202d616d6f755f8201527f6e742e746f496e74313238282900000000000000000000000000000000000000602082015250565b5f6114fb602d836113aa565b9150611506826114a1565b604082019050919050565b5f6020820190508181035f830152611528816114ef565b9050919050565b5f61153982610e24565b915061154483610e24565b925082820390508181111561155c5761155b61142e565b5b92915050565b7f74686520646966666572656e6365206265747765656e207573657242616c41665f8201527f74657220616e64207573657242616c4265666f7265206973206e6f742065717560208201527f616c20746f20616d6f756e740000000000000000000000000000000000000000604082015250565b5f6115e2604c836113aa565b91506115ed82611562565b606082019050919050565b5f6020820190508181035f83015261160f816115d6565b9050919050565b7f74686520646966666572656e6365206265747765656e20706d42616c4265666f5f8201527f726520616e6420706d42616c4166746572206973206e6f7420657175616c207460208201527f6f20616d6f756e74000000000000000000000000000000000000000000000000604082015250565b5f6116966048836113aa565b91506116a182611616565b606082019050919050565b5f6020820190508181035f8301526116c38161168a565b9050919050565b6116d381611056565b82525050565b6116e281610cb7565b82525050565b6116f181610e24565b82525050565b5f60608201905061170a5f8301866116ca565b61171760208301856116d9565b61172460408301846116e8565b949350505050565b5f60608201905061173f5f8301866116d9565b61174c60208301856116e8565b61175960408301846116e8565b949350505050565b5f8151905061176f81610e2d565b92915050565b5f6020828403121561178a57611789610c04565b5b5f61179784828501611761565b91505092915050565b5f6020820190506117b35f8301846116ca565b92915050565b5f6060820190506117cc5f8301866116d9565b6117d960208301856116d9565b6117e660408301846116e8565b949350505050565b5f8115159050919050565b611802816117ee565b811461180c575f5ffd5b50565b5f8151905061181d816117f9565b92915050565b5f6020828403121561183857611837610c04565b5b5f6118458482850161180f565b91505092915050565b5f6040820190506118615f8301856116d9565b61186e60208301846116e8565b9392505050565b5f6020820190506118885f8301846116d9565b92915050565b5f819050919050565b6118a08161188e565b82525050565b5f6020820190506118b95f830184611897565b92915050565b6118c88161188e565b81146118d2575f5ffd5b50565b5f815190506118e3816118bf565b92915050565b5f602082840312156118fe576118fd610c04565b5b5f61190b848285016118d5565b9150509291505056fea264697066735822122007886af07dc6df762e29b8bb58b16f5836f933852a588e6e8a71abce084dda8564736f6c634300081e0033","linkReferences":{}},"methodIdentifiers":{"manager()":"481c6a75","take((address,address,uint24,int24,address),uint256,uint256)":"055419b6","unlockCallback(bytes)":"91dd7346"},"id":73}