{"abi":[{"type":"constructor","inputs":[{"name":"_manager","type":"address","internalType":"contract IPoolManager"}],"stateMutability":"nonpayable"},{"type":"function","name":"donate","inputs":[{"name":"key","type":"tuple","internalType":"struct PoolKey","components":[{"name":"currency0","type":"address","internalType":"Currency"},{"name":"currency1","type":"address","internalType":"Currency"},{"name":"fee","type":"uint24","internalType":"uint24"},{"name":"tickSpacing","type":"int24","internalType":"int24"},{"name":"hooks","type":"address","internalType":"contract IHooks"}]},{"name":"amount0","type":"uint256","internalType":"uint256"},{"name":"amount1","type":"uint256","internalType":"uint256"},{"name":"hookData","type":"bytes","internalType":"bytes"}],"outputs":[{"name":"delta","type":"int256","internalType":"BalanceDelta"}],"stateMutability":"payable"},{"type":"function","name":"manager","inputs":[],"outputs":[{"name":"","type":"address","internalType":"contract IPoolManager"}],"stateMutability":"view"},{"type":"function","name":"unlockCallback","inputs":[{"name":"rawData","type":"bytes","internalType":"bytes"}],"outputs":[{"name":"","type":"bytes","internalType":"bytes"}],"stateMutability":"nonpayable"}],"bytecode":{"object":"0x60a060405234801561000f575f5ffd5b50604051611f9a380380611f9a833981810160405281019061003191906100dc565b808073ffffffffffffffffffffffffffffffffffffffff1660808173ffffffffffffffffffffffffffffffffffffffff16815250505050610107565b5f5ffd5b5f73ffffffffffffffffffffffffffffffffffffffff82169050919050565b5f61009a82610071565b9050919050565b5f6100ab82610090565b9050919050565b6100bb816100a1565b81146100c5575f5ffd5b50565b5f815190506100d6816100b2565b92915050565b5f602082840312156100f1576100f061006d565b5b5f6100fe848285016100c8565b91505092915050565b608051611e3d61015d5f395f818160d00152818161021d0152818161024301528181610366015281816104f501528181610560015281816105cc0152818161062e015281816107cc01526108190152611e3d5ff3fe608060405260043610610033575f3560e01c8063234266d714610037578063481c6a751461006757806391dd734614610091575b5f5ffd5b610051600480360381019061004c919061124d565b6100cd565b60405161005e9190611310565b60405180910390f35b348015610072575f5ffd5b5061007b61021b565b604051610088919061137b565b60405180910390f35b34801561009c575f5ffd5b506100b760048036038101906100b291906113f1565b61023f565b6040516100c4919061149c565b60405180910390f35b5f7f000000000000000000000000000000000000000000000000000000000000000073ffffffffffffffffffffffffffffffffffffffff166348c894916040518060a001604052803373ffffffffffffffffffffffffffffffffffffffff16815260200188815260200187815260200186815260200185815250604051602001610157919061165b565b6040516020818303038152906040526040518263ffffffff1660e01b8152600401610182919061149c565b5f604051808303815f875af115801561019d573d5f5f3e3d5ffd5b505050506040513d5f823e3d601f19601f820116820180604052508101906101c591906116e9565b8060200190518101906101d8919061175a565b90505f4790505f8111156102125761021133825f73ffffffffffffffffffffffffffffffffffffffff166106b29092919063ffffffff16565b5b50949350505050565b7f000000000000000000000000000000000000000000000000000000000000000081565b60607f000000000000000000000000000000000000000000000000000000000000000073ffffffffffffffffffffffffffffffffffffffff163373ffffffffffffffffffffffffffffffffffffffff1614610298575f5ffd5b5f83838101906102a89190611856565b90505f6102c082602001515f0151835f015130610799565b925050505f6102db836020015160200151845f015130610799565b925050505f8214610321576040517f08c379a0000000000000000000000000000000000000000000000000000000008152600401610318906118f7565b60405180910390fd5b5f8114610363576040517f08c379a000000000000000000000000000000000000000000000000000000000815260040161035a9061195f565b60405180910390fd5b5f7f000000000000000000000000000000000000000000000000000000000000000073ffffffffffffffffffffffffffffffffffffffff1663234266d785602001518660400151876060015188608001516040518563ffffffff1660e01b81526004016103d394939291906119f2565b6020604051808303815f875af11580156103ef573d5f5f3e3d5ffd5b505050506040513d601f19601f82011682018060405250810190610413919061175a565b90505f61042b85602001515f0151865f015130610799565b925050505f610446866020015160200151875f015130610799565b92505050856040015161045890611a6a565b8214610499576040517f08c379a000000000000000000000000000000000000000000000000000000000815260040161049090611b20565b60405180910390fd5b85606001516104a790611a6a565b81146104e8576040517f08c379a00000000000000000000000000000000000000000000000000000000081526004016104df90611bae565b60405180910390fd5b5f821215610553576105527f0000000000000000000000000000000000000000000000000000000000000000875f01518461052290611a6a565b5f8a602001515f015173ffffffffffffffffffffffffffffffffffffffff1661086890949392919063ffffffff16565b5b5f8112156105bf576105be7f0000000000000000000000000000000000000000000000000000000000000000875f01518361058d90611a6a565b5f8a602001516020015173ffffffffffffffffffffffffffffffffffffffff1661086890949392919063ffffffff16565b5b5f821315610621576106207f0000000000000000000000000000000000000000000000000000000000000000875f0151845f8a602001515f015173ffffffffffffffffffffffffffffffffffffffff16610ba690949392919063ffffffff16565b5b5f811315610684576106837f0000000000000000000000000000000000000000000000000000000000000000875f0151835f8a602001516020015173ffffffffffffffffffffffffffffffffffffffff16610ba690949392919063ffffffff16565b5b826040516020016106959190611310565b604051602081830303815290604052965050505050505092915050565b5f6106d28473ffffffffffffffffffffffffffffffffffffffff16610caa565b15610701575f5f5f5f85875af19050806106fc576106fb835f60e01b63f4b3b1bc60e01b610ce1565b5b610793565b6040517fa9059cbb00000000000000000000000000000000000000000000000000000000815273ffffffffffffffffffffffffffffffffffffffff8416600482015282602482015260205f6044835f895af13d15601f3d1160015f511416171691505f81525f60208201525f60408201525080610792576107918463a9059cbb60e01b63f27f64e460e01b610ce1565b5b5b50505050565b5f5f5f6107c5858773ffffffffffffffffffffffffffffffffffffffff16610d9690919063ffffffff16565b92506108107f00000000000000000000000000000000000000000000000000000000000000008773ffffffffffffffffffffffffffffffffffffffff16610d9690919063ffffffff16565b915061085d84877f000000000000000000000000000000000000000000000000000000000000000073ffffffffffffffffffffffffffffffffffffffff16610e5b9092919063ffffffff16565b905093509350939050565b80156108fb578373ffffffffffffffffffffffffffffffffffffffff1663f5298aca846108aa8873ffffffffffffffffffffffffffffffffffffffff16610f1a565b856040518463ffffffff1660e01b81526004016108c993929190611bdb565b5f604051808303815f87803b1580156108e0575f5ffd5b505af11580156108f2573d5f5f3e3d5ffd5b50505050610b9f565b61091a8573ffffffffffffffffffffffffffffffffffffffff16610caa565b15610995578373ffffffffffffffffffffffffffffffffffffffff166311da60b4836040518263ffffffff1660e01b815260040160206040518083038185885af115801561096a573d5f5f3e3d5ffd5b50505050506040513d601f19601f8201168201806040525081019061098f9190611c24565b50610b9e565b8373ffffffffffffffffffffffffffffffffffffffff1663a5841194866040518263ffffffff1660e01b81526004016109ce9190611c5e565b5f604051808303815f87803b1580156109e5575f5ffd5b505af11580156109f7573d5f5f3e3d5ffd5b505050503073ffffffffffffffffffffffffffffffffffffffff168373ffffffffffffffffffffffffffffffffffffffff1614610ab1578473ffffffffffffffffffffffffffffffffffffffff166323b872dd8486856040518463ffffffff1660e01b8152600401610a6b93929190611c77565b6020604051808303815f875af1158015610a87573d5f5f3e3d5ffd5b505050506040513d601f19601f82011682018060405250810190610aab9190611ce1565b50610b2e565b8473ffffffffffffffffffffffffffffffffffffffff1663a9059cbb85846040518363ffffffff1660e01b8152600401610aec929190611d0c565b6020604051808303815f875af1158015610b08573d5f5f3e3d5ffd5b505050506040513d601f19601f82011682018060405250810190610b2c9190611ce1565b505b8373ffffffffffffffffffffffffffffffffffffffff166311da60b46040518163ffffffff1660e01b81526004016020604051808303815f875af1158015610b78573d5f5f3e3d5ffd5b505050506040513d601f19601f82011682018060405250810190610b9c9190611c24565b505b5b5050505050565b80610c1a578373ffffffffffffffffffffffffffffffffffffffff16630b0d9c098685856040518463ffffffff1660e01b8152600401610be893929190611d33565b5f604051808303815f87803b158015610bff575f5ffd5b505af1158015610c11573d5f5f3e3d5ffd5b50505050610ca3565b8373ffffffffffffffffffffffffffffffffffffffff1663156e29f684610c568873ffffffffffffffffffffffffffffffffffffffff16610f1a565b856040518463ffffffff1660e01b8152600401610c7593929190611bdb565b5f604051808303815f87803b158015610c8c575f5ffd5b505af1158015610c9e573d5f5f3e3d5ffd5b505050505b5050505050565b5f5f73ffffffffffffffffffffffffffffffffffffffff168273ffffffffffffffffffffffffffffffffffffffff16149050919050565b5f6390bfb86560e01b9050602080601f3d01040260405182815273ffffffffffffffffffffffffffffffffffffffff861660048201527fffffffff0000000000000000000000000000000000000000000000000000000085166024820152608060448201528160a00160648201523d60848201523d5f60a483013e60048260a4018201527fffffffff0000000000000000000000000000000000000000000000000000000084168260c4018201528160e40181fd5b5f610db68373ffffffffffffffffffffffffffffffffffffffff16610caa565b15610dda578173ffffffffffffffffffffffffffffffffffffffff16319050610e55565b8273ffffffffffffffffffffffffffffffffffffffff166370a08231836040518263ffffffff1660e01b8152600401610e139190611d68565b602060405180830381865afa158015610e2e573d5f5f3e3d5ffd5b505050506040513d601f19601f82011682018060405250810190610e529190611c24565b90505b92915050565b5f5f73ffffffffffffffffffffffffffffffffffffffff84165f5273ffffffffffffffffffffffffffffffffffffffff831660205260405f2090508473ffffffffffffffffffffffffffffffffffffffff1663f135baaa826040518263ffffffff1660e01b8152600401610ecf9190611d99565b602060405180830381865afa158015610eea573d5f5f3e3d5ffd5b505050506040513d601f19601f82011682018060405250810190610f0e9190611ddc565b5f1c9150509392505050565b5f8173ffffffffffffffffffffffffffffffffffffffff169050919050565b5f604051905090565b5f5ffd5b5f5ffd5b5f5ffd5b5f601f19601f8301169050919050565b7f4e487b71000000000000000000000000000000000000000000000000000000005f52604160045260245ffd5b610f9482610f4e565b810181811067ffffffffffffffff82111715610fb357610fb2610f5e565b5b80604052505050565b5f610fc5610f39565b9050610fd18282610f8b565b919050565b5f5ffd5b5f73ffffffffffffffffffffffffffffffffffffffff82169050919050565b5f61100382610fda565b9050919050565b61101381610ff9565b811461101d575f5ffd5b50565b5f8135905061102e8161100a565b92915050565b5f62ffffff82169050919050565b61104b81611034565b8114611055575f5ffd5b50565b5f8135905061106681611042565b92915050565b5f8160020b9050919050565b6110818161106c565b811461108b575f5ffd5b50565b5f8135905061109c81611078565b92915050565b5f6110ac82610ff9565b9050919050565b6110bc816110a2565b81146110c6575f5ffd5b50565b5f813590506110d7816110b3565b92915050565b5f60a082840312156110f2576110f1610f4a565b5b6110fc60a0610fbc565b90505f61110b84828501611020565b5f83015250602061111e84828501611020565b602083015250604061113284828501611058565b60408301525060606111468482850161108e565b606083015250608061115a848285016110c9565b60808301525092915050565b5f819050919050565b61117881611166565b8114611182575f5ffd5b50565b5f813590506111938161116f565b92915050565b5f5ffd5b5f5ffd5b5f67ffffffffffffffff8211156111bb576111ba610f5e565b5b6111c482610f4e565b9050602081019050919050565b828183375f83830152505050565b5f6111f16111ec846111a1565b610fbc565b90508281526020810184848401111561120d5761120c61119d565b5b6112188482856111d1565b509392505050565b5f82601f83011261123457611233611199565b5b81356112448482602086016111df565b91505092915050565b5f5f5f5f610100858703121561126657611265610f42565b5b5f611273878288016110dd565b94505060a061128487828801611185565b93505060c061129587828801611185565b92505060e085013567ffffffffffffffff8111156112b6576112b5610f46565b5b6112c287828801611220565b91505092959194509250565b5f819050919050565b5f819050919050565b5f6112fa6112f56112f0846112ce565b6112d7565b6112ce565b9050919050565b61130a816112e0565b82525050565b5f6020820190506113235f830184611301565b92915050565b5f61134361133e61133984610fda565b6112d7565b610fda565b9050919050565b5f61135482611329565b9050919050565b5f6113658261134a565b9050919050565b6113758161135b565b82525050565b5f60208201905061138e5f83018461136c565b92915050565b5f5ffd5b5f5ffd5b5f5f83601f8401126113b1576113b0611199565b5b8235905067ffffffffffffffff8111156113ce576113cd611394565b5b6020830191508360018202830111156113ea576113e9611398565b5b9250929050565b5f5f6020838503121561140757611406610f42565b5b5f83013567ffffffffffffffff81111561142457611423610f46565b5b6114308582860161139c565b92509250509250929050565b5f81519050919050565b5f82825260208201905092915050565b8281835e5f83830152505050565b5f61146e8261143c565b6114788185611446565b9350611488818560208601611456565b61149181610f4e565b840191505092915050565b5f6020820190508181035f8301526114b48184611464565b905092915050565b6114c581610ff9565b82525050565b5f6114d58261134a565b9050919050565b6114e5816114cb565b82525050565b6114f481611034565b82525050565b6115038161106c565b82525050565b5f6115138261134a565b9050919050565b61152381611509565b82525050565b60a082015f82015161153d5f8501826114dc565b50602082015161155060208501826114dc565b50604082015161156360408501826114eb565b50606082015161157660608501826114fa565b506080820151611589608085018261151a565b50505050565b61159881611166565b82525050565b5f82825260208201905092915050565b5f6115b88261143c565b6115c2818561159e565b93506115d2818560208601611456565b6115db81610f4e565b840191505092915050565b5f61012083015f8301516115fc5f8601826114bc565b50602083015161160f6020860182611529565b50604083015161162260c086018261158f565b50606083015161163560e086018261158f565b50608083015184820361010086015261164e82826115ae565b9150508091505092915050565b5f6020820190508181035f83015261167381846115e6565b905092915050565b5f61168d611688846111a1565b610fbc565b9050828152602081018484840111156116a9576116a861119d565b5b6116b4848285611456565b509392505050565b5f82601f8301126116d0576116cf611199565b5b81516116e084826020860161167b565b91505092915050565b5f602082840312156116fe576116fd610f42565b5b5f82015167ffffffffffffffff81111561171b5761171a610f46565b5b611727848285016116bc565b91505092915050565b611739816112ce565b8114611743575f5ffd5b50565b5f8151905061175481611730565b92915050565b5f6020828403121561176f5761176e610f42565b5b5f61177c84828501611746565b91505092915050565b61178e81610ff9565b8114611798575f5ffd5b50565b5f813590506117a981611785565b92915050565b5f61012082840312156117c5576117c4610f4a565b5b6117cf60a0610fbc565b90505f6117de8482850161179b565b5f8301525060206117f1848285016110dd565b60208301525060c061180584828501611185565b60408301525060e061181984828501611185565b60608301525061010082013567ffffffffffffffff81111561183e5761183d610fd6565b5b61184a84828501611220565b60808301525092915050565b5f6020828403121561186b5761186a610f42565b5b5f82013567ffffffffffffffff81111561188857611887610f46565b5b611894848285016117af565b91505092915050565b5f82825260208201905092915050565b7f64656c74614265666f726530206973206e6f74203000000000000000000000005f82015250565b5f6118e160158361189d565b91506118ec826118ad565b602082019050919050565b5f6020820190508181035f83015261190e816118d5565b9050919050565b7f64656c74614265666f726531206973206e6f74203000000000000000000000005f82015250565b5f61194960158361189d565b915061195482611915565b602082019050919050565b5f6020820190508181035f8301526119768161193d565b9050919050565b60a082015f8201516119915f8501826114dc565b5060208201516119a460208501826114dc565b5060408201516119b760408501826114eb565b5060608201516119ca60608501826114fa565b5060808201516119dd608085018261151a565b50505050565b6119ec81611166565b82525050565b5f61010082019050611a065f83018761197d565b611a1360a08301866119e3565b611a2060c08301856119e3565b81810360e0830152611a328184611464565b905095945050505050565b7f4e487b71000000000000000000000000000000000000000000000000000000005f52601160045260245ffd5b5f611a74826112ce565b91507f80000000000000000000000000000000000000000000000000000000000000008203611aa657611aa5611a3d565b5b815f039050919050565b7f64656c7461416674657230206973206e6f7420657175616c20746f202d696e745f8201527f32353628646174612e616d6f756e743029000000000000000000000000000000602082015250565b5f611b0a60318361189d565b9150611b1582611ab0565b604082019050919050565b5f6020820190508181035f830152611b3781611afe565b9050919050565b7f64656c7461416674657231206973206e6f7420657175616c20746f202d696e745f8201527f32353628646174612e616d6f756e743129000000000000000000000000000000602082015250565b5f611b9860318361189d565b9150611ba382611b3e565b604082019050919050565b5f6020820190508181035f830152611bc581611b8c565b9050919050565b611bd581610ff9565b82525050565b5f606082019050611bee5f830186611bcc565b611bfb60208301856119e3565b611c0860408301846119e3565b949350505050565b5f81519050611c1e8161116f565b92915050565b5f60208284031215611c3957611c38610f42565b5b5f611c4684828501611c10565b91505092915050565b611c58816114cb565b82525050565b5f602082019050611c715f830184611c4f565b92915050565b5f606082019050611c8a5f830186611bcc565b611c976020830185611bcc565b611ca460408301846119e3565b949350505050565b5f8115159050919050565b611cc081611cac565b8114611cca575f5ffd5b50565b5f81519050611cdb81611cb7565b92915050565b5f60208284031215611cf657611cf5610f42565b5b5f611d0384828501611ccd565b91505092915050565b5f604082019050611d1f5f830185611bcc565b611d2c60208301846119e3565b9392505050565b5f606082019050611d465f830186611c4f565b611d536020830185611bcc565b611d6060408301846119e3565b949350505050565b5f602082019050611d7b5f830184611bcc565b92915050565b5f819050919050565b611d9381611d81565b82525050565b5f602082019050611dac5f830184611d8a565b92915050565b611dbb81611d81565b8114611dc5575f5ffd5b50565b5f81519050611dd681611db2565b92915050565b5f60208284031215611df157611df0610f42565b5b5f611dfe84828501611dc8565b9150509291505056fea2646970667358221220115074fe55e5495f7b7fe000e30187abfd5d0281f9251682b7477757fd99648564736f6c634300081e0033","linkReferences":{}},"methodIdentifiers":{"donate((address,address,uint24,int24,address),uint256,uint256,bytes)":"234266d7","manager()":"481c6a75","unlockCallback(bytes)":"91dd7346"},"id":68}