{"abi":[{"type":"constructor","inputs":[{"name":"_manager","type":"address","internalType":"contract IPoolManager"}],"stateMutability":"nonpayable"},{"type":"function","name":"deposit","inputs":[{"name":"currency","type":"address","internalType":"Currency"},{"name":"user","type":"address","internalType":"address"},{"name":"amount","type":"uint256","internalType":"uint256"}],"outputs":[],"stateMutability":"payable"},{"type":"function","name":"manager","inputs":[],"outputs":[{"name":"","type":"address","internalType":"contract IPoolManager"}],"stateMutability":"view"},{"type":"function","name":"unlockCallback","inputs":[{"name":"rawData","type":"bytes","internalType":"bytes"}],"outputs":[{"name":"","type":"bytes","internalType":"bytes"}],"stateMutability":"nonpayable"},{"type":"function","name":"withdraw","inputs":[{"name":"currency","type":"address","internalType":"Currency"},{"name":"user","type":"address","internalType":"address"},{"name":"amount","type":"uint256","internalType":"uint256"}],"outputs":[],"stateMutability":"payable"}],"bytecode":{"object":"0x60a060405234801561000f575f5ffd5b50604051611354380380611354833981810160405281019061003191906100dc565b808073ffffffffffffffffffffffffffffffffffffffff1660808173ffffffffffffffffffffffffffffffffffffffff16815250505050610107565b5f5ffd5b5f73ffffffffffffffffffffffffffffffffffffffff82169050919050565b5f61009a82610071565b9050919050565b5f6100ab82610090565b9050919050565b6100bb816100a1565b81146100c5575f5ffd5b50565b5f815190506100d6816100b2565b92915050565b5f602082840312156100f1576100f061006d565b5b5f6100fe848285016100c8565b91505092915050565b60805161120561014f5f395f818160e20152818161010601528181610234015281816102aa0152818161030601528181610366015281816103c2015261044401526112055ff3fe60806040526004361061003e575f3560e01c8063481c6a75146100425780638340f5491461006c57806391dd734614610088578063d9caed12146100c4575b5f5ffd5b34801561004d575f5ffd5b506100566100e0565b6040516100639190610a7f565b60405180910390f35b61008660048036038101906100819190610b41565b610104565b005b348015610093575f5ffd5b506100ae60048036038101906100a99190610bf2565b610230565b6040516100bb9190610cad565b60405180910390f35b6100de60048036038101906100d99190610b41565b610442565b005b7f000000000000000000000000000000000000000000000000000000000000000081565b7f000000000000000000000000000000000000000000000000000000000000000073ffffffffffffffffffffffffffffffffffffffff166348c894916040518060a001604052803373ffffffffffffffffffffffffffffffffffffffff1681526020018573ffffffffffffffffffffffffffffffffffffffff1681526020018673ffffffffffffffffffffffffffffffffffffffff168152602001848152602001600115158152506040516020016101bc9190610d8b565b6040516020818303038152906040526040518263ffffffff1660e01b81526004016101e79190610cad565b5f604051808303815f875af1158015610202573d5f5f3e3d5ffd5b505050506040513d5f823e3d601f19601f8201168201806040525081019061022a9190610ebe565b50505050565b60607f000000000000000000000000000000000000000000000000000000000000000073ffffffffffffffffffffffffffffffffffffffff163373ffffffffffffffffffffffffffffffffffffffff1614610289575f5ffd5b5f83838101906102999190610fbc565b9050806080015115610361576103017f0000000000000000000000000000000000000000000000000000000000000000826020015183606001516001856040015173ffffffffffffffffffffffffffffffffffffffff1661056d90949392919063ffffffff16565b61035c7f0000000000000000000000000000000000000000000000000000000000000000826020015183606001515f856040015173ffffffffffffffffffffffffffffffffffffffff1661067190949392919063ffffffff16565b610419565b6103bd7f0000000000000000000000000000000000000000000000000000000000000000826020015183606001516001856040015173ffffffffffffffffffffffffffffffffffffffff1661067190949392919063ffffffff16565b6104187f0000000000000000000000000000000000000000000000000000000000000000826020015183606001515f856040015173ffffffffffffffffffffffffffffffffffffffff1661056d90949392919063ffffffff16565b5b5f60405160200161042a919061102c565b60405160208183030381529060405291505092915050565b7f000000000000000000000000000000000000000000000000000000000000000073ffffffffffffffffffffffffffffffffffffffff166348c894916040518060a001604052803373ffffffffffffffffffffffffffffffffffffffff1681526020018573ffffffffffffffffffffffffffffffffffffffff1681526020018673ffffffffffffffffffffffffffffffffffffffff1681526020018481526020015f15158152506040516020016104f99190610d8b565b6040516020818303038152906040526040518263ffffffff1660e01b81526004016105249190610cad565b5f604051808303815f875af115801561053f573d5f5f3e3d5ffd5b505050506040513d5f823e3d601f19601f820116820180604052508101906105679190610ebe565b50505050565b806105e1578373ffffffffffffffffffffffffffffffffffffffff16630b0d9c098685856040518463ffffffff1660e01b81526004016105af93929190611072565b5f604051808303815f87803b1580156105c6575f5ffd5b505af11580156105d8573d5f5f3e3d5ffd5b5050505061066a565b8373ffffffffffffffffffffffffffffffffffffffff1663156e29f68461061d8873ffffffffffffffffffffffffffffffffffffffff166109af565b856040518463ffffffff1660e01b815260040161063c939291906110a7565b5f604051808303815f87803b158015610653575f5ffd5b505af1158015610665573d5f5f3e3d5ffd5b505050505b5050505050565b8015610704578373ffffffffffffffffffffffffffffffffffffffff1663f5298aca846106b38873ffffffffffffffffffffffffffffffffffffffff166109af565b856040518463ffffffff1660e01b81526004016106d2939291906110a7565b5f604051808303815f87803b1580156106e9575f5ffd5b505af11580156106fb573d5f5f3e3d5ffd5b505050506109a8565b6107238573ffffffffffffffffffffffffffffffffffffffff166109ce565b1561079e578373ffffffffffffffffffffffffffffffffffffffff166311da60b4836040518263ffffffff1660e01b815260040160206040518083038185885af1158015610773573d5f5f3e3d5ffd5b50505050506040513d601f19601f8201168201806040525081019061079891906110f0565b506109a7565b8373ffffffffffffffffffffffffffffffffffffffff1663a5841194866040518263ffffffff1660e01b81526004016107d7919061111b565b5f604051808303815f87803b1580156107ee575f5ffd5b505af1158015610800573d5f5f3e3d5ffd5b505050503073ffffffffffffffffffffffffffffffffffffffff168373ffffffffffffffffffffffffffffffffffffffff16146108ba578473ffffffffffffffffffffffffffffffffffffffff166323b872dd8486856040518463ffffffff1660e01b815260040161087493929190611134565b6020604051808303815f875af1158015610890573d5f5f3e3d5ffd5b505050506040513d601f19601f820116820180604052508101906108b4919061117d565b50610937565b8473ffffffffffffffffffffffffffffffffffffffff1663a9059cbb85846040518363ffffffff1660e01b81526004016108f59291906111a8565b6020604051808303815f875af1158015610911573d5f5f3e3d5ffd5b505050506040513d601f19601f82011682018060405250810190610935919061117d565b505b8373ffffffffffffffffffffffffffffffffffffffff166311da60b46040518163ffffffff1660e01b81526004016020604051808303815f875af1158015610981573d5f5f3e3d5ffd5b505050506040513d601f19601f820116820180604052508101906109a591906110f0565b505b5b5050505050565b5f8173ffffffffffffffffffffffffffffffffffffffff169050919050565b5f5f73ffffffffffffffffffffffffffffffffffffffff168273ffffffffffffffffffffffffffffffffffffffff16149050919050565b5f73ffffffffffffffffffffffffffffffffffffffff82169050919050565b5f819050919050565b5f610a47610a42610a3d84610a05565b610a24565b610a05565b9050919050565b5f610a5882610a2d565b9050919050565b5f610a6982610a4e565b9050919050565b610a7981610a5f565b82525050565b5f602082019050610a925f830184610a70565b92915050565b5f604051905090565b5f5ffd5b5f5ffd5b5f610ab382610a05565b9050919050565b610ac381610aa9565b8114610acd575f5ffd5b50565b5f81359050610ade81610aba565b92915050565b610aed81610aa9565b8114610af7575f5ffd5b50565b5f81359050610b0881610ae4565b92915050565b5f819050919050565b610b2081610b0e565b8114610b2a575f5ffd5b50565b5f81359050610b3b81610b17565b92915050565b5f5f5f60608486031215610b5857610b57610aa1565b5b5f610b6586828701610ad0565b9350506020610b7686828701610afa565b9250506040610b8786828701610b2d565b9150509250925092565b5f5ffd5b5f5ffd5b5f5ffd5b5f5f83601f840112610bb257610bb1610b91565b5b8235905067ffffffffffffffff811115610bcf57610bce610b95565b5b602083019150836001820283011115610beb57610bea610b99565b5b9250929050565b5f5f60208385031215610c0857610c07610aa1565b5b5f83013567ffffffffffffffff811115610c2557610c24610aa5565b5b610c3185828601610b9d565b92509250509250929050565b5f81519050919050565b5f82825260208201905092915050565b8281835e5f83830152505050565b5f601f19601f8301169050919050565b5f610c7f82610c3d565b610c898185610c47565b9350610c99818560208601610c57565b610ca281610c65565b840191505092915050565b5f6020820190508181035f830152610cc58184610c75565b905092915050565b610cd681610aa9565b82525050565b5f610ce682610a4e565b9050919050565b610cf681610cdc565b82525050565b610d0581610b0e565b82525050565b5f8115159050919050565b610d1f81610d0b565b82525050565b60a082015f820151610d395f850182610ccd565b506020820151610d4c6020850182610ccd565b506040820151610d5f6040850182610ced565b506060820151610d726060850182610cfc565b506080820151610d856080850182610d16565b50505050565b5f60a082019050610d9e5f830184610d25565b92915050565b5f5ffd5b7f4e487b71000000000000000000000000000000000000000000000000000000005f52604160045260245ffd5b610dde82610c65565b810181811067ffffffffffffffff82111715610dfd57610dfc610da8565b5b80604052505050565b5f610e0f610a98565b9050610e1b8282610dd5565b919050565b5f67ffffffffffffffff821115610e3a57610e39610da8565b5b610e4382610c65565b9050602081019050919050565b5f610e62610e5d84610e20565b610e06565b905082815260208101848484011115610e7e57610e7d610da4565b5b610e89848285610c57565b509392505050565b5f82601f830112610ea557610ea4610b91565b5b8151610eb5848260208601610e50565b91505092915050565b5f60208284031215610ed357610ed2610aa1565b5b5f82015167ffffffffffffffff811115610ef057610eef610aa5565b5b610efc84828501610e91565b91505092915050565b5f5ffd5b610f1281610d0b565b8114610f1c575f5ffd5b50565b5f81359050610f2d81610f09565b92915050565b5f60a08284031215610f4857610f47610f05565b5b610f5260a0610e06565b90505f610f6184828501610afa565b5f830152506020610f7484828501610afa565b6020830152506040610f8884828501610ad0565b6040830152506060610f9c84828501610b2d565b6060830152506080610fb084828501610f1f565b60808301525092915050565b5f60a08284031215610fd157610fd0610aa1565b5b5f610fde84828501610f33565b91505092915050565b5f819050919050565b5f60ff82169050919050565b5f61101661101161100c84610fe7565b610a24565b610ff0565b9050919050565b61102681610ffc565b82525050565b5f60208201905061103f5f83018461101d565b92915050565b61104e81610cdc565b82525050565b61105d81610aa9565b82525050565b61106c81610b0e565b82525050565b5f6060820190506110855f830186611045565b6110926020830185611054565b61109f6040830184611063565b949350505050565b5f6060820190506110ba5f830186611054565b6110c76020830185611063565b6110d46040830184611063565b949350505050565b5f815190506110ea81610b17565b92915050565b5f6020828403121561110557611104610aa1565b5b5f611112848285016110dc565b91505092915050565b5f60208201905061112e5f830184611045565b92915050565b5f6060820190506111475f830186611054565b6111546020830185611054565b6111616040830184611063565b949350505050565b5f8151905061117781610f09565b92915050565b5f6020828403121561119257611191610aa1565b5b5f61119f84828501611169565b91505092915050565b5f6040820190506111bb5f830185611054565b6111c86020830184611063565b939250505056fea264697066735822122072dd0d6615b27e71786d42b89705ce776011dd0764e6f5d8df07431f8650428c64736f6c634300081e0033","linkReferences":{}},"methodIdentifiers":{"deposit(address,address,uint256)":"8340f549","manager()":"481c6a75","unlockCallback(bytes)":"91dd7346","withdraw(address,address,uint256)":"d9caed12"},"id":67}