{"abi":[{"type":"function","name":"SQRT_PRICE_10000_100","inputs":[],"outputs":[{"name":"","type":"uint160","internalType":"uint160"}],"stateMutability":"view"},{"type":"function","name":"SQRT_PRICE_1000_100","inputs":[],"outputs":[{"name":"","type":"uint160","internalType":"uint160"}],"stateMutability":"view"},{"type":"function","name":"SQRT_PRICE_1010_100","inputs":[],"outputs":[{"name":"","type":"uint160","internalType":"uint160"}],"stateMutability":"view"},{"type":"function","name":"SQRT_PRICE_101_100","inputs":[],"outputs":[{"name":"","type":"uint160","internalType":"uint160"}],"stateMutability":"view"},{"type":"function","name":"SQRT_PRICE_121_100","inputs":[],"outputs":[{"name":"","type":"uint160","internalType":"uint160"}],"stateMutability":"view"},{"type":"function","name":"SQRT_PRICE_1_1","inputs":[],"outputs":[{"name":"","type":"uint160","internalType":"uint160"}],"stateMutability":"view"},{"type":"function","name":"SQRT_PRICE_1_2","inputs":[],"outputs":[{"name":"","type":"uint160","internalType":"uint160"}],"stateMutability":"view"},{"type":"function","name":"SQRT_PRICE_1_4","inputs":[],"outputs":[{"name":"","type":"uint160","internalType":"uint160"}],"stateMutability":"view"},{"type":"function","name":"SQRT_PRICE_2_1","inputs":[],"outputs":[{"name":"","type":"uint160","internalType":"uint160"}],"stateMutability":"view"},{"type":"function","name":"SQRT_PRICE_4_1","inputs":[],"outputs":[{"name":"","type":"uint160","internalType":"uint160"}],"stateMutability":"view"},{"type":"function","name":"SQRT_PRICE_99_100","inputs":[],"outputs":[{"name":"","type":"uint160","internalType":"uint160"}],"stateMutability":"view"},{"type":"function","name":"SQRT_PRICE_99_1000","inputs":[],"outputs":[{"name":"","type":"uint160","internalType":"uint160"}],"stateMutability":"view"}],"bytecode":{"object":"0x61036e61004d600b8282823980515f1a6073146041577f4e487b71000000000000000000000000000000000000000000000000000000005f525f60045260245ffd5b305f52607381538281f3fe73000000000000000000000000000000000000000030146080604052600436106100bd575f3560e01c8063ae366da71161007a578063ae366da714610175578063bbc49a6e14610193578063bd5e4184146101b1578063e282efb7146101cf578063ed318160146101ed578063fcc6433b1461020b576100bd565b8063328b22b4146100c157806388c8f225146100df5780638a81a2de146100fd57806398ec04cc1461011b578063a318580114610139578063a96bfbf214610157575b5f5ffd5b6100c9610229565b6040516100d6919061031f565b60405180910390f35b6100e761023a565b6040516100f4919061031f565b60405180910390f35b61010561024b565b604051610112919061031f565b60405180910390f35b61012361025c565b604051610130919061031f565b60405180910390f35b61014161026d565b60405161014e919061031f565b60405180910390f35b61015f61027e565b60405161016c919061031f565b60405180910390f35b61017d61028e565b60405161018a919061031f565b60405180910390f35b61019b61029e565b6040516101a8919061031f565b60405180910390f35b6101b96102af565b6040516101c6919061031f565b60405180910390f35b6101d76102bf565b6040516101e4919061031f565b60405180910390f35b6101f56102d0565b604051610202919061031f565b60405180910390f35b6102136102e0565b604051610220919061031f565b60405180910390f35b6c010146dd68287f35899f20af6781565b6c032d94aa8d0f912742a3fc34e181565b6c0200000000000000000000000081565b6c016a09e667f3bcc908b2fb136681565b6c0a00000000000000000000000081565b6b508c6bc6cb3b01636bd290d181565b6bfeb77f264dc5273ef5e2f75b81565b6c03298b075b4b6a52409457906181565b6bb504f333f9de6484597d89b381565b6c0119999999999999999999999981565b6b80000000000000000000000081565b6c0100000000000000000000000081565b5f73ffffffffffffffffffffffffffffffffffffffff82169050919050565b610319816102f1565b82525050565b5f6020820190506103325f830184610310565b9291505056fea2646970667358221220f3c84e6b21182e93b911bf53aa2bd8dea05f8e787def3250c61eaf7f390b6f9664736f6c634300081e0033","linkReferences":{}},"methodIdentifiers":{"SQRT_PRICE_10000_100()":"a3185801","SQRT_PRICE_1000_100()":"bbc49a6e","SQRT_PRICE_1010_100()":"88c8f225","SQRT_PRICE_101_100()":"328b22b4","SQRT_PRICE_121_100()":"e282efb7","SQRT_PRICE_1_1()":"fcc6433b","SQRT_PRICE_1_2()":"bd5e4184","SQRT_PRICE_1_4()":"ed318160","SQRT_PRICE_2_1()":"98ec04cc","SQRT_PRICE_4_1()":"8a81a2de","SQRT_PRICE_99_100()":"ae366da7","SQRT_PRICE_99_1000()":"a96bfbf2"},"id":83}