{"abi":[{"type":"constructor","inputs":[{"name":"_poolManager","type":"address","internalType":"contract IPoolManager"}],"stateMutability":"nonpayable"},{"type":"function","name":"poolManager","inputs":[],"outputs":[{"name":"","type":"address","internalType":"contract IPoolManager"}],"stateMutability":"view"},{"type":"error","name":"NotPoolManager","inputs":[]}],"bytecode":{"object":"0x60a060405234801561000f575f5ffd5b5060405161023f38038061023f833981810160405281019061003191906100da565b8073ffffffffffffffffffffffffffffffffffffffff1660808173ffffffffffffffffffffffffffffffffffffffff168152505050610105565b5f5ffd5b5f73ffffffffffffffffffffffffffffffffffffffff82169050919050565b5f6100988261006f565b9050919050565b5f6100a98261008e565b9050919050565b6100b98161009f565b81146100c3575f5ffd5b50565b5f815190506100d4816100b0565b92915050565b5f602082840312156100ef576100ee61006b565b5b5f6100fc848285016100c6565b91505092915050565b60805161012361011c5f395f604601526101235ff3fe6080604052348015600e575f5ffd5b50600436106026575f3560e01c8063dc4c90d314602a575b5f5ffd5b60306044565b604051603b919060d6565b60405180910390f35b7f000000000000000000000000000000000000000000000000000000000000000081565b5f73ffffffffffffffffffffffffffffffffffffffff82169050919050565b5f819050919050565b5f60a460a0609c846068565b6087565b6068565b9050919050565b5f60b3826090565b9050919050565b5f60c28260ab565b9050919050565b60d08160ba565b82525050565b5f60208201905060e75f83018460c9565b9291505056fea264697066735822122073558fd1cb646b4f745f8a57961ad4fe740905e9344939188c8ac9eaf3e108fe64736f6c634300081e0033","linkReferences":{}},"methodIdentifiers":{"poolManager()":"dc4c90d3"},"id":83}